:100000000C946F000C94060B0C94330B0C9497001B
:100010000C9497000C9497000C9497000C94970004
:100020000C9497000C9497000C9497000C949700F4
:100030000C9497000C9497000C9497000C949700E4
:100040000C94600B0C94A4000C941C0D0C946A0D81
:100050000C9497000C9497000C9497000C949700C4
:100060000C9475080C9497000D0A00486F6C696435
:1000700061794475696E6F30320D0A00000000002E
:10008000240027002A0000000000250028002B0083
:1000900000000000230026002900040404040404D6
:1000A0000404020202020202030303030303010227
:1000B00004081020408001020408102001020408F6
:1000C00010200000000700020100000304060000E9
:1000D000000000000000A601EC06C70ACD0E1124A6
:1000E0001FBECFEFD8E0DEBFCDBF11E0A0E0B1E092
:1000F000E6EEF1E202C005900D92A634B107D9F701
:1001000016E0A6E4B1E001C01D92AE30B107E1F700
:1001100010E0CEEDD0E004C02297FE010E94E80F6F
:10012000C63DD107C9F70E94230F0C94F1100C941F
:100130000000FC01A081B1812D913C91F90109954C
:10014000089581E0089508951F920F920FB60F92BF
:1001500011248F939F93EF93FF939EB580913D045D
:10016000863970F480913D04E0913404F0913504B7
:10017000E80FF11D908380913D048F5F80933D04D3
:10018000FF91EF919F918F910F900FBE0F901F9055
:100190001895282F982F905397FD10C08A538730B9
:1001A00068F09A3014F0922F9753892F805188313C
:1001B00028F0903134F0905290311CF02FEF3FEF47
:1001C00004C0292F332727FD3095C9010895EF92E8
:1001D000FF920F931F937C01FC0180810E94C90054
:1001E0008C01F70181810E94C90024E0000F111FDA
:1001F0002A95E1F7082B192BC8011F910F91FF9049
:10020000EF900895CF92DF92EF92FF920F931F939A
:100210008C01FC0180810E94C900D82EF8018181E7
:100220000E94C900C82EF80182810E94C9007C0189
:10023000F80183810E94C9005D2D5295507F40E0F6
:100240003C2D20E0422B532B482B592B34E0EE0C55
:10025000FF1C3A95E1F74E295F29CA011F910F91C2
:10026000FF90EF90DF90CF900895FC01549A80E1C9
:1002700082838BE290E0948383830895DF93CF930E
:1002800000D00F92CDB7DEB7DC01AB01ED91FC9150
:100290000680F781E02D19821A821B82BE016F5FF2
:1002A0007F4F20E009950F900F900F90CF91DF9135
:1002B00008950F936BB9001400140014001427FF65
:1002C0004BB9001400140014001400144BB902E0E0
:1002D0000A95F1F70F9108950F936BB9001400146C
:1002E0000014001427FF4BB900140014001400146C
:1002F00000144BB9001403E00A95F1F70F9108952B
:100300006BB9001400140014001426FF4BB900143C
:1003100000140014001400144BB90014001400144D
:100320000014001408950F936BB900140014001406
:10033000001425FF4BB9001400140014001400141D
:100340004BB903E00A95F1F70F91089508950E94C3
:10035000A50B60930C0170930D0180930E01909397
:100360000F0108951F9382E00E94EB0C892B49F442
:1003700080913E04882319F510923D0488E060E0E6
:100380001CC080913D048639A0F011E01093360422
:100390000E94A50B605A75418F4F9F4F609339049F
:1003A00070933A0480933B0490933C0410933E0472
:1003B00006C010923D0488E061E00E94B80C1F91D5
:1003C00008950F931F938C010E94B30B9B01AC0106
:1003D000F80180819181A281B381281B390B4A0BDE
:1003E0005B0B223331054105510534F482E390E083
:1003F000821B930B0E94010C1F910F9108956F9225
:100400007F928F929F92AF92BF92CF92DF92EF92A4
:10041000FF920F931F93CF93DF933C01162F072F6B
:100420004A01C22E05960E94E101F894212F302F37
:10043000C901EC015401AA0CBB1CA80CB91CA80EE4
:10044000B91EDBB020E1D22AEBB03FEEE322EBB8DD
:1004500009812C2D029F012D87C015E08BE290E0D1
:100460006D2D4E2D202F0E945901000F1150B1F714
:1004700000148BE290E06D2D4E2D202F0E946C0118
:100480008BE290E06D2D4E2D202F0E94800118816F
:100490003C2D139F112D8BE290E06D2D4E2D202FC2
:1004A0000E94930105E08BE290E06D2D4E2D212FEF
:1004B0000E945901110F0150B1F700148BE290E036
:1004C0006D2D4E2D212F0E946C018BE290E06D2D41
:1004D0004E2D212F0E948001FA802F2D3C2D239F2D
:1004E000212DF22E8BE290E06D2D4E2D212F0E94BA
:1004F000930115E08BE290E06D2D4E2D2F2D0E9483
:100500005901FF0C1150B1F70014DBB800140014AE
:1005100000140014F7FEEBB80014001400140014CB
:100520000014EBB80014001402E00A95F1F72396CA
:100530008BE290E06D2D4E2D2F2D0E9480010981C0
:100540002C2D029F012DDBB80014001400140014A0
:10055000F5FEEBB800140014001400140014EBB8FE
:100560000014001400140014CA15DB0508F475CF3C
:100570001124E0905B05F0905C0500915D05109101
:100580005E0588EB90E0FC018E9EC0018F9E900D71
:100590009E9E900D112464E170E00E94820F8827D6
:1005A00077FD8095982F28EE33E040E050E00E94E0
:1005B000B70FE20EF31E041F151FE0925B05F092C9
:1005C0005C0500935D0510935E0578940E94B30B63
:1005D000F3016583768387839087DF91CF911F91A5
:1005E0000F91FF90EF90DF90CF90BF90AF909F90D2
:1005F0008F907F906F9008952F923F924F925F92CD
:100600006F927F928F929F92AF92BF92CF92DF9222
:10061000EF92FF920F931F93CF93DF932C01EB0187
:100620003A01C22E05960E94E101F8945301AA0CEA
:10063000BB1CA60CB71CAC0EBD1EDBB020E1D22A41
:10064000EBB03FEEE322EBB81E010894211C311CF5
:1006500019812C2D129F112D4E018BC005E08BE2CC
:1006600090E06D2D4E2D212F0E945901110F015048
:10067000B1F700148BE290E06D2D4E2D212F0E94DA
:100680006C018BE290E06D2D4E2D212F0E94800198
:1006900008813C2D039F012D8BE290E06D2D4E2DA6
:1006A000212F0E94930115E08BE290E06D2D4E2DDD
:1006B000202F0E945901000F1150B1F700148BE256
:1006C00090E06D2D4E2D202F0E946C018BE290E06A
:1006D0006D2D4E2D202F0E948001FA802F2D3C2D54
:1006E000239F212DF22E8BE290E06D2D4E2D202F99
:1006F0000E94930115E08BE290E06D2D4E2D2F2D81
:100700000E945901FF0C1150B1F70014DBB800141E
:10071000001400140014F7FEEBB8001400140014C9
:1007200000140014EBB80014001402E00A95F1F76D
:1007300083E090E0880E991E8BE290E06D2D4E2DA7
:100740002F2D0E948001F10110812C2D129F112D5F
:10075000DBB80014001400140014F5FEEBB800140C
:100760000014001400140014EBB80014001400145A
:1007700000148A149B0408F471CF1124E0905B05E7
:10078000F0905C0500915D0510915E0588EB90E0AE
:10079000FC016E9EC0016F9E900D7E9E900D1124F7
:1007A00064E170E00E94820F882777FD8095982F82
:1007B00028EE33E040E050E00E94B70FE20EF31E57
:1007C000041F151FE0925B05F0925C0500935D0528
:1007D00010935E0578940E94B30BF20165837683D3
:1007E00087839087DF91CF911F910F91FF90EF90BA
:1007F000DF90CF90BF90AF909F908F907F906F9041
:100800005F904F903F902F9008951F93182F682F5F
:1008100062956F7060636A330CF0695D772767FDDE
:10082000709588EE95E00E948D0E612F6F70606369
:100830006A330CF0695D772767FD709588EE95E067
:100840000E948D0E1F910895EF92FF920F931F93B8
:10085000CF93DF9388EE95E00E94230E892B09F455
:10086000F1C081E0809336040E94A50B605A754167
:100870008F4F9F4F6093390470933A0480933B04E9
:1008800090933C0488EE95E00E94540E8F3349F417
:100890001092470488EE95E06BE670E00E945F0FCF
:1008A000D1C08D3019F08A3009F0ADC080913F047D
:1008B000823511F08237B9F480914704813009F410
:1008C000A2C1833029F480E494E00E94E70007C0CD
:1008D000853009F05DC080E494E00E940201EC01E3
:1008E00097FF5CC055C0873519F0873709F050C0B5
:1008F00080914704833051F480E494E00E94E70043
:1009000097FD46C0E82EC0E0D0E01EC0853061F4FF
:1009100082E494E00E94E70097FD3AC0E82E80E46C
:1009200094E00E94E7000DC0873091F584E494E0E4
:100930000E94E70097FD2CC0E82E80E494E00E941E
:100940000201EC0197FD24C082E994E060E570E0CB
:100950000E9481066D2F772767FD7A9582E994E0E2
:100960000E943407BE01707082E994E00E9434074F
:1009700082E994E06E2D0E94340782E994E00E949F
:10098000770765E070E080E090E00E94DB0B06C036
:1009900088EE95E06FE30E948D0E2EC082E994E010
:1009A00060E570E00E9481066D2F772767FD7A95DC
:1009B00082E994E00E943407D07082E994E06C2FC1
:1009C0000E94340782E994E00E94770782E994E06C
:1009D00060E570E041E050E00E94880782E994E021
:1009E0000E948B06892B29F082E994E00E949406EC
:1009F000E82E8E2D0E94050488EE95E068E670E0F2
:100A00000E945F0F1DC09091470498305CF4E92F5D
:100A1000FF27E7FDF095E15CFB4F80839F5F90939C
:100A2000470410C0E091E805F091E9050280F381E8
:100A3000E02D88EE95E060E071E043E050E009953C
:100A40001092470480913604882309F0C7C0E090D3
:100A50003904F0903A0400913B0410913C040E9448
:100A6000A50B6E157F058007910708F4B7C086E9CE
:100A7000E6E4F1E0DF011D928A95E9F7E0900C01D0
:100A8000F0900D0100910E0110910F0188EE93E09E
:100A9000A0E0B0E0E80EF91E0A1F1B1F0E94A50B84
:100AA000E616F7060807190720F48FE3809346013E
:100AB00003C08FE38093480185E00E94EB0C892BF3
:100AC00029F480914801815C8093480186E00E946E
:100AD000EB0C892B29F480914801815C80934801BB
:100AE00087E00E94EB0C892B29F480914801815CFE
:100AF000809348012091370430913804237030707E
:100B00002130310599F022303105F1F080910A0150
:100B100090910B01232B29F5FC01EE0FFF1FE80F2D
:100B2000F91FEA5BFE4F8FEF808326C080910A0198
:100B300090910B01FC01EE0FFF1FE80FF91FEA5B1C
:100B4000FE4F8FEF818318C080910A0190910B01B5
:100B5000FC01EE0FFF1FE80FF91FEA5BFE4F8FEF5E
:100B60000AC0FC01EE0FFF1FE80FF91FEA5BFE4F02
:100B70008FEF808381838283E0913201F091330192
:100B8000CF01EE5BFF4F60810E94790A80910A01DC
:100B900090910B01019690930B0180930A01C297EB
:100BA0007CF081E090E090930B0180930A018091AA
:100BB0003704909138040196909338048093370459
:100BC0000E94A50B6E5C7F4F8F4F9F4F609339043F
:100BD00070933A0480933B0490933C0480913E04CC
:100BE0008823A1F0E0913201F0913301CF01EE5B57
:100BF000FF4F60810E94790A10923E0488E061E014
:100C00000E94B80C03C0C0E0D0E0C8CEDF91CF9105
:100C10001F910F91FF90EF900895CF92DF92EF9286
:100C2000FF920F931F9398EEC92E95E0D92EC6011F
:100C300040E052EC61E070E00E94A50D85E062E0CA
:100C40000E944C0C86E062E00E944C0C87E062E05F
:100C50000E944C0C88E061E00E944C0C88E061E04E
:100C60000E94B80C8CE061E00E944C0C8CB5806452
:100C70008CBD009134011091350189E090E00E9413
:100C8000320FFC01158216821782108684E191E0F2
:100C90009183808386E4E82E81E0F82EC801BF01AD
:100CA000A70122E330E000E010E00E94240AF09265
:100CB0003504E092340410923D0410923E0480E02A
:100CC00062EB71E041E050E00E94E30A81E067EAF4
:100CD00071E042E050E00E94E30A8CB580688CBD70
:100CE00082E994E068E070E00E94AB07C6016EE71D
:100CF0000E948D0E1F910F91FF90EF90DF90CF908B
:100D0000089581E080938D0460936A0410928B04AF
:100D100010928C0408952091690430E08091680459
:100D2000281B3109C9010895409168048091690424
:100D3000481718F02FEF3FEF0AC0E42FF0E0E85B10
:100D4000FB4F8081282F30E04F5F40936804C9013A
:100D50000895E091680480916904E81718F0EFEFB6
:100D6000FFEF06C0F0E0E85BFB4F8081E82FF0E08A
:100D7000CF0108950895AC01209190043091910421
:100D800021153105E1F0909168048091690498176C
:100D9000B0F090E008C0FA01EA0FFB1F8081A85B69
:100DA000BB4F8C939F5FA92FB0E0A617B7079CF3AA
:100DB0001092680460936904CB01F90109950895C4
:100DC000E0918E04F0918F04309729F010928B04FB
:100DD00010928C0409950895109295041092940431
:100DE00088EE93E0A0E0B0E080939604909397049F
:100DF000A0939804B093990486E291E090939304B1
:100E0000809392040895CF92DF92EF92FF920F9316
:100E10001F93CF93DF937C016B018A0180918D0436
:100E20008823A1F0C0E0D0E00DC0D701ED91FC9186
:100E3000D601AC0FBD1F0190F081E02DC7016C9170
:100E400009952196C017D10780F304C0CB01642F08
:100E50000E945008C801DF91CF911F910F91FF9020
:100E6000EF90DF90CF900895DF93CF930F92CDB79F
:100E7000DEB7FC01698380918D048823C9F08091DD
:100E80008C04803238F081E090E09383828320E00C
:100E900030E015C080918B04E82FF0E0E559FB4F5E
:100EA000998190838F5F80938B0480938C0405C01D
:100EB000CE01019661E00E94500821E030E0C901B6
:100EC0000F90CF91DF9108950F93062F80916A04C0
:100ED0006BE674E040918C0421E00E94FB071092C5
:100EE0008B0410928C0410928D040F91089561E090
:100EF0000E9464070895413208F040E2862F68E4BA
:100F000074E00E94B2071092680480936904089507
:100F100021E00E947B0708951092680410926904F2
:100F200010928B0410928C040E94060A08950F936D
:100F30001F938C01862F0E94AE0780EE96E00E94E0
:100F400070088BEB96E00E946B08C8010E948C072A
:100F50001F910F9108950E9497070895880F80931D
:100F6000BA000895382F413210F040E042C080911D
:100F70009E048823E1F791E090939E042093A004BF
:100F80008FEF80930B051092C60441504093C70425
:100F90004F5F90939F0480919F04330F832B809326
:100FA0009F048091A104813041F41092A1048091AA
:100FB0009F048093BB0085EC01C085EE8093BC004C
:100FC00080919E048130E1F38091C604841710F46F
:100FD0004091C60420E030E00AC0FB01E20FF31F9D
:100FE000D901AA55BB4F8C9180832F5F3F4F2417A7
:100FF000A0F3842F08950F931F93582F122F41327F
:1010000010F081E04AC080919E048823E1F782E0DD
:1010100080939E040093A0048FEF80930B051092A1
:10102000C6044093C704A6EAB4E0FB0102C0819164
:101030008D938E2F861B8417D0F310929F0480917E
:101040009F04550F852B80939F048091A1048130CC
:1010500041F41092A10480919F048093BB0085EC21
:1010600001C085EE8093BC00112321F080919E0485
:101070008230E1F380910B058F3F11F480E00DC0C9
:1010800080910B05803211F482E007C080910B053E
:10109000803311F084E001C083E01F910F91089527
:1010A000482F613210F081E0089580919E048430D1
:1010B00011F082E008956093E904A8ECB4E0842F75
:1010C0009C01F90102C081918D938E2F841B86179C
:1010D000D0F380E008959093A5048093A40408952C
:1010E0009093A3048093A20408951F920F920FB6C9
:1010F0000F9211242F933F934F935F936F937F939E
:101100008F939F93AF93BF93EF93FF938091B90019
:1011100090E0887F90708036910509F4F2C08136A6
:101120009105CCF58832910509F47BC0893291058F
:10113000B4F48031910509F46FC0813191053CF41C
:10114000009709F447C1089709F04FC165C088317D
:10115000910509F466C0809709F047C182C08034C8
:10116000910509F4A4C08134910544F480339105BC
:1011700009F482C0C89709F038C189C0803591054B
:1011800009F489C08835910509F496C08834910521
:1011900009F02BC1AEC08839910509F413C1893912
:1011A0009105ECF48837910509F4ABC089379105B6
:1011B0004CF48836910509F4A4C08037910509F0F4
:1011C00014C19FC08838910509F4FCC0803991058D
:1011D00009F49DC08038910509F007C198C0803B93
:1011E000910509F4C6C0813B91054CF4803A910504
:1011F00009F49FC0883A910509F0F7C0BAC0803C55
:10120000910509F4E3C0883C910509F4DFC0883BEF
:10121000910509F0EAC0C2C080919F048093BB0091
:10122000CFC09091C6048091C704981768F490913C
:10123000C604E92FF0E0EA55FB4F80818093BB00A4
:101240009F5F9093C604BCC08091A004882309F4DA
:101250004BC085ED8093BC008091BC0084FDFCCF29
:10126000C2C080E280930B0585ED8093BC00809125
:10127000BC0084FDFCCFB7C080E380930B0585EDF7
:101280008093BC008091BC0084FDFCCFACC088E39F
:1012900080930B059BC08091C6049091BB00E82F02
:1012A000F0E0EA55FB4F90838F5F8093C6049091E6
:1012B000C6048091C70482C08091C6049091BB008F
:1012C000E82FF0E0EA55FB4F90838F5F8093C604D0
:1012D0008091A004882341F085ED8093BC0080912B
:1012E000BC0084FDFCCF7FC081E08093A10484EA30
:1012F0006EC085ED8093BC008091BC0084FDFCCF66
:1013000072C083E080939E0410920A0559C08091B8
:101310000A05803208F056C080910A059091BB0002
:10132000E82FF0E0E651FB4F90838F5F80930A0532
:1013300047C080910A05803230F4E0910A05F0E060
:10134000E651FB4F108285ED8093BC008091BC007C
:1013500084FDFCCF10929E0460910A05E091A404E4
:10136000F091A5048AEE94E070E0099510920A05C8
:101370002DC084E080939E041092E8041092E9044A
:10138000E091A204F091A30409958091E9048823D7
:1013900029F481E08093E9041092C8049091E80454
:1013A000E92FF0E0E853FB4F80818093BB009F5F03
:1013B0009093E8049091E8048091E904981710F460
:1013C00085EC01C085E88093BC000FC085EC80935C
:1013D000BC0009C010920B0585ED8093BC00809184
:1013E000BC0084FDFCCF10929E04FF91EF91BF9151
:1013F000AF919F918F917F916F915F914F913F91AD
:101400002F910F900FBE0F901F90189510929E0471
:1014100081E08093A0041092A10482E161E00E9427
:10142000B80C83E161E00E94B80CE9EBF0E0808148
:101430008E7F808380818D7F80838CE58093B80050
:1014400085E48093BC000895DF92EF92FF920F93A2
:101450001F93CF93DF93EC017B01101611062CF044
:10146000D22E032F20E030E002C0D02E012FC05C2E
:10147000DF4FA881B981C054D040FE0160E070E028
:1014800007C0808191813896892B41F06F5F7F4F33
:101490006A177B07B4F3EE24FF2422C0E3E0660F53
:1014A000771FEA95E1F7DE01A60FB71F1196FC92B0
:1014B000EE92FE01E60FF71F5383428317963C938B
:1014C0002E931697FB013496EC0FFD1FD0820183FB
:1014D000D701ED91FC910190F081E02DC7010995B4
:1014E000C701DF91CF911F910F91FF90EF90DF9097
:1014F0000895DF92EF92FF920F931F93CF93DF93A4
:10150000D62EEC0100E010E050E4E52EF12CE80EC0
:10151000F91E1DC0A881B9811097F9F0ED91FC91D9
:1015200011972E813F81C901880F991F820F931F48
:101530006A817B81680F791F4C815D810084F18510
:10154000E02DCD012D2D09950F5F1F4F2896F70136
:101550008081918108171907ECF2DF91CF911F91DB
:101560000F91FF90EF90DF900895FC01E05CFF4F3A
:1015700088E090E0819391938FEF8083E254F04074
:10158000CF0160E040E450E00E94D80A08958CE06A
:1015900095E00E94B50A84EC98ECAFEFBFEF809322
:1015A0004F0590935005A0935105B09352050895AF
:1015B000DC0140FF03C001C06D936D934250E0F722
:1015C0005040D0F70895823000F5E82FF0E0EE0F9C
:1015D000FF1FED5AFA4F71836083882319F0813021
:1015E000A1F408C0809169008C7F842B80936900EE
:1015F000E89A089580916900440F551F440F551FC4
:10160000837F842B80936900E99A08951F920F923B
:101610000FB60F9211242F933F934F935F936F93C5
:101620007F938F939F93AF93BF93EF93FF9380919B
:10163000530590915405892B29F0E0915305F091C1
:1016400054050995FF91EF91BF91AF919F918F91B3
:101650007F916F915F914F913F912F910F900FBEAE
:101660000F901F9018951F920F920FB60F92112492
:101670002F933F934F935F936F937F938F939F939A
:10168000AF93BF93EF93FF938091550590915605CB
:10169000892B29F0E0915505F09156050995FF91A8
:1016A000EF91BF91AF919F918F917F916F915F91DA
:1016B0004F913F912F910F900FBE0F901F90189553
:1016C0001F920F920FB60F9211242F933F938F9377
:1016D0009F93AF93BF9380915B0590915C05A09120
:1016E0005D05B0915E0530915F05232F2A592D3796
:1016F00020F02D570196A11DB11D20935F05809309
:101700005B0590935C05A0935D05B0935E058091A9
:10171000570590915805A0915905B0915A05019629
:10172000A11DB11D8093570590935805A0935905AD
:10173000B0935A05BF91AF919F918F913F912F9197
:101740000F900FBE0F901F9018958FB7F8942091AF
:101750005B0530915C0540915D0550915E058FBF42
:10176000B901CA0108953FB7F89480915705909147
:101770005805A0915905B0915A0526B5A89B05C0FA
:101780002F3F19F00196A11DB11D3FBFBA2FA92F00
:10179000982F8827820F911DA11DB11D9C01AD01BD
:1017A000220F331F441F551F280F391F4A1F5B1F6D
:1017B000B901CA010895EF92FF920F931F93CF933F
:1017C000DF937B018C010E94B30BEB010EC00E94E2
:1017D000B30B6C1B7D0B685E7340C8F30894E10883
:1017E000F10801091109C851DC4FE114F1040105A8
:1017F000110569F7DF91CF911F910F91FF90EF9045
:101800000895000000009C012150304049F0220F53
:10181000331F220F331F0397820F931F0197F1F796
:101820000895789484B5826084BD84B5816084BD58
:1018300085B5826085BD85B5816085BDEEE6F0E049
:10184000808181608083E1E8F0E0108280818260A5
:101850008083808181608083E0E8F0E08081816026
:101860008083E1EBF0E0808184608083E0EBF0E056
:10187000808181608083EAE7F0E0808184608083FA
:1018800080818260808380818160808380818068A4
:1018900080831092C1000895CF93DF93482F50E0CA
:1018A000CA0182559F4FFC01349146565F4FFA01A1
:1018B0008491882369F190E0880F991FFC01E45816
:1018C000FF4FA591B491FC01EA57FF4FC591D49108
:1018D000662351F42FB7F8948C91932F9095892318
:1018E0008C93888189230BC0623061F42FB7F89400
:1018F0008C91932F909589238C938881832B888357
:101900002FBF06C09FB7F8948C91832B8C939FBFF9
:10191000DF91CF910895833071F0843028F48130C5
:10192000A1F0823021F514C08630B1F08730D1F0BB
:101930008430E9F404C0809180008F7703C08091E7
:1019400080008F7D80938000089584B58F7702C0DA
:1019500084B58F7D84BD08958091B0008F7780938A
:10196000B00008958091B0008F7D8093B0000895FD
:10197000FF920F931F93F62E482F50E0CA018E530B
:101980009F4FFC012491CA0182559F4FFC01149185
:1019900046565F4FFA0104910023C9F0222319F043
:1019A000822F0E948B0CE02FF0E0EE0FFF1FEA5712
:1019B000FF4FA591B4919FB7F894FF2021F48C912B
:1019C0001095812302C08C91812B8C939FBF1F9116
:1019D0000F91FF9008950F931F93482F50E0CA0175
:1019E0008E539F4FFC012491CA0182559F4FFC01E9
:1019F000049146565F4FFA011491112319F420E027
:101A000030E015C0222319F0822F0E948B0C812F09
:101A100090E0880F991F80579F4FFC01A591B491CA
:101A20008C9120E030E0802311F021E030E0C9010A
:101A30001F910F91089508951F920F920FB60F9264
:101A400011242F933F934F938F939F93EF93FF9383
:101A50008091C00082FD1DC04091C6002091A0056C
:101A60003091A1052F5F3F4F2F7330708091A205F9
:101A70009091A3052817390771F0E091A005F09126
:101A8000A105E05AFA4F40833093A1052093A005A9
:101A900002C08091C600FF91EF919F918F914F916D
:101AA0003F912F910F900FBE0F901F901895E091CE
:101AB000F405F091F505E05CFF4F81919191208153
:101AC0003181821B930B8F739070892B11F00E94D0
:101AD0001B0D08951F920F920FB60F9211242F9392
:101AE0003F938F939F93EF93FF932091E405309161
:101AF000E5058091E6059091E7052817390731F44F
:101B00008091C1008F7D8093C10014C0E091E605F3
:101B1000F091E705EC55FA4F20818091E605909110
:101B2000E70501968F7390709093E7058093E60523
:101B30002093C600FF91EF919F918F913F912F913C
:101B40000F900FBE0F901F901895AF92BF92DF922B
:101B5000EF92FF920F931F93CF93DF93EC017A01E3
:101B60008B01DD24D39491E0A92EB12CEC89FD8961
:101B7000DD2069F0C50108A002C0880F991F0A94F2
:101B8000E2F7808360E47BE48CE490E005C010829F
:101B900060EA75E286E290E0A80197010E94950F45
:101BA00021503040404050405695479537952795F5
:101BB00080E12030380720F0DD2011F0DD24D6CF81
:101BC000E889F9893083EA89FB89208319A2EE89A3
:101BD000FF89408121E030E0C9010C8C02C0880FF0
:101BE000991F0A94E2F7482B4083EE89FF894081D0
:101BF000C9010D8C02C0880F991F0A94E2F7482B87
:101C00004083EE89FF894081C9010E8C02C0880F94
:101C1000991F0A94E2F7482B4083EE89FF8980815F
:101C20000F8C02C0220F331F0A94E2F7209528235D
:101C30002083DF91CF911F910F91FF90EF90DF9064
:101C4000BF90AF900895DC011C96ED91FC911D971B
:101C5000E05CFF4F2191319180819181281B390BEC
:101C60002F733070C9010895DC011C96ED91FC9131
:101C70001D97E05CFF4F20813181E054F040DF018F
:101C8000AE5BBF4F8D919C9111972817390719F4BE
:101C90002FEF3FEF07C08D919C91E80FF91F8081D6
:101CA000282F30E0C9010895DC011C96ED91FC91CC
:101CB0001D97E05CFF4F20813181E054F040DF014F
:101CC000AE5BBF4F8D919C9111972817390719F47E
:101CD0002FEF3FEF10C08D919C911197E80FF91FE6
:101CE00020818D919C91119701968F739070119620
:101CF0009C938E9330E0C9010895DC0191968C91FC
:101D00009197882339F05496ED91FC9155978081F5
:101D100086FFF9CF91961C920895CF93DF93EC0143
:101D2000EE85FF85E05CFF4F20813181E054F0407B
:101D30002F5F3F4F2F733070DF01AE5BBF4F8D9130
:101D40009C91119728173907D1F3E05CFF4F8081F0
:101D50009181E054F040E80FF91F6083EE85FF8524
:101D6000E05CFF4F31832083EE89FF89208181E091
:101D700090E00F8C02C0880F991F0A94E2F7282B7D
:101D8000208381E089A3EC89FD8980818064808340
:101D900081E090E0DF91CF9108951092EB051092D1
:101DA000EA0588EE93E0A0E0B0E08093EC05909324
:101DB000ED05A093EE05B093EF058AE391E09093D3
:101DC000E9058093E80580E695E09093F50580931A
:101DD000F40584EA95E09093F7058093F60585EC89
:101DE00090E09093F9058093F80584EC90E090934F
:101DF000FB058093FA0580EC90E09093FD058093BD
:101E0000FC0581EC90E09093FF058093FE0582EC49
:101E100090E0909301068093000686EC90E090930A
:101E200003068093020684E08093040683E0809397
:101E3000050687E08093060685E08093070681E02B
:101E4000809308060895CF93DF930E94110C0E949F
:101E50000D06C7E5DDE00E9424042097E1F30E940F
:101E6000570DF9CF0E94EC0F0895CF92DF92EF92B9
:101E7000FF920F931F93CF93DF937C016B018A0135
:101E8000C0E0D0E00FC0D6016D916D01D701ED919A
:101E9000FC910190F081E02DC7010995C80FD91F71
:101EA000015010400115110571F7CE01DF91CF915E
:101EB0001F910F91FF90EF90DF90CF900895EF92D8
:101EC000FF920F931F93CF93DF937C018B01C0E0B0
:101ED000D0E0F8010F5F1F4F6491662359F0D701DE
:101EE000ED91FC910190F081E02DC7010995C80F9B
:101EF000D91FEFCFCE01DF91CF911F910F91FF90AE
:101F0000EF90089597FB092E07260AD077FD04D09D
:101F100049D006D000201AF4709561957F4F08953E
:101F2000F6F7909581959F4F0895A1E21A2EAA1B6E
:101F3000BB1BFD010DC0AA1FBB1FEE1FFF1FA21779
:101F4000B307E407F50720F0A21BB30BE40BF50B76
:101F5000661F771F881F991F1A9469F760957095FF
:101F6000809590959B01AC01BD01CF01089597FB31
:101F7000092E05260ED057FD04D0D7DF0AD0001C4D
:101F800038F450954095309521953F4F4F4F5F4F16
:101F90000895F6F790958095709561957F4F8F4FD6
:101FA0009F4F0895AA1BBB1B51E107C0AA1FBB1F6F
:101FB000A617B70710F0A61BB70B881F991F5A95D5
:101FC000A9F780959095BC01CD010895EE0FFF1FF4
:101FD0000590F491E02D0994CF93DF93BC018230FA
:101FE000910510F462E070E0A0910C06B0910D062E
:101FF000ED01E0E0F0E040E050E021C0888199810F
:102000008617970769F48A819B81309719F093832B
:10201000828304C090930D0680930C06FE0134C0A9
:102020006817790738F44115510519F08417950799
:1020300008F4AC01FE018A819B819C01E901209793
:10204000E9F641155105A9F1CA01861B970B0497C2
:1020500008F4BA01E0E0F0E02AC08D919C9111975C
:1020600084179507F9F46417750781F412968D911A
:102070009C911397309719F09383828304C09093B7
:102080000D0680930C06FD0132964FC0CA01861BD7
:10209000970BFD01E80FF91F6193719302978D93E0
:1020A0009C9343C0FD01828193819C01D9011097CB
:1020B000A1F680910A0690910B06892B41F480913C
:1020C00006019091070190930B0680930A064091B8
:1020D0000801509109014115510541F44DB75EB712
:1020E0008091040190910501481B590B20910A062B
:1020F00030910B0624173507B0F4CA01821B930BED
:102100008617970780F0AB014E5F5F4F84179507E6
:1021100050F0420F531F50930B0640930A06F901EB
:102120006193719302C0E0E0F0E0CF01DF91CF91C5
:102130000895CF93DF93009709F450C0EC012297E4
:102140001B821A82A0910C06B0910D06109709F11E
:1021500040E050E0AC17BD0708F1BB83AA83FE0145
:1021600021913191E20FF31FAE17BF0779F48D91E2
:102170009C911197280F391F2E5F3F4F3983288379
:1021800012968D919C9113979B838A8341155105DB
:1021900071F4D0930D06C0930C0620C012968D9159
:1021A0009C911397AD01009711F0DC01D3CFFA0198
:1021B000D383C28321913191E20FF31FCE17DF0742
:1021C00069F488819981280F391F2E5F3F4FFA01EA
:1021D000318320838A819B8193838283DF91CF9196
:0621E0000895F894FFCF02
:1021E6003F0D0A0020000E060000010018FCFFFF4C
:1021F60000000000350199003E01FC02FF01A1002C
:10220600A30000000000340703078B069406A90606
:10221600BA060C050C05000000008D0E350F230EC6
:06222600540E340E7D0E83
:00000001FF
