:100000000C9477000C94610D0C948E0D0C949F0051
:100010000C949F000C949F000C949F000C949F00E4
:100020000C949F000C949F000C949F000C949F00D4
:100030000C949F000C949F000C949F000C949F00C4
:100040000C94BB0D0C94AC000C94990F0C94E70F1E
:100050000C949F000C949F000C949F000C949F00A4
:100060000C94D00A0C949F00486F6C6964617944C9
:1000700075696E6F30352D323000486F6C69646180
:10008000794475696E6F30352D3230000000000004
:10009000240027002A0000000000250028002B0073
:1000A00000000000230026002900040404040404C6
:1000B0000404020202020202030303030303010217
:1000C00004081020408001020408102001020408E6
:1000D00010200000000700020100000304060000D9
:1000E00000000000000057014709220D4A111124A9
:1000F0001FBECFEFD8E0DEBFCDBF11E0A0E0B1E082
:10010000EAE1FAE202C005900D92AA34B107D9F7EC
:1001100016E0AAE4B1E001C01D92A933B107E1F7EE
:1001200010E0CEEED0E004C02297FE010E94FB1347
:10013000C63ED107C9F70E94A0110C940B150C9470
:100140000000FC01A081B1812D913C91F90109953C
:10015000089581E0089508951F920F920FB60F92AF
:1001600011242F933F934F935F936F938F939F939C
:10017000EF93FF936EB58091710490E04091090177
:1001800050910A019A01220F331F240F351F821745
:10019000930774F480917104E0913804F09139046C
:1001A000E80FF11D6083809171048F5F809371046B
:1001B000FF91EF919F918F916F915F914F913F913F
:1001C0002F910F900FBE0F901F901895FC01549A1D
:1001D00080E182838BE290E0948383830895DF93B0
:1001E000CF9300D00F92CDB7DEB7DC01AB01ED911C
:1001F000FC910680F781E02D19821A821B82BE01D4
:100200006F5F7F4F20E009950F900F900F90CF9177
:10021000DF9108950F936BB90014001400140014BB
:1002200027FF4BB9001400140014001400144BB93C
:1002300002E00A95F1F70F9108950F936BB900143E
:1002400000140014001427FF4BB90014001400140C
:10025000001400144BB9001403E00A95F1F70F9154
:1002600008956BB9001400140014001426FF4BB954
:10027000001400140014001400144BB900140014EE
:1002800000140014001408950F936BB900140014A7
:100290000014001425FF4BB90014001400140014BE
:1002A00000144BB903E00A95F1F70F9108950895F2
:1002B0000E94000E60930F01709310018093110152
:1002C0009093120108951F938091090190910A0162
:1002D000892B09F443C082E00E94680F892B49F4FE
:1002E000809172048823D1F51092710488E060E057
:1002F00033C08091710490E04091090150910A014E
:100300009A01220F331F240F351F8217930724F4FD
:1003100080913C048823E1F011E010933A040E949C
:10032000000E2091630430916404442737FD40950A
:10033000542F260F371F481F591F20936D043093E9
:100340006E0440936F04509370041093720406C0BF
:100350001092710488E061E00E94350F1F910895AA
:100360008EE480937C0062E070E080E090E00E9488
:10037000360E80917A00806480937A0080917A00B2
:1003800086FDFCCF8091780090E0A0E0B0E0609125
:100390007900362F20E0442737FD4095542F282B35
:1003A000392B4A2B5B2B60E070E381E190E00E94E7
:1003B000CA13CA01B90108950F931F938C018DEBE5
:1003C00094E060E570E00E94DC08612F772767FD0C
:1003D0007A958DEB94E00E948F0910708DEB94E07C
:1003E000602F0E948F098DEB94E00E94D2098DEB63
:1003F00094E060E570E041E050E00E94E3098DEB9D
:1004000094E00E94E608892B11F480E004C08DEB93
:1004100094E00E94EF081F910F910895DF92EF92F0
:10042000FF920F931F938C01D62E8DEBE82E84E064
:10043000F82EC70160E570E00E94DC08612F772785
:1004400067FD7A95C7010E948F091070C701602F60
:100450000E948F09C7016D2D0E948F09C7010E945C
:10046000D20965E070E080E090E00E94360E1F91B6
:100470000F91FF90EF90DF9008950F931F93CF930C
:10048000DF93182F8F3339F483E196E068E670E04C
:100490000E94271293C18B3519F08D3581F407C066
:1004A0008DEB94E068E070E00E94060A04C08DEBDA
:1004B00094E00E94E70983E196E0612F7DC18134D9
:1004C00091F4809167048370825F60E00E94C90E9E
:1004D0008091670483700E94A70E809167048370E7
:1004E0000E94A70EC2C0823479F585E00E94680F91
:1004F0008C0186E00E94680F892B19F0C0E0D0E0E3
:1005000002C0C2E0D0E087E00E94680F892B19F09A
:1005100020E030E002C024E030E060E070E0012B39
:1005200011F461E070E080913E04992787FD909579
:1005300044E0880F991F4A95E1F7682B792B6C2BC3
:100540007D2B622B732B2CC18334F9F480916504CD
:1005500090916604029771F460910B0170910C0107
:1005600080916704909168040E94951360916904DA
:100570000E940E0260910B0170910C018091670442
:10058000909168040E9495131FC0843439F58091BE
:100590003D0490E02091650430916604822393230A
:1005A000892B81F060916704709168048091410407
:1005B00090914204681779070CF060E085E090E0C4
:1005C0000E940E0285E090E00E94DC01682F83E12A
:1005D00096E04AE050E00E94E212F0C08534B1F4A7
:1005E0008091650490916604892B59F010923B0428
:1005F0008091670490916804892B19F081E08093C1
:100600003B0460E070E080913B04A4C0873469F44F
:10061000809167048370825F61E00E94C90E8091BF
:1006200067048370825F60E00EC0883479F4809143
:1006300067048370825F61E00E94C90E8091670445
:100640008370825F61E00E94350F09C0893479F4BC
:10065000809167048370825F60E00E94C90E809180
:1006600067048370825F0E94680FBC0199C08C345C
:1006700001F58091650490916604892BA9F0809121
:100680003D04882389F060916704709168046B3F92
:10069000710514F06AEF70E070930A01609309012C
:1006A00083E090E00E940E026091090170910A01BE
:1006B00077C0803599F48091650490916604892B08
:1006C00041F0809167049091680490934004809376
:1006D0003F0460913F047091400462C0823519F577
:1006E0008091650490916604029781F4E09167041B
:1006F000F0916804EF70F070EE0FFF1FED5BFB4FA1
:100700008091690490916A0491838083E0916704E9
:10071000F0916804EF70F070EE0FFF1FED5BFB4F80
:10072000608171813DC08435D1F4809165049091E0
:100730006604892B59F010923C04809167049091D3
:100740006804892B19F081E080933C0460E070E03C
:1007500080913C04882321F161E070E021C086355E
:1007600059F40E94B001AB01BC0183E196E02AE09C
:1007700030E00E94401322C08735C9F4809165049F
:1007800090916604892B41F08091670490916804F0
:100790009093640480936304609163047091640493
:1007A00083E196E04AE050E00E94541307C0803293
:1007B0002CF083E196E06FE30E943B12DF91CF9132
:1007C0001F910F9108950F931F93CF93DF9383E1B0
:1007D00096E040E052EC61E070E00E94221085E07B
:1007E00062E00E94C90E86E062E00E94C90E87E0C6
:1007F00062E00E94C90E88E061E00E94C90E88E0B4
:1008000061E00E94350F8CE061E00E94C90E8CB55A
:1008100080648CBDC0910901D0910A011C161D068F
:10082000D4F4009138011091390189E090E00E94E0
:10083000AF11FC01158216821782108688E191E0C3
:1008400091838083C801BF014AE451E09E0100E02A
:1008500010E00E947F0C8AE491E090933904809329
:100860003804109271041092720480E063E671E023
:1008700041E050E00E943E0D81E068E571E042E019
:1008800050E00E943E0D8CB580688CBD85E00E94D2
:10089000680F892B29F480913E048F5F80933E047A
:1008A00086E00E94680F892B29F480913E048E5FB8
:1008B00080933E0487E00E94680F892B29F4809181
:1008C0003E048C5F80933E048DEB94E00E94E70928
:1008D00080E090E00E94DC01883669F581E090E0DC
:1008E0000E94DC01813039F580933D0482E090E084
:1008F0000E94DC0190E0880F991F880F991F909348
:100900000C0180930B0183E090E00E94DC01809356
:10091000090110920A0184E090E00E94DC018093BA
:1009200041041092420485E090E00E94DC01809333
:100930003F041092400483E196E06AE770E00E9471
:100940002712DF91CF911F910F9108950F931F935D
:100950008C010E940E0E9B01AC01F80180819181F7
:10096000A281B381281B390B4A0B5B0B2233310563
:100970004105510534F482E390E0821B930B0E9401
:100980005C0E1F910F9108956F927F928F929F92AC
:10099000AF92BF92CF92DF92EF92FF920F931F938D
:1009A000CF93DF933C01162F072F4A01C22E0596E5
:1009B0000E94A604F894212F302FC901EC015401A4
:1009C000AA0CBB1CA80CB91CA80EB91EDBB020E1F8
:1009D000D22AEBB03FEEE322EBB809812C2D029F27
:1009E000012D87C015E08BE290E06D2D4E2D202F5C
:1009F0000E940A01000F1150B1F700148BE290E041
:100A00006D2D4E2D202F0E941D018BE290E06D2D4B
:100A10004E2D202F0E94310118813C2D139F112D46
:100A20008BE290E06D2D4E2D202F0E94440105E0B9
:100A30008BE290E06D2D4E2D212F0E940A01110FA7
:100A40000150B1F700148BE290E06D2D4E2D212F57
:100A50000E941D018BE290E06D2D4E2D212F0E94F2
:100A60003101FA802F2D3C2D239F212DF22E8BE278
:100A700090E06D2D4E2D212F0E94440115E08BE258
:100A800090E06D2D4E2D2F2D0E940A01FF0C11506C
:100A9000B1F70014DBB80014001400140014F7FEC2
:100AA000EBB800140014001400140014EBB8001488
:100AB000001402E00A95F1F723968BE290E06D2D89
:100AC0004E2D2F2D0E94310109812C2D029F012DC9
:100AD000DBB80014001400140014F5FEEBB8001489
:100AE0000014001400140014EBB8001400140014D7
:100AF0000014CA15DB0508F475CF1124E0908605B3
:100B0000F0908705009188051091890588EB90E0A9
:100B1000FC018E9EC0018F9E900D9E9E900D112413
:100B200064E170E00E949513882777FD8095982FE7
:100B300028EE33E040E050E00E94CA13E20EF31EBC
:100B4000041F151FE0928605F09287050093880523
:100B50001093890578940E940E0EF30165837683C5
:100B600087839087DF91CF911F910F91FF90EF9036
:100B7000DF90CF90BF90AF909F908F907F906F90BD
:100B800008952F923F924F925F926F927F928F9231
:100B90009F92AF92BF92CF92DF92EF92FF920F930C
:100BA0001F93CF93DF932C01EB013A01C22E0596E0
:100BB0000E94A604F8945301AA0CBB1CA60CB71CF7
:100BC000AC0EBD1EDBB020E1D22AEBB03FEEE3223B
:100BD000EBB81E010894211C311C19812C2D129F89
:100BE000112D4E018BC005E08BE290E06D2D4E2D56
:100BF000212F0E940A01110F0150B1F700148BE25E
:100C000090E06D2D4E2D212F0E941D018BE290E072
:100C10006D2D4E2D212F0E94310108813C2D039F07
:100C2000012D8BE290E06D2D4E2D212F0E9444016D
:100C300015E08BE290E06D2D4E2D202F0E940A01D1
:100C4000000F1150B1F700148BE290E06D2D4E2D86
:100C5000202F0E941D018BE290E06D2D4E2D202F44
:100C60000E943101FA802F2D3C2D239F212DF22E41
:100C70008BE290E06D2D4E2D202F0E94440115E057
:100C80008BE290E06D2D4E2D2F2D0E940A01FF0C5E
:100C90001150B1F70014DBB8001400140014001454
:100CA000F7FEEBB800140014001400140014EBB8A5
:100CB0000014001402E00A95F1F783E090E0880E3A
:100CC000991E8BE290E06D2D4E2D2F2D0E9431014B
:100CD000F10110812C2D129F112DDBB8001400148E
:100CE00000140014F5FEEBB80014001400140014F6
:100CF0000014EBB800140014001400148A149B04B0
:100D000008F471CF1124E0908605F09087050091DA
:100D100088051091890588EB90E0FC016E9EC0016A
:100D20006F9E900D7E9E900D112464E170E00E94F4
:100D30009513882777FD8095982F28EE33E040E0C3
:100D400050E00E94CA13E20EF31E041F151FE0922A
:100D50008605F0928705009388051093890578949D
:100D60000E940E0EF2016583768387839087DF9160
:100D7000CF911F910F91FF90EF90DF90CF90BF9098
:100D8000AF909F908F907F906F905F904F903F902B
:100D90002F9008951F93182F682F62956F706063CE
:100DA0006A330CF0695D772767FD709583E196E003
:100DB0000E940A11612F6F7060636A330CF0695DE5
:100DC000772767FD709583E196E00E940A111F91D5
:100DD0000895EF92FF920F931F93CF93DF9383E1D8
:100DE00096E00E94A010892B09F483C081E08093D3
:100DF0003A040E94000E2091630430916404442759
:100E000037FD4095542F260F371F481F591F209339
:100E10006D0430936E0440936F045093700483E12B
:100E200096E00E94D110182F80913B04882329F06E
:100E300083E196E0612F0E94FF11812F80538A3059
:100E400058F58091650490916604892B31F481E016
:100E500090E09093660480936504E0916504F091BE
:100E60006604EE0FFF1FEB59FB4F808191819C01BF
:100E700053E0220F331F5A95E1F7880F991F280F6F
:100E8000391F20533040812F992787FD9095280FD7
:100E9000391F318320832DC01C3201F580916504F8
:100EA0009091660482309105CCF4892B31F481E075
:100EB00090E09093660480936504E0916504F0915E
:100EC00066043196F0936604E09365043197EE0F63
:100ED000FF1FE959FB4F118210820BC0812F0E9426
:100EE0003D021092660410926504109268041092FC
:100EF000670480913A04882309F0DDC0E0906D0416
:100F0000F0906E0400916F04109170040E94000E26
:100F10006E157F058007910708F4CDC08091090107
:100F200090910A01FC01EE0FFF1FE80FF91F2AE460
:100F300031E0C90160E070E0AF010E940415E0906B
:100F40000F01F0901001009111011091120188EE33
:100F500093E0A0E0B0E0E80EF91E0A1F1B1F0E94FC
:100F6000000EE616F7060807190720F48FE38093B2
:100F70004A0103C08FE380934C0185E00E94680F13
:100F8000892B29F480914C01815C80934C0186E08F
:100F90000E94680F892B29F480914C01815C809319
:100FA0004C0187E00E94680F892B29F480914C0145
:100FB000815C80934C0120916B0430916C04237010
:100FC00030702130310599F022303105F1F08091F7
:100FD0000D0190910E01232B29F5FC01EE0FFF1F4F
:100FE000E80FF91FE65BFE4F8FEF808326C08091EC
:100FF0000D0190910E01FC01EE0FFF1FE80FF91F8C
:10100000E65BFE4F8FEF818318C080910D019091B8
:101010000E01FC01EE0FFF1FE80FF91FE65BFE4F0C
:101020008FEF0AC0FC01EE0FFF1FE80FF91FE65B10
:10103000FE4F8FEF8083818382838091090190919D
:101040000A011816190654F4E0913601F09137019F
:10105000CF01EE5BFF4F60810E94D40C80910D01A7
:1010600090910E01019690930E0180930D012091B5
:10107000090130910A01821793077CF081E090E02A
:1010800090930E0180930D0180916B0490916C04FC
:10109000019690936C0480936B040E94000E6E5C2A
:1010A0007F4F8F4F9F4F60936D0470936E048093BA
:1010B0006F049093700480917204882309F459C0DE
:1010C00080913C048823F1F1C0E0D0E011C020976A
:1010D00029F083E196E06CE20E94FF11E091380470
:1010E000F0913904EC0FFD1F80810E94CA06219601
:1010F0008091710490E0C817D9074CF383E196E022
:1011000060E071E00E9473130EC080917104E09161
:101110003804F0913904E80FF11D108280917104B8
:101120008F5F809371048091710490E04091090178
:1011300050910A019A01220F331F240F351F821785
:1011400093071CF38091090190910A011816190662
:1011500054F4E0913601F0913701CF01EE5BFF4F7F
:1011600060810E94D40C1092720488E061E00E94B9
:10117000350F809163049091640418161906ACF43D
:1011800080913A04882389F0E0906D04F0906E0419
:1011900000916F04109170040E94000E6E157F057F
:1011A0008007910710F010923A04DF91CF911F91C0
:1011B0000F91FF90EF90089581E08093B8046093C1
:1011C00095041092B6041092B704089520919404E7
:1011D00030E080919304281B3109C90108954091A2
:1011E000930480919404481718F02FEF3FEF0AC042
:1011F000E42FF0E0ED58FB4F8081282F30E04F5F67
:1012000040939304C9010895E0919304809194045C
:10121000E81718F0EFEFFFEF06C0F0E0ED58FB4FD6
:101220008081E82FF0E0CF0108950895AC0120916E
:10123000BB043091BC0421153105E1F09091930479
:10124000809194049817B0F090E008C0FA01EA0F7A
:10125000FB1F8081AD58BB4F8C939F5FA92FB0E0DF
:10126000A617B7079CF31092930460939404CB01E4
:10127000F90109950895E091B904F091BA04309705
:1012800029F01092B6041092B704099508951092AF
:10129000C0041092BF0488EE93E0A0E0B0E0809319
:1012A000C1049093C204A093C304B093C4048AE21F
:1012B00091E09093BE048093BD040895CF92DF9295
:1012C000EF92FF920F931F93CF93DF937C016B01FB
:1012D0008A018091B8048823A1F0C0E0D0E00DC05D
:1012E000D701ED91FC91D601AC0FBD1F0190F081AB
:1012F000E02DC7016C9109952196C017D10780F3A5
:1013000004C0CB01642F0E94AB0AC801DF91CF91CA
:101310001F910F91FF90EF90DF90CF900895DF9392
:10132000CF930F92CDB7DEB7FC0169838091B804EB
:101330008823C9F08091B704803238F081E090E0D2
:101340009383828320E030E015C08091B604E82FBB
:10135000F0E0EA56FB4F998190838F5F8093B6044B
:101360008093B70405C0CE01019661E00E94AB0AEC
:1013700021E030E0C9010F90CF91DF9108950F93E4
:10138000062F8091950466E974E04091B70421E04E
:101390000E94560A1092B6041092B7041092B80434
:1013A0000F91089561E00E94BF090895413208F04D
:1013B00040E2862F63E774E00E940D0A10929304C6
:1013C00080939404089521E00E94D6090895109214
:1013D0009304109294041092B6041092B7040E94E1
:1013E000610C08950F931F938C01862F0E94090AA8
:1013F0008BE399E00E94CB0A86E199E00E94C60A3D
:10140000C8010E94E7091F910F9108950E94F209F7
:101410000895880F8093BA000895382F413210F054
:1014200040E042C08091C9048823E1F791E09093A5
:10143000C9042093CB048FEF809336051092F104FA
:1014400041504093F2044F5F9093CA048091CA04C4
:10145000330F832B8093CA048091CC04813041F4F4
:101460001092CC048091CA048093BB0085EC01C02B
:1014700085EE8093BC008091C9048130E1F38091B6
:10148000F104841710F44091F10420E030E00AC028
:10149000FB01E20FF31FD901AF52BB4F8C91808348
:1014A0002F5F3F4F2417A0F3842F08950F931F93AE
:1014B000582F122F413210F081E04AC08091C904A8
:1014C0008823E1F782E08093C9040093CB048FEF77
:1014D000809336051092F1044093F204A1EDB4E03C
:1014E000FB0102C081918D938E2F861B8417D0F350
:1014F0001092CA048091CA04550F852B8093CA04A8
:101500008091CC04813041F41092CC048091CA04C3
:101510008093BB0085EC01C085EE8093BC00112355
:1015200021F08091C9048230E1F3809136058F3F2C
:1015300011F480E00DC080913605803211F482E014
:1015400007C080913605803311F084E001C083E04C
:101550001F910F910895482F613210F081E0089596
:101560008091C904843011F082E0089560931405DD
:10157000A3EFB4E0842F9C01F90102C081918D9307
:101580008E2F841B8617D0F380E008959093D004AB
:101590008093CF0408959093CE048093CD04089552
:1015A0001F920F920FB60F9211242F933F934F93D8
:1015B0005F936F937F938F939F93AF93BF93EF93BB
:1015C000FF938091B90090E0887F907080369105FC
:1015D00009F4F2C081369105CCF58832910509F401
:1015E0007BC089329105B4F48031910509F46FC054
:1015F000813191053CF4009709F447C1089709F03F
:101600004FC165C08831910509F466C0809709F023
:1016100047C182C08034910509F4A4C0813491058A
:1016200044F48033910509F482C0C89709F038C1A9
:1016300089C08035910509F489C08835910509F480
:1016400096C08834910509F02BC1AEC08839910548
:1016500009F413C189399105ECF48837910509F42F
:10166000ABC0893791054CF48836910509F4A4C0C4
:101670008037910509F014C19FC08838910509F49D
:10168000FCC08039910509F49DC08038910509F0AE
:1016900007C198C0803B910509F4C6C0813B910504
:1016A0004CF4803A910509F49FC0883A910509F0FD
:1016B000F7C0BAC0803C910509F4E3C0883C9105AD
:1016C00009F4DFC0883B910509F0EAC0C2C08091EF
:1016D000CA048093BB00CFC09091F1048091F204C2
:1016E000981768F49091F104E92FF0E0EF52FB4F66
:1016F00080818093BB009F5F9093F104BCC0809178
:10170000CB04882309F44BC085ED8093BC00809105
:10171000BC0084FDFCCFC2C080E28093360585ED1D
:101720008093BC008091BC0084FDFCCFB7C080E3F7
:101730008093360585ED8093BC008091BC0084FDCC
:10174000FCCFACC088E3809336059BC08091F10448
:101750009091BB00E82FF0E0EF52FB4F90838F5F3A
:101760008093F1049091F1048091F20482C0809101
:10177000F1049091BB00E82FF0E0EF52FB4F908313
:101780008F5F8093F1048091CB04882341F085ED35
:101790008093BC008091BC0084FDFCCF7FC081E0C1
:1017A0008093CC0484EA6EC085ED8093BC00809168
:1017B000BC0084FDFCCF72C083E08093C90410920A
:1017C000350559C080913505803208F056C08091AA
:1017D00035059091BB00E82FF0E0EB5EFA4F908367
:1017E0008F5F8093350547C080913505803230F496
:1017F000E0913505F0E0EB5EFA4F108285ED8093C5
:10180000BC008091BC0084FDFCCF1092C9046091A3
:101810003505E091CF04F091D00485E195E070E0CA
:101820000995109235052DC084E08093C90410926B
:10183000130510921405E091CD04F091CE040995A2
:1018400080911405882329F481E080931405109277
:10185000F30490911305E92FF0E0ED50FB4F8081E8
:101860008093BB009F5F9093130590911305809127
:101870001405981710F485EC01C085E88093BC002E
:101880000FC085EC8093BC0009C01092360585ED31
:101890008093BC008091BC0084FDFCCF1092C904F1
:1018A000FF91EF91BF91AF919F918F917F916F9138
:1018B0005F914F913F912F910F900FBE0F901F900E
:1018C00018951092C90481E08093CB041092CC0447
:1018D00082E161E00E94350F83E161E00E94350FF3
:1018E000E9EBF0E080818E7F808380818D7F808333
:1018F0008CE58093B80085E48093BC000895DF9266
:10190000EF92FF920F931F93CF93DF93EC017B0134
:10191000101611062CF0D22E032F20E030E002C06A
:10192000D02E012FC05CDF4FA881B981C054D040B8
:10193000FE0160E070E007C0808191813896892BBC
:1019400041F06F5F7F4F6A177B07B4F3EE24FF24EB
:1019500022C0E3E0660F771FEA95E1F7DE01A60FEC
:10196000B71F1196FC92EE92FE01E60FF71F53830C
:10197000428317963C932E931697FB013496EC0FF7
:10198000FD1FD0820183D701ED91FC910190F08180
:10199000E02DC7010995C701DF91CF911F910F91EC
:1019A000FF90EF90DF900895DF92EF92FF920F93F8
:1019B0001F93CF93DF93D62EEC0100E010E050E4AC
:1019C000E52EF12CE80EF91E1DC0A881B9811097F3
:1019D000F9F0ED91FC9111972E813F81C901880F9B
:1019E000991F820F931F6A817B81680F791F4C8139
:1019F0005D810084F185E02DCD012D2D09950F5FCE
:101A00001F4F2896F7018081918108171907ECF282
:101A1000DF91CF911F910F91FF90EF90DF9008958C
:101A2000FC01E05CFF4F88E090E0819391938FEFA1
:101A30008083E254F040CF0160E040E450E00E9437
:101A4000330D089587E395E00E94100D8CE89AEF1E
:101A5000AFEFBFEF80937A0590937B05A0937C0551
:101A6000B0937D050895DC0140FF03C001C06D9374
:101A70006D934250E0F75040D0F70895823000F562
:101A8000E82FF0E0EE0FFF1FE258FA4F71836083FA
:101A9000882319F08130A1F408C0809169008C7FFF
:101AA000842B80936900E89A089580916900440F1F
:101AB000551F440F551F837F842B80936900E99A3B
:101AC00008951F920F920FB60F9211242F933F93F8
:101AD0004F935F936F937F938F939F93AF93BF9336
:101AE000EF93FF9380917E0590917F05892B29F0DC
:101AF000E0917E05F0917F050995FF91EF91BF91EF
:101B0000AF919F918F917F916F915F914F913F9195
:101B10002F910F900FBE0F901F9018951F920F924C
:101B20000FB60F9211242F933F934F935F936F93B0
:101B30007F938F939F93AF93BF93EF93FF93809186
:101B4000800590918105892B29F0E0918005F09125
:101B500081050995FF91EF91BF91AF919F918F9171
:101B60007F916F915F914F913F912F910F900FBE99
:101B70000F901F9018951F920F920FB60F9211247D
:101B80002F933F938F939F93AF93BF93809186053D
:101B900090918705A0918805B091890530918A05BB
:101BA000232F2A592D3720F02D570196A11DB11D45
:101BB00020938A058093860590938705A0938805D6
:101BC000B09389058091820590918305A091840549
:101BD000B09185050196A11DB11D8093820590935A
:101BE0008305A0938405B0938505BF91AF919F9124
:101BF0008F913F912F910F900FBE0F901F901895CE
:101C00008FB7F8942091860530918705409188051B
:101C1000509189058FBFB901CA0108953FB7F89463
:101C20008091820590918305A0918405B0918505EE
:101C300026B5A89B05C02F3F19F00196A11DB11D27
:101C40003FBFBA2FA92F982F8827820F911DA11D62
:101C5000B11D9C01AD01220F331F441F551F280FDA
:101C6000391F4A1F5B1FB901CA010895EF92FF9205
:101C70000F931F93CF93DF937B018C010E940E0E75
:101C8000EB010EC00E940E0E6C1B7D0B685E734054
:101C9000C8F30894E108F10801091109C851DC4FA3
:101CA000E114F1040105110569F7DF91CF911F914E
:101CB0000F91FF90EF900895000000009C012150CB
:101CC000304049F0220F331F220F331F0397820F3A
:101CD000931F0197F1F70895789484B5826084BDCD
:101CE00084B5816084BD85B5826085BD85B5816020
:101CF00085BDEEE6F0E0808181608083E1E8F0E080
:101D00001082808182608083808181608083E0E8AE
:101D1000F0E0808181608083E1EBF0E0808184608D
:101D20008083E0EBF0E0808181608083EAE7F0E08F
:101D300080818460808380818260808380818160F3
:101D400080838081806880831092C1000895982FDD
:101D50008E3008F09E509770809113018295880F05
:101D6000880F807C892B80937C0080917A0080642E
:101D700080937A0080917A0086FDFCCF20917800D4
:101D800040917900942F80E030E0282B392BC90155
:101D90000895CF93DF93482F50E0CA0182549F4F9C
:101DA000FC01349146555F4FFA018491882369F113
:101DB00090E0880F991FFC01E457FF4FA591B49163
:101DC000FC01EA56FF4FC591D491662351F42FB719
:101DD000F8948C91932F909589238C9388818923F3
:101DE0000BC0623061F42FB7F8948C91932F9095CB
:101DF00089238C938881832B88832FBF06C09FB74C
:101E0000F8948C91832B8C939FBFDF91CF91089591
:101E1000833071F0843028F48130A1F0823021F5D4
:101E200014C08630B1F08730D1F08430E9F404C0BA
:101E3000809180008F7703C0809180008F7D809398
:101E40008000089584B58F7702C084B58F7D84BDEE
:101E500008958091B0008F778093B00008958091AD
:101E6000B0008F7D8093B0000895FF920F931F9371
:101E7000F62E482F50E0CA018E529F4FFC0124914C
:101E8000CA0182549F4FFC01149146555F4FFA01DD
:101E900004910023C9F0222319F0822F0E94080F19
:101EA000E02FF0E0EE0FFF1FEA56FF4FA591B4912F
:101EB0009FB7F894FF2021F48C911095812302C0E4
:101EC0008C91812B8C939FBF1F910F91FF90089550
:101ED0000F931F93482F50E0CA018E529F4FFC0171
:101EE0002491CA0182549F4FFC01049146555F4FD3
:101EF000FA011491112319F420E030E015C02223D7
:101F000019F0822F0E94080F812F90E0880F991FEF
:101F100080569F4FFC01A591B4918C9120E030E058
:101F2000802311F021E030E0C9011F910F91089545
:101F300008951F920F920FB60F9211242F933F9383
:101F40004F938F939F93EF93FF938091C00082FDF7
:101F50001DC04091C6002091CB053091CC052F5F6C
:101F60003F4F2F7330708091CD059091CE0528178B
:101F7000390771F0E091CB05F091CC05E557FA4FA8
:101F800040833093CC052093CB0502C08091C600DE
:101F9000FF91EF919F918F914F913F912F910F90D2
:101FA0000FBE0F901F901895E0911F06F09120062C
:101FB000E05CFF4F8191919120813181821B930BD5
:101FC0008F739070892B11F00E94980F08951F92C3
:101FD0000F920FB60F9211242F933F938F939F93DD
:101FE000EF93FF9320910F06309110068091110618
:101FF000909112062817390731F48091C1008F7D26
:102000008093C10014C0E0911106F0911206E153D3
:10201000FA4F2081809111069091120601968F73DC
:10202000907090931206809311062093C600FF9142
:10203000EF919F918F913F912F910F900FBE0F9035
:102040001F901895AF92BF92DF92EF92FF920F937D
:102050001F93CF93DF93EC017A018B01DD24D3949E
:1020600091E0A92EB12CEC89FD89DD2069F0C50134
:1020700008A002C0880F991F0A94E2F7808360E4E9
:102080007BE48CE490E005C0108260EA75E286E2B1
:1020900090E0A80197010E94A813215030404040D1
:1020A0005040569547953795279580E12030380761
:1020B00020F0DD2011F0DD24D6CFE889F9893083C6
:1020C000EA89FB89208319A2EE89FF89408121E0FA
:1020D00030E0C9010C8C02C0880F991F0A94E2F706
:1020E000482B4083EE89FF894081C9010D8C02C0D5
:1020F000880F991F0A94E2F7482B4083EE89FF89E5
:102100004081C9010E8C02C0880F991F0A94E2F722
:10211000482B4083EE89FF8980810F8C02C0220FFB
:10212000331F0A94E2F7209528232083DF91CF9173
:102130001F910F91FF90EF90DF90BF90AF900895A7
:10214000DC011C96ED91FC911D97E05CFF4F219105
:10215000319180819181281B390B2F733070C90117
:102160000895DC011C96ED91FC911D97E05CFF4FFA
:1021700020813181E054F040DF01AE5BBF4F8D9193
:102180009C9111972817390719F42FEF3FEF07C0DB
:102190008D919C91E80FF91F8081282F30E0C901B3
:1021A0000895DC011C96ED91FC911D97E05CFF4FBA
:1021B00020813181E054F040DF01AE5BBF4F8D9153
:1021C0009C9111972817390719F42FEF3FEF10C092
:1021D0008D919C911197E80FF91F20818D919C9111
:1021E000119701968F73907011969C938E9330E0A7
:1021F000C9010895DC0191968C919197882339F05B
:102200005496ED91FC915597808186FFF9CF919678
:102210001C920895CF93DF93EC01EE85FF85E05C7F
:10222000FF4F20813181E054F0402F5F3F4F2F73EB
:102230003070DF01AE5BBF4F8D919C9111972817D5
:102240003907D1F3E05CFF4F80819181E054F04089
:10225000E80FF91F6083EE85FF85E05CFF4F318357
:102260002083EE89FF89208181E090E00F8C02C0FD
:10227000880F991F0A94E2F7282B208381E089A315
:10228000EC89FD8980818064808381E090E0DF912A
:10229000CF910895109216061092150688EE93E0DD
:1022A000A0E0B0E08093170690931806A09319065B
:1022B000B0931A068EE391E0909314068093130670
:1022C0008BE895E09093200680931F068FEC95E0B5
:1022D000909322068093210685EC90E0909324064B
:1022E0008093230684EC90E0909326068093250645
:1022F00080EC90E0909328068093270681EC90E094
:1023000090932A068093290682EC90E090932C0605
:1023100080932B0686EC90E090932E0680932D06FA
:1023200084E080932F0683E08093300687E08093DB
:10233000310685E08093320681E08093330608956C
:10234000CF93DF930E946C0E0E94E303C4EDDFE0A5
:102350000E94E9062097E1F30E94D40FF9CF0E9472
:10236000FF130895CF92DF92EF92FF920F931F9386
:10237000CF93DF937C016B018A01C0E0D0E00FC0F6
:10238000D6016D916D01D701ED91FC910190F08125
:10239000E02DC7010995C80FD91F01501040011544
:1023A000110571F7CE01DF91CF911F910F91FF9031
:1023B000EF90DF90CF900895EF92FF920F931F93CD
:1023C000CF93DF937C018B01C0E0D0E0F8010F5F79
:1023D0001F4F6491662359F0D701ED91FC91019054
:1023E000F081E02DC7010995C80FD91FEFCFCE01AD
:1023F000DF91CF911F910F91FF90EF900895DC0135
:10240000ED91FC910190F081E02D09950895EF92F6
:10241000FF920F931F938C01DC01ED91FC910190D1
:10242000F081E02D6DE009957C01D801ED91FC91E2
:102430000190F081E02DC8016AE009959C012E0D04
:102440003F1DC9011F910F91FF90EF900895EF92EA
:10245000FF920F931F937C010E94DC118C01C70136
:102460000E9407129C01200F311FC9011F910F917B
:10247000FF90EF900895EF92FF920F931F937C01CE
:10248000DC01ED91FC910190F081E02D09958C012A
:10249000C7010E940712080F191FC8011F910F9151
:1024A000FF90EF900895CF93DF93EC0161157105D4
:1024B00019F420E030E00FC0DB010D900020E9F7B7
:1024C0001197A61BB70BE881F9810280F381E02DFB
:1024D000AD0109959C01C901DF91CF9108954F92FB
:1024E0005F927F928F929F92AF92BF92CF92DF9234
:1024F000EF92FF920F931F93DF93CF93CDB7DEB789
:10250000A1970FB6F894DEBF0FBECDBF2C01742E7D
:10251000CB01223008F42AE019A231E2C32ED12CDB
:10252000CC0EDD1E822E9924AA24BB24672D752F84
:10253000A50194010E94A81379018A01C801B7017D
:10254000A50194010E947613472D461B0894C108EB
:10255000D1084A3014F4405D01C0495CF601408363
:10256000E114F1040105110521F07E2C5F2DC80155
:10257000DDCFC201B6010E945312A1960FB6F894A6
:10258000DEBF0FBECDBFCF91DF911F910F91FF90A6
:10259000EF90DF90CF90BF90AF909F908F907F9003
:1025A0005F904F900895DC012115310541F4ED91C4
:1025B000FC910190F081E02D642F099508950E940F
:1025C0006F120895CF92DF92EF92FF920F931F93B5
:1025D0006C01E62E9A01FF2400E010E0B801A7018B
:1025E0000E94D3128C01C6010E940712080F191F06
:1025F000C8011F910F91FF90EF90DF90CF90089549
:10260000CF92DF92EF92FF920F931F93CF93DF93BE
:10261000EC016A017B012115310541F4E881F98162
:102620000190F081E02D642F09951FC02A303105FB
:10263000D1F477FF17C0E881F9810190F081E02D96
:102640006DE209958C0144275527BA014C195D09A3
:102650006E097F09CE012AE00E946F129801280FAF
:10266000391F04C02AE00E946F129C01C901DF914A
:10267000CF911F910F91FF90EF90DF90CF90089531
:10268000EF92FF920F931F937C010E9400138C0125
:10269000C7010E9407129C01200F311FC9011F9121
:1026A0000F91FF90EF900895CF92DF92EF92FF92FB
:1026B0000F931F936C017B019A010027F7FC009593
:1026C000102FB801A7010E9400138C01C6010E94BF
:1026D0000712080F191FC8011F910F91FF90EF906B
:1026E000DF90CF9008950E9453120895629FD00109
:1026F000739FF001829FE00DF11D649FE00DF11DBD
:10270000929FF00D839FF00D749FF00D659FF00D6B
:102710009927729FB00DE11DF91F639FB00DE11D58
:10272000F91FBD01CF011124089597FB092E07263B
:102730000AD077FD04D049D006D000201AF4709555
:1027400061957F4F0895F6F7909581959F4F089575
:10275000A1E21A2EAA1BBB1BFD010DC0AA1FBB1FA5
:10276000EE1FFF1FA217B307E407F50720F0A21B17
:10277000B30BE40BF50B661F771F881F991F1A9484
:1027800069F760957095809590959B01AC01BD01AE
:10279000CF01089597FB092E05260ED057FD04D0D2
:1027A000D7DF0AD0001C38F450954095309521951C
:1027B0003F4F4F4F5F4F0895F6F790958095709576
:1027C00061957F4F8F4F9F4F0895AA1BBB1B51E10F
:1027D00007C0AA1FBB1FA617B70710F0A61BB70B91
:1027E000881F991F5A95A9F780959095BC01CD0136
:1027F0000895EE0FFF1F0590F491E02D0994CF93FB
:10280000DF93BC018230910510F462E070E0A0918A
:102810003706B0913806ED01E0E0F0E040E050E02E
:1028200021C0888199818617970769F48A819B81E5
:10283000309719F09383828304C090933806809375
:102840003706FE0134C06817790738F44115510581
:1028500019F08417950708F4AC01FE018A819B8169
:102860009C01E9012097E9F641155105A9F1CA013A
:10287000861B970B049708F4BA01E0E0F0E02AC049
:102880008D919C91119784179507F9F4641775073A
:1028900081F412968D919C911397309719F0938340
:1028A000828304C09093380680933706FD013296E8
:1028B0004FC0CA01861B970BFD01E80FF91F6193FA
:1028C000719302978D939C9343C0FD018281938104
:1028D0009C01D9011097A1F680913506909136069A
:1028E000892B41F480910501909106019093360661
:1028F000809335064091070150910801411551051B
:1029000041F44DB75EB78091030190910401481BDB
:10291000590B209135063091360624173507B0F44F
:10292000CA01821B930B8617970780F0AB014E5F9D
:102930005F4F8417950750F0420F531F5093360690
:1029400040933506F9016193719302C0E0E0F0E035
:10295000CF01DF91CF910895CF93DF93009709F4D2
:1029600050C0EC0122971B821A82A0913706B091C9
:102970003806109709F140E050E0AC17BD0708F1A8
:10298000BB83AA83FE0121913191E20FF31FAE17A1
:10299000BF0779F48D919C911197280F391F2E5FF5
:1029A0003F4F3983288312968D919C9113979B8377
:1029B0008A834115510571F4D0933806C0933706C8
:1029C00020C012968D919C911397AD01009711F044
:1029D000DC01D3CFFA01D383C28321913191E20F7D
:1029E000F31FCE17DF0769F488819981280F391FFB
:1029F0002E5F3F4FFA01318320838A819B8193832D
:102A00008283DF91CF910895DC0101C06D93415025
:0A2A10005040E0F70895F894FFCF5E
:102A1A000D0A0020003906000032002000010018CB
:102A2A00FCFFFF0100000000E600A100EF00C10565
:102A3A00C404A900AB00000000008F095E09E60883
:102A4A00EF080409150937053705000000000A11C7
:0A2A5A00B211A010D110B110FA1053
:00000001FF
