:100000000C946E000C946A190C9497190C94960039
:100010000C9496000C9496000C9496000C94960008
:100020000C9496000C9496000C9496000C949600F8
:100030000C9496000C94C5070C9496000C949600B2
:100040000C94C4190C9498000C94711B0C94BF1B55
:100050000C9496000C9496000C9496000C949600C8
:100060000C9416060C9496000D0A00486F6C696497
:1000700061794475696E6F30310D0A00000000002F
:10008000240027002A0000000000250028002B0083
:1000900000000000230026002900040404040404D6
:1000A0000404020202020202030303030303010227
:1000B00004081020408001020408102001020408F6
:1000C00010200000000700020100000304060000E9
:1000D0000000000000008D04120F2B1D11241FBE14
:1000E000CFEFD8E0DEBFCDBF11E0A0E0B1E0E2EBA2
:1000F000FEE302C005900D92A433B107D9F712E0D8
:10010000A4E3B1E001C01D92A03FB107E1F710E008
:10011000CCEDD0E004C02297FE010E94471EC63DF0
:10012000D107C9F70E94811D0C94571F0C94000041
:100130001F920F920FB60F9211248F939F93EF93FC
:10014000FF939EB580913F01863970F480913F0105
:10015000E0913601F0913701E80FF11D9083809115
:100160003F018F5F80933F01FF91EF919F918F91AE
:100170000F900FBE0F901F901895282F982F905317
:1001800097FD10C08A53873068F09A3014F0922F90
:100190009753892F8051883128F0903134F0905254
:1001A00090311CF02FEF3FEF04C0292F332727FD9C
:1001B0003095C9010895EF92FF920F931F937C0130
:1001C000FC0180810E94BD008C01F70181810E94A9
:1001D000BD0024E0000F111F2A95E1F7082B192B11
:1001E000C8011F910F91FF90EF900895CF92DF9279
:1001F000EF92FF920F931F938C01FC0180810E946C
:10020000BD00D82EF80181810E94BD00C82EF801E2
:1002100082810E94BD007C01F80183810E94BD00A3
:100220005D2D5295507F40E03C2D20E0422B532B1A
:10023000482B592B34E0EE0CFF1C3A95E1F74E2980
:100240005F29CA011F910F91FF90EF90DF90CF902F
:1002500008950E940C1A60930C0170930D01809315
:100260000E0190930F0108951F9382E00E94401B9E
:10027000892B49F480914001882319F510923F01A0
:1002800088E060E01CC080913F018639A1F411E054
:10029000109338010E940C1A605A75418F4F9F4F7E
:1002A00060933B0170933C0180933D0190933E012C
:1002B0001093400106C010923F0188E061E00E9467
:1002C0000D1B1F9108951F93182F682F62956F7053
:1002D00060636A330CF0695D772767FD70958AEC7F
:1002E00092E00E94EB1C612F6F7060636A330CF028
:1002F000695D772767FD70958AEC92E00E94EB1CA0
:100300001F910895EF92FF920F931F93CF93DF9366
:100310008AEC92E00E94811C892B09F4F1C081E0F3
:10032000809338010E940C1A605A75418F4F9F4F7D
:1003300060933B0170933C0180933D0190933E019B
:100340008AEC92E00E94B21C8F3349F4109249016A
:100350008AEC92E06BE670E00E94BA1DD1C08D304D
:1003600019F08A3009F0ADC080914101823511F059
:100370008237B9F480914901813009F4AFC18330EB
:1003800029F482E491E00E94DB0007C0853009F087
:100390005DC082E491E00E94F600EC0197FF5CC032
:1003A00055C0873519F0873709F050C08091490151
:1003B000833051F482E491E00E94DB0097FD46C057
:1003C000E82EC0E0D0E01EC0853061F484E491E006
:1003D0000E94DB0097FD3AC0E82E82E491E00E9483
:1003E000DB000DC0873091F586E491E00E94DB00D0
:1003F00097FD2CC0E82E82E491E00E94F600EC010B
:1004000097FD24C084E991E060E570E00E94220439
:100410006D2F772767FD7A9584E991E00E94D504D6
:10042000BE01707084E991E00E94D50484E991E0F6
:100430006E2D0E94D50484E991E00E94180565E0C4
:1004400070E080E090E00E94401A06C08AEC92E0E2
:100450006FE30E94EB1C2EC084E991E060E570E040
:100460000E9422046D2F772767FD7A9584E991E039
:100470000E94D504D07084E991E06C2F0E94D504CD
:1004800084E991E00E94180584E991E060E570E05C
:1004900041E050E00E94290584E991E00E942C048B
:1004A000892B29F084E991E00E943504E82E8E2DF5
:1004B0000E9463018AEC92E068E670E00E94BA1D37
:1004C0001DC09091490198305CF4E92FFF27E7FDAA
:1004D000F095EF5BFE4F80839F5F9093490110C0C2
:1004E000E091CA02F091CB020280F381E02D8AEC08
:1004F00092E060E071E043E050E00995109249011C
:1005000080913801882309F0DAC0E0903B01F09037
:100510003C0100913D0110913E010E940C1A6E15A4
:100520007F058007910708F4CAC0E0913401F0917B
:10053000350186E9DF011D928A95E9F7E0900C010B
:10054000F0900D0100910E0110910F0188EE93E0E3
:10055000A0E0B0E0E80EF91E0A1F1B1F0E940C1A53
:10056000A0913401B0913501E616F7060807190786
:1005700020F48FE311968C9303C08FE312968C9333
:1005800085E00E94401B892B39F4E0913401F09101
:1005900035018281815C828386E00E94401B892B29
:1005A00039F4E0913401F09135018281815C8283DC
:1005B00087E00E94401B892B39F4E0913401F091CF
:1005C00035018281815C82838091390190913A0169
:1005D0008370907081309105C1F08230910539F1BE
:1005E000A0913401B091350120910A0130910B01A5
:1005F000892B71F5C901880F991F820F931FA80FCE
:10060000B91F8FEF11968C932EC020910A01309163
:100610000B01C901880F991F820F931FE0913401CC
:10062000F0913501E80FF91F8FEF80831CC02091F6
:100630000A0130910B01C901880F991F820F931F86
:10064000E0913401F0913501E80FF91F8FEF0AC0F6
:10065000F901EE0FFF1FE20FF31FEA0FFB1F8FEFF1
:100660008183808382838EE092E00E943C0F8091A0
:100670000A0190910B01019690930B0180930A015E
:10068000C2977CF081E090E090930B0180930A0187
:100690008091390190913A01019690933A018093AB
:1006A00039010E940C1A6E5C7F4F8F4F9F4F6093F1
:1006B0003B0170933C0180933D0190933E018091FA
:1006C0004001882371F08EE092E00E943C0F10926E
:1006D000400188E061E00E940D1B03C0C0E0D0E053
:1006E000BBCEDF91CF911F910F91FF90EF900895B6
:1006F000EF92FF920F931F93AAECEA2EA2E0FA2E3C
:10070000C70140E051EE60E070E00E94FA1B85E016
:1007100062E00E94A11A86E062E00E94A11A87E0CE
:1007200062E00E94A11A88E061E00E94A11A88E0BC
:1007300061E00E940D1B8CE061E00E94A11A8CB563
:1007400080648CBD05E112E086E990E0909316028A
:100750008093150210921A0210921B0210921C0232
:1007600010921D02109218020E944B1E80931E02CE
:10077000F8019287409115025091160260E070E0F6
:100780000E94501F80911E0290911F02209115021D
:1007900030911602820F931F9093210280932002C2
:1007A00007501040C80160E170E00E94E407C801F2
:1007B00061E070E00E94C9188091150290911602C4
:1007C00063E070E00E94FC1D9B01C80160E070E0E6
:1007D00044E050E00E948A0EC8010E940919C80135
:1007E0000E94D50780911E0290911F0290933501BF
:1007F00080933401909337018093360110923F012A
:100800001092400180E064E371E041E050E00E941A
:10081000471981E069E271E042E050E00E94471927
:100820008CB580688CBD84E991E068E070E00E943E
:100830004C05C7016EE70E94EB1C1F910F91FF90C2
:10084000EF90089581E080938F0160936C01109286
:100850008D0110928E01089520916B0130E08091FE
:100860006A01281B3109C901089540916A018091EC
:100870006B01481718F02FEF3FEF0AC0E42FF0E0AC
:10088000E65BFE4F8081282F30E04F5F40936A0186
:10089000C9010895E0916A0180916B01E81718F091
:1008A000EFEFFFEF06C0F0E0E65BFE4F8081E82F40
:1008B000F0E0CF0108950895AC01209192013091AC
:1008C000930121153105E1F090916A0180916B014E
:1008D0009817B0F090E008C0FA01EA0FFB1F808182
:1008E000A65BBE4F8C939F5FA92FB0E0A617B707FA
:1008F0009CF310926A0160936B01CB01F901099599
:100900000895E0919001F0919101309729F01092B3
:100910008D0110928E010995089510929701109201
:10092000960188EE93E0A0E0B0E080939801909368
:100930009901A0939A01B0939B0187E191E0909374
:100940009501809394010895CF92DF92EF92FF92E8
:100950000F931F93CF93DF937C016B018A018091EA
:100960008F018823A1F0C0E0D0E00DC0D701ED9148
:10097000FC91D601AC0FBD1F0190F081E02DC701A5
:100980006C9109952196C017D10780F304C0CB0163
:10099000642F0E94F105C801DF91CF911F910F9143
:1009A000FF90EF90DF90CF900895DF93CF930F9259
:1009B000CDB7DEB7FC01698380918F018823C9F030
:1009C00080918E01803238F081E090E093838283C1
:1009D00020E030E015C080918D01E82FF0E0E35970
:1009E000FE4F998190838F5F80938D0180938E015C
:1009F00005C0CE01019661E00E94F10521E030E0E2
:100A0000C9010F90CF91DF9108950F93062F809128
:100A10006C016DE671E040918E0121E00E949C0521
:100A200010928D0110928E0110928F010F910895F6
:100A300061E00E9405050895413208F040E2862FEA
:100A40006AE471E00E94530510926A0180936B0181
:100A5000089521E00E941C05089510926A011092E9
:100A60006B0110928D0110928E010E94A7070895CC
:100A70000F931F938C01862F0E944F0581E894E00D
:100A80000E9411068CE594E00E940C06C8010E94A9
:100A90002D051F910F9108950E9438050895880F24
:100AA0008093BA000895382F413210F040E042C0E0
:100AB0008091A0018823E1F791E09093A001209319
:100AC000A2018FEF80930D021092C8014150409314
:100AD000C9014F5F9093A1018091A101330F832B36
:100AE0008093A1018091A301813041F41092A30170
:100AF0008091A1018093BB0085EC01C085EE8093BD
:100B0000BC008091A0018130E1F38091C80184177D
:100B100010F44091C80120E030E00AC0FB01E20F70
:100B2000F31FD901A855BE4F8C9180832F5F3F4F93
:100B30002417A0F3842F08950F931F93582F122F7B
:100B4000413210F081E04AC08091A0018823E1F792
:100B500082E08093A0010093A2018FEF80930D02A9
:100B60001092C8014093C901A8EAB1E0FB0102C09C
:100B700081918D938E2F861B8417D0F31092A10143
:100B80008091A101550F852B8093A1018091A30134
:100B9000813041F41092A3018091A1018093BB00A8
:100BA00085EC01C085EE8093BC00112321F080917B
:100BB000A0018230E1F380910D028F3F11F480E0BB
:100BC0000DC080910D02803211F482E007C0809147
:100BD0000D02803311F084E001C083E01F910F917A
:100BE0000895482F613210F081E008958091A001AE
:100BF000843011F082E008956093EB01AAECB1E03B
:100C0000842F9C01F90102C081918D938E2F841B4A
:100C10008617D0F380E008959093A7018093A601F2
:100C200008959093A5018093A40108951F920F92B7
:100C30000FB60F9211242F933F934F935F936F93AF
:100C40007F938F939F93AF93BF93EF93FF93809185
:100C5000B90090E0887F90708036910509F4F2C069
:100C600081369105CCF58832910509F47BC0893233
:100C70009105B4F48031910509F46FC0813191057B
:100C80003CF4009709F447C1089709F04FC165C0CB
:100C90008831910509F466C0809709F047C182C088
:100CA0008034910509F4A4C08134910544F4803363
:100CB000910509F482C0C89709F038C189C0803510
:100CC000910509F489C08835910509F496C08834E6
:100CD000910509F02BC1AEC08839910509F413C103
:100CE00089399105ECF48837910509F4ABC089374F
:100CF00091054CF48836910509F4A4C0803791051C
:100D000009F014C19FC08838910509F4FCC08039EE
:100D1000910509F49DC08038910509F007C198C07C
:100D2000803B910509F4C6C0813B91054CF4803AA3
:100D3000910509F49FC0883A910509F0F7C0BAC03F
:100D4000803C910509F4E3C0883C910509F4DFC0BB
:100D5000883B910509F0EAC0C2C08091A10180934F
:100D6000BB00CFC09091C8018091C901981768F469
:100D70009091C801E92FF0E0E855FE4F8081809303
:100D8000BB009F5F9093C801BCC08091A2018823E3
:100D900009F44BC085ED8093BC008091BC0084FDBC
:100DA000FCCFC2C080E280930D0285ED8093BC0031
:100DB0008091BC0084FDFCCFB7C080E380930D021E
:100DC00085ED8093BC008091BC0084FDFCCFACC05D
:100DD00088E380930D029BC08091C8019091BB0075
:100DE000E82FF0E0E855FE4F90838F5F8093C801B5
:100DF0009091C8018091C90182C08091C8019091F1
:100E0000BB00E82FF0E0E855FE4F90838F5F8093A2
:100E1000C8018091A201882341F085ED8093BC0038
:100E20008091BC0084FDFCCF7FC081E08093A30152
:100E300084EA6EC085ED8093BC008091BC0084FD87
:100E4000FCCF72C083E08093A00110920C0259C0C5
:100E500080910C02803208F056C080910C02909173
:100E6000BB00E82FF0E0E451FE4F90838F5F80934A
:100E70000C0247C080910C02803230F4E0910C02E9
:100E8000F0E0E451FE4F108285ED8093BC0080912C
:100E9000BC0084FDFCCF1092A00160910C02E09197
:100EA000A601F091A7018CEE91E070E009951092F7
:100EB0000C022DC084E08093A0011092EA011092F0
:100EC000EB01E091A401F091A50109958091EB015E
:100ED000882329F481E08093EB011092CA0190915C
:100EE000EA01E92FF0E0E653FE4F80818093BB00DA
:100EF0009F5F9093EA019091EA018091EB0198172E
:100F000010F485EC01C085E88093BC000FC085EC2F
:100F10008093BC0009C010920D0285ED8093BC0047
:100F20008091BC0084FDFCCF1092A001FF91EF9155
:100F3000BF91AF919F918F917F916F915F914F91F1
:100F40003F912F910F900FBE0F901F901895109208
:100F5000A00181E08093A2011092A30182E161E0EF
:100F60000E940D1B83E161E00E940D1BE9EBF0E0A4
:100F700080818E7F808380818D7F808388E48093D1
:100F8000B80085E48093BC0008951F9210902C0255
:100F900011FC08C010FE03C01F900C94BF081F90E6
:100FA0000C940F0E1F900C946A08FC019385892FF6
:100FB0008150823010F0943031F480918100908122
:100FC000892B809381000895FC01638760932C0234
:100FD0006230710509F16430710579F16130710594
:100FE00071F582E0809331028EEF80933002278189
:100FF0003085C90168E170E00E94FC1D892B49F42D
:10100000C90168E170E00E94FC1D60933202653006
:10101000B0F01092320213C087819085459714F08A
:1010200088E001C083E08093310281958093300293
:10103000809134028093330202C010923102809179
:1010400019028830F1F0893038F48230B9F08430F8
:1010500091F08130E9F40CC0803299F0813218F4BB
:101060008031B1F411C0803479F0803889F409C03E
:1010700085E390E00BC082E390E008C081E490E05B
:1010800005C089E190E002C085E090E09283818311
:1010900083858830E9F0893038F4823089F08430F3
:1010A000B9F08130B1F414C0803291F0813218F47B
:1010B000803179F40DC0803459F0803851F408C083
:1010C000818787819085459724F083E08187089503
:1010D000118608951F920F920FB60F9211242F932D
:1010E0003F938F939F93EF93FF933091330220911F
:1010F00012013323E1F0E0912E02F0912F02829150
:10110000281710F490E901C090E88291281708F49C
:1011100091603197F0932F02E0932E02808128177F
:1011200008F494609EBD3150309333021DC02A9A5A
:10113000809120029091210290932F0280932E02A1
:101140002A9880913002821720F080913102820F1C
:1011500001C081E0809312012A9A80913402809329
:1011600033022A9880E88EBDFF91EF919F918F9175
:101170003F912F910F900FBE0F901F9018951F92C7
:101180000F920FB60F9211242F933F934F935F93BB
:101190008F939F93EF93FF93909111018091300271
:1011A000891710F481E003C080913102890F809388
:1011B00011012A9880913202823009F444C38330AD
:1011C00020F4813009F0B0C42FC4833009F4D8C1B1
:1011D000843009F0A9C4E0912E02F0912F022091F1
:1011E00011018291821710F090E801C090E0829185
:1011F000821708F090648291821708F090628291C1
:10120000821708F090618291821708F098608291AD
:10121000821708F094608291821708F092608291A0
:10122000821708F091609EBD8291821710F090E8BD
:1012300001C090E08291821708F090648291821739
:1012400008F090628291821708F090618291821773
:1012500008F098608291821708F09460829182175A
:1012600008F092608291821708F091600DB407FE39
:10127000FDCF9EBD8291821710F090E801C090E0F2
:101280008291821708F090648291821708F0906230
:101290008291821708F090618291821708F098601D
:1012A0008291821708F094608291821708F0926010
:1012B0008291821708F091600DB407FEFDCF9EBDAC
:1012C0008291821710F090E801C090E0829182171D
:1012D00008F090648291821708F0906282918217E0
:1012E00008F090618291821708F0986082918217CD
:1012F00008F094608291821708F0926082918217C0
:1013000008F091600DB407FEFDCF9EBD829182175B
:1013100010F090E801C090E08291821708F090648C
:101320008291821708F090628291821708F0906192
:101330008291821708F098608291821708F0946079
:101340008291821708F092608291821708F0916072
:101350000DB407FEFDCF9EBD8291821710F090E87C
:1013600001C090E08291821708F090648291821708
:1013700008F090628291821708F090618291821742
:1013800008F098608291821708F094608291821729
:1013900008F092608291821708F091600DB407FE08
:1013A000FDCF9EBD8291821710F090E801C090E0C1
:1013B0008291821708F090648291821708F09062FF
:1013C0008291821708F090618291821708F09860EC
:1013D0008291821708F094608291821708F09260DF
:1013E0008291821708F091600DB407FEFDCF9EBD7B
:1013F0008291821710F090E801C090E082918217EC
:1014000008F090648291821708F0906282918217AE
:1014100008F090618291821708F09860829182179B
:1014200008F094608291821708F09260829182178E
:1014300008F091600DB407FEFDCF9EBD829182172A
:1014400010F090E801C090E08291821708F090645B
:101450008291821708F090628291821708F0906161
:101460008291821708F098608291821708F0946048
:101470008291821708F092608291821708F0916041
:101480000DB407FEFDCF9EBD8291821710F090E84B
:1014900001C090E08291821708F0906482918217D7
:1014A00008F090628291821708F090618291821711
:1014B00008F098608291821708F0946082918217F8
:1014C00008F092608291821708F091600DB407FED7
:1014D000FDCF9EBD8291821710F090E801C090E090
:1014E0008291821708F090648291821708F09062CE
:1014F0008291821708F090618291821708F09860BB
:101500008291821708F094608291821708F09260AD
:101510008291821708F091600DB407FEFDCF9EBD49
:101520008291821710F090E801C090E082918217BA
:1015300008F090648291821708F09062829182177D
:1015400008F090618291821708F09860829182176A
:1015500008F094603197F0932F02E0932E0280817F
:10156000821708F092603197F0932F02E0932E02D9
:101570008081821708F091600DB407FEFDCFD2C2C2
:10158000E0912E02F0912F02209111018291821799
:1015900010F090E801C090E08291821708F090640A
:1015A0008291821708F090628291821708F0906110
:1015B0008291821708F098608291821708F09460F7
:1015C0008291821708F092608291821708F09160F0
:1015D0009EBD8291821710F090E801C090E0829148
:1015E000821708F090648291821708F090628291CD
:1015F000821708F090618291821708F098608291BA
:10160000821708F094608291821708F092608291AC
:10161000821708F091600DB407FEFDCF9EBD829148
:10162000821710F090E801C090E08291821708F0D4
:1016300090648291821708F090628291821708F07C
:1016400090618291821708F098608291821708F069
:1016500094608291821708F092608291821708F05C
:1016600091600DB407FEFDCF9EBD8291821710F0F0
:1016700090E801C090E08291821708F09064829116
:10168000821708F090628291821708F0906182912F
:10169000821708F098608291821708F09460829116
:1016A000821708F092608291821708F091600DB461
:1016B00007FEFDCF9EBD8291821710F090E801C019
:1016C00090E08291821708F090648291821708F06E
:1016D00090628291821708F090618291821708F0DF
:1016E00098608291821708F094608291821708F0C6
:1016F00092608291821708F091600DB407FEFDCFD1
:101700009EBD8291821710F090E801C090E0829116
:10171000821708F090648291821708F0906282919B
:10172000821708F090618291821708F09860829188
:10173000821708F094608291821708F0926082917B
:10174000821708F091600DB407FEFDCF9EBD829117
:10175000821710F090E801C090E08291821708F0A3
:1017600090648291821708F090628291821708F04B
:1017700090618291821708F098608291821708F038
:1017800094608291821708F092608291821708F02B
:1017900091600DB407FEFDCF9EBD8291821710F0BF
:1017A00090E801C090E08291821708F090648291E5
:1017B000821708F090628291821708F090618291FE
:1017C000821708F098608291821708F094608291E5
:1017D000821708F092608291821708F091600DB430
:1017E00007FEFDCF9EBD8291821710F090E801C0E8
:1017F00090E08291821708F090648291821708F03D
:1018000090628291821708F090618291821708F0AD
:1018100098608291821708F094603197F0932F02BC
:10182000E0932E028081821708F092603197F09346
:101830002F02E0932E028081821708F091600DB490
:1018400007FEFDCF6FC1E0912E02F0912F02209193
:1018500011018291821710F090E801C090E082910E
:10186000821708F090648291821708F0906282914A
:10187000821708F090618291821708F09860829137
:10188000821708F094608291821708F0926082912A
:10189000821708F091609EBD8291821710F090E847
:1018A00001C090E08291821708F0906482918217C3
:1018B00008F090628291821708F0906182918217FD
:1018C00008F098608291821708F0946082918217E4
:1018D00008F092608291821708F091600DB407FEC3
:1018E000FDCF9EBD8291821710F090E801C090E07C
:1018F0008291821708F090648291821708F09062BA
:101900008291821708F090618291821708F09860A6
:101910008291821708F094608291821708F0926099
:101920008291821708F091600DB407FEFDCF9EBD35
:101930008291821710F090E801C090E082918217A6
:1019400008F090648291821708F090628291821769
:1019500008F090618291821708F098608291821756
:1019600008F094608291821708F092608291821749
:1019700008F091600DB407FEFDCF9EBD82918217E5
:1019800010F090E801C090E08291821708F0906416
:101990008291821708F090628291821708F090611C
:1019A0008291821708F098608291821708F0946003
:1019B0008291821708F092608291821708F09160FC
:1019C0000DB407FEFDCF9EBD8291821710F090E806
:1019D00001C090E08291821708F090648291821792
:1019E00008F090628291821708F0906182918217CC
:1019F00008F098608291821708F094603197F09314
:101A00002F02E0932E028081821708F092603197B6
:101A1000F0932F02E0932E028081821708F09160EC
:101A20000DB407FEFDCF7EC0E0912E02F0912F0293
:101A3000209111018291821710F090E801C090E08E
:101A40008291821708F090648291821708F0906268
:101A50008291821708F090618291821708F0986055
:101A60008291821708F094608291821708F0926048
:101A70008291821708F091609EBD8291821710F0CA
:101A800090E801C090E08291821708F09064829102
:101A9000821708F090628291821708F0906182911B
:101AA000821708F098608291821708F09460829102
:101AB000821708F092608291821708F091600DB44D
:101AC00007FEFDCF9EBD8291821710F090E801C005
:101AD00090E08291821708F090648291821708F05A
:101AE00090628291821708F090618291821708F0CB
:101AF00098608291821708F094603197F0932F02DA
:101B0000E0932E028081821708F092603197F09363
:101B10002F02E0932E028081821708F091600DB4AD
:101B200007FEFDCF9EBD65C0E0912E02F0912F0211
:101B3000409111018291841710F090E801C090E06B
:101B40008291841708F090648291841708F0906263
:101B50008291841708F090618291841708F0986050
:101B60008291841708F094608291841708F0926043
:101B70003197F0932F02E0932E028081841708F0B2
:101B800091609EBD509115029F013897521B29C04C
:101B90008781841710F090E801C090E08681841757
:101BA00008F090648581841708F09062848184171E
:101BB00008F090618381841708F09860828184170F
:101BC00008F094608181841708F092608081841706
:101BD00008F091600DB407FEFDCF9EBD2850304047
:101BE0003897852F820F89309CF620932E023093F0
:101BF0002F022A9A809120029091210290932F0225
:101C000080932E02FF91EF919F918F915F914F9161
:101C10003F912F910F900FBE0F901F9018951F921C
:101C20000F920FB60F9211242F933F938F939F9390
:101C3000AF93BF93EF93FF9380911902843009F023
:101C40005CC0809110018130D9F41EBC80911802D3
:101C5000813089F410921001109218020DB407FE21
:101C6000FDCF1EBC80911E0290911F0290932F0207
:101C700080932E0242C00DB407FEFDCF1EBC3DC0B6
:101C8000E0912E02F0912F02DF0111968081282F22
:101C900030E0287F30703695322F222737952795F0
:101CA0003068818190E0887F9070880F991F880F3D
:101CB000991F282B392B11968C91119790E0E3E016
:101CC00095958795EA95E1F7282B392B1296B093D5
:101CD0002F02A0932E020DB407FEFDCF3EBD8091D2
:101CE000200290912102A817B90719F481E080938E
:101CF00010010DB407FEFDCF2EBDFF91EF91BF91F6
:101D0000AF919F918F913F912F910F900FBE0F90A8
:101D10001F901895CF93DF93DC01660F771FEA01C0
:101D20005496ED91FC915597E60FF71F5183408330
:101D30005696ED91FC915797E60FF71FC901880F52
:101D4000991F820F931F91838083C656DF4FFE0138
:101D50004491E42FF0E0EE0FFF1FEA57FF4F85910B
:101D600094915A96ED91FC915B97E60FF71F918342
:101D70008083DF91CF9108951F93CF93DF93EC0180
:101D80001092800080E18093810069817A8180E0F7
:101D900090E020EA36E841E050E00E94DD1D2B8112
:101DA0003C814D815E810E940F1E109119021230FC
:101DB00021F0143011F0113031F460E472E48FE05E
:101DC00090E00E940F1EB901CA0120E034E244EF06
:101DD00050E00E94DD1D20E834E84EE150E00E9412
:101DE0000F1EC901DA019C01AD01123049F4233400
:101DF00031054105510524F423E430E040E050E092
:101E000091E0988330938700209386008091810031
:101E1000887F8093810090936F007894DF91CF91B9
:101E20001F9108951092170282E390E090931002A0
:101E300080930F0210921A0210921B0210921C0241
:101E400010921D021092180281E0809319021092E4
:101E500011021092120210921302109214021092A8
:101E60002702109226021092230210922202109250
:101E70002502109224020895EF92FF920F931F9370
:101E8000CF93DF938C0181E0D8011A968C938091D7
:101E900019028830B1F5F894E801E889F9892A89AE
:101EA0003B8980912D02882321F581E080932D02CA
:101EB000DF018D918EBD0DB407FEFDCFFD01819137
:101EC0008EBD0DB407FEFDCF11968C918EBD31965F
:101ED00010C00DB407FEFDCF80818EBD0DB407FE8E
:101EE000FDCF81818EBD0DB407FEFDCF82818EBDF9
:101EF0003396E217F30769F7F801128678940C9489
:101F0000B417803809F05FC0F894D8015096CD918D
:101F1000DC9151975296ED90FC9053971EBC0DB4F6
:101F200007FEFDCF1EBC0DB407FEFDCF1EBC0DB4D9
:101F300007FEFDCF1EBC0DB407FEFDCF1EBC0DB4C9
:101F400007FEFDCF1EBC0DB407FEFDCF8BE060E0A9
:101F50000E940D1B8DE061E00E940D1B8DE060E092
:101F60000E940D1B8BE060E00E940D1B8DE061E084
:101F70000E940D1B8DE060E00E940D1B1CC08BE0D9
:101F800061E00E940D1B8DE061E00E940D1B8DE061
:101F900060E00E940D1B88818EBD0DB407FEFDCF51
:101FA00089818EBD0DB407FEFDCF8A818EBD0DB433
:101FB00007FEFDCF2396CE15DF0509F7E8011A8647
:101FC00078940C94B417803411F00C949914F8940C
:101FD000F8011286A089B18940E050E00C948F147A
:101FE000CA01880F991FE801EE89FF89E80FF91FE0
:101FF000608171816A0F7B1FE0912202F0912302C0
:10200000E80FF91F0190F081E02DE255FF4F249178
:10201000EA8DFB8DE80FF91F0190F081E02D3097DC
:1020200011F00C9486140C948D143C9137FF16C05B
:102030008081822B8083001400140014001400148B
:1020400000140014001400140014001400140014F0
:102050000014001480818923808315C08081822B25
:10206000808300140014808189238083001400146D
:1020700000140014001400140014001400140014C0
:102080000014001400140014001436FF16C08081E0
:10209000822B808300140014001400140014001418
:1020A0000014001400140014001400140014001490
:1020B000001480818923808315C08081822B8083D6
:1020C00000140014808189238083001400140014FC
:1020D0000014001400140014001400140014001460
:1020E000001400140014001435FF16C08081822BE8
:1020F0008083001400140014001400140014001451
:10210000001400140014001400140014001400142F
:1021100080818923808315C08081822B8083001475
:10212000001480818923808300140014001400149B
:1021300000140014001400140014001400140014FF
:1021400000140014001434FF16C08081822B808399
:1021500000140014001400140014001400140014DF
:1021600000140014001400140014001400148081E2
:102170008923808315C08081822B80830014001402
:10218000808189238083001400140014001400143B
:10219000001400140014001400140014001400149F
:1021A0000014001433FF16C08081822B808300143A
:1021B000001400140014001400140014001400147F
:1021C00000140014001400140014001480818923EA
:1021D000808315C08081822B80830014001480814D
:1021E00089238083001400140014001400140014C8
:1021F000001400140014001400140014001400143F
:10220000001432FF16C08081822B808300140014DA
:10221000001400140014001400140014001400141E
:10222000001400140014001400148081892380839A
:1022300015C08081822B8083001400148081892343
:1022400080830014001400140014001400140014FF
:1022500000140014001400140014001400140014DE
:1022600031FF16C08081822B80830014001400147B
:1022700000140014001400140014001400140014BE
:10228000001400140014001480818923808315C079
:102290008081822B808300140014808189238083B5
:1022A000001400140014001400140014001400148E
:1022B000001400140014001400140014001430FF63
:1022C00016C08081822B8083001400140014001437
:1022D000001400140014001400140014001400145E
:1022E00000140014001480818923808315C080812C
:1022F000822B808300140014808189238083001442
:10230000001400140014001400140014001400142D
:1023100000140014001400140014001411963C91D1
:10232000119737FF16C08081822B80830014001420
:1023300000140014001400140014001400140014FD
:102340000014001400140014001480818923808379
:1023500015C08081822B8083001400148081892322
:1023600080830014001400140014001400140014DE
:1023700000140014001400140014001400140014BD
:1023800036FF16C08081822B808300140014001455
:10239000001400140014001400140014001400149D
:1023A000001400140014001480818923808315C058
:1023B0008081822B80830014001480818923808394
:1023C000001400140014001400140014001400146D
:1023D000001400140014001400140014001435FF3D
:1023E00016C08081822B8083001400140014001416
:1023F000001400140014001400140014001400143D
:1024000000140014001480818923808315C080810A
:10241000822B808300140014808189238083001420
:10242000001400140014001400140014001400140C
:1024300000140014001400140014001434FF16C01B
:102440008081822B80830014001400140014001477
:1024500000140014001400140014001400140014DC
:102460000014001480818923808315C08081822B11
:102470008083001400148081892380830014001459
:1024800000140014001400140014001400140014AC
:102490000014001400140014001433FF16C08081CF
:1024A000822B808300140014001400140014001404
:1024B000001400140014001400140014001400147C
:1024C000001480818923808315C08081822B8083C2
:1024D00000140014808189238083001400140014E8
:1024E000001400140014001400140014001400144C
:1024F000001400140014001432FF16C08081822BD7
:10250000808300140014001400140014001400143C
:10251000001400140014001400140014001400141B
:1025200080818923808315C08081822B8083001461
:102530000014808189238083001400140014001487
:1025400000140014001400140014001400140014EB
:1025500000140014001431FF16C08081822B808388
:1025600000140014001400140014001400140014CB
:1025700000140014001400140014001400148081CE
:102580008923808315C08081822B808300140014EE
:102590008081892380830014001400140014001427
:1025A000001400140014001400140014001400148B
:1025B0000014001430FF16C08081822B8083001429
:1025C000001400140014001400140014001400146B
:1025D00000140014001400140014001480818923D6
:1025E000808315C08081822B808300140014808139
:1025F00089238083001400140014001400140014B4
:10260000001400140014001400140014001400142A
:10261000001412963C91129737FF16C08081822BCE
:10262000808300140014001400140014001400141B
:1026300000140014001400140014001400140014FA
:1026400080818923808315C08081822B8083001440
:102650000014808189238083001400140014001466
:1026600000140014001400140014001400140014CA
:1026700000140014001436FF16C08081822B808362
:1026800000140014001400140014001400140014AA
:1026900000140014001400140014001400148081AD
:1026A0008923808315C08081822B808300140014CD
:1026B0008081892380830014001400140014001406
:1026C000001400140014001400140014001400146A
:1026D0000014001435FF16C08081822B8083001403
:1026E000001400140014001400140014001400144A
:1026F00000140014001400140014001480818923B5
:10270000808315C08081822B808300140014808117
:102710008923808300140014001400140014001492
:102720000014001400140014001400140014001409
:10273000001434FF16C08081822B808300140014A3
:1027400000140014001400140014001400140014E9
:102750000014001400140014001480818923808365
:1027600015C08081822B808300140014808189230E
:1027700080830014001400140014001400140014CA
:1027800000140014001400140014001400140014A9
:1027900033FF16C08081822B808300140014001444
:1027A0000014001400140014001400140014001489
:1027B000001400140014001480818923808315C044
:1027C0008081822B80830014001480818923808380
:1027D0000014001400140014001400140014001459
:1027E000001400140014001400140014001432FF2C
:1027F00016C08081822B8083001400140014001402
:102800000014001400140014001400140014001428
:1028100000140014001480818923808315C08081F6
:10282000822B80830014001480818923808300140C
:1028300000140014001400140014001400140014F8
:1028400000140014001400140014001431FF16C00A
:102850008081822B80830014001400140014001463
:1028600000140014001400140014001400140014C8
:102870000014001480818923808315C08081822BFD
:102880008083001400148081892380830014001445
:102890000014001400140014001400140014001498
:1028A0000014001400140014001430FF16C08081BE
:1028B000822B8083001400140014001400140014F0
:1028C0000014001400140014001400140014001468
:1028D000001480818923808315C08081822B8083AE
:1028E00000140014808189238083001400140014D4
:1028F0000014001400140014001400140014001438
:102900000014001400140014139602C0922F909526
:10291000A617B70711F00C9415104F5F5F4FF80121
:10292000808D918D4817590710F40C94F00F78940E
:102930001BC3803109F0D1C2F894D8011A961C92B9
:102940001A9750960D90BC91A02D40E050E0BCC26B
:10295000CA01880F991FE801EE89FF89E80FF91F66
:10296000608171816A0F7B1FE0912202F091230246
:10297000E80FF91F0190F081E02DE255FF4F2491FF
:10298000EA8DFB8DE80FF91F0190F081E02D309763
:1029900009F092C297C23C9137FF0CC08081822B14
:1029A0008083001400140014001400148081892313
:1029B00080830BC08081822B80830014001480816F
:1029C000892380830014001400140014001436FFBF
:1029D0000CC08081822B808300140014001400142A
:1029E00000148081892380830BC08081822B8083A7
:1029F00000140014808189238083001400140014C3
:102A00000014001435FF0CC08081822B80830014D9
:102A100000140014001400148081892380830BC0EB
:102A20008081822B8083001400148081892380831D
:102A30000014001400140014001434FF0CC0808132
:102A4000822B808300140014001400140014808171
:102A5000892380830BC08081822B80830014001423
:102A60008081892380830014001400140014001452
:102A700033FF0CC08081822B80830014001400146B
:102A8000001400148081892380830BC08081822BF5
:102A90008083001400148081892380830014001433
:102AA00000140014001432FF0CC08081822B80833C
:102AB0000014001400140014001480818923808302
:102AC0000BC08081822B80830014001480818923B5
:102AD00080830014001400140014001431FF0CC093
:102AE0008081822B808300140014001400140014D1
:102AF0008081892380830BC08081822B8083001496
:102B000000148081892380830014001400140014B1
:102B1000001430FF0CC08081822B808300140014CD
:102B20000014001400148081892380830BC08081ED
:102B3000822B8083001400148081892380830014F9
:102B4000001400140014001411963C91119737FFE3
:102B50000CC08081822B80830014001400140014A8
:102B600000148081892380830BC08081822B808325
:102B70000014001480818923808300140014001441
:102B80000014001436FF0CC08081822B8083001457
:102B900000140014001400148081892380830BC06A
:102BA0008081822B8083001400148081892380839C
:102BB0000014001400140014001435FF0CC08081B0
:102BC000822B8083001400140014001400148081F0
:102BD000892380830BC08081822B808300140014A2
:102BE00080818923808300140014001400140014D1
:102BF00034FF0CC08081822B8083001400140014E9
:102C0000001400148081892380830BC08081822B73
:102C100080830014001480818923808300140014B1
:102C200000140014001433FF0CC08081822B8083B9
:102C30000014001400140014001480818923808380
:102C40000BC08081822B8083001400148081892333
:102C500080830014001400140014001432FF0CC010
:102C60008081822B8083001400140014001400144F
:102C70008081892380830BC08081822B8083001414
:102C80000014808189238083001400140014001430
:102C9000001431FF0CC08081822B8083001400144B
:102CA0000014001400148081892380830BC080816C
:102CB000822B808300140014808189238083001478
:102CC000001400140014001430FF0CC08081822B0B
:102CD00080830014001400140014001480818923E0
:102CE00080830BC08081822B80830014001480813C
:102CF0008923808300140014001400140014129619
:102D00003C91129737FF0CC08081822B8083001486
:102D100000140014001400148081892380830BC0E8
:102D20008081822B8083001400148081892380831A
:102D30000014001400140014001436FF0CC080812D
:102D4000822B80830014001400140014001480816E
:102D5000892380830BC08081822B80830014001420
:102D6000808189238083001400140014001400144F
:102D700035FF0CC08081822B808300140014001466
:102D8000001400148081892380830BC08081822BF2
:102D90008083001400148081892380830014001430
:102DA00000140014001434FF0CC08081822B808337
:102DB00000140014001400140014808189238083FF
:102DC0000BC08081822B80830014001480818923B2
:102DD00080830014001400140014001433FF0CC08E
:102DE0008081822B808300140014001400140014CE
:102DF0008081892380830BC08081822B8083001493
:102E000000148081892380830014001400140014AE
:102E1000001432FF0CC08081822B808300140014C8
:102E20000014001400148081892380830BC08081EA
:102E3000822B8083001400148081892380830014F6
:102E4000001400140014001431FF0CC08081822B88
:102E5000808300140014001400140014808189235E
:102E600080830BC08081822B8083001400148081BA
:102E7000892380830014001400140014001430FF10
:102E80000CC08081822B8083001400140014001475
:102E900000148081892380830BC08081822B8083F2
:102EA000001400148081892380830014001400140E
:102EB00000140014139602C0922F9095A617B7071E
:102EC00009F069CD4F5F5F4FF801808D918D4817F4
:102ED000590708F43DCD789447C0803209F044C0CA
:102EE000F894D8015096ED91FC91519752962D91FE
:102EF0003C91539716C00DB407FEFDCF8081869597
:102F000080688EBD0DB407FEFDCF818186958068F7
:102F10008EBD0DB407FEFDCF8281869580688EBD83
:102F20003396E217F30739F7E8018F8198858154CA
:102F30009F4F60EC70E00E94FC1DCB010CC00DB4F3
:102F400007FEFDCF1EBC0DB407FEFDCF1EBC0DB4A9
:102F500007FEFDCF1EBC0197EFEF8F3F9E0779F76D
:102F6000D8011A961C927894DF91CF911F910F91FE
:102F7000FF90EF9008954F925F926F927F928F92A1
:102F80009F92AF92BF92CF92DF92EF92FF920F93F8
:102F90001F93DF93CF9300D000D0CDB7DEB74C01A5
:102FA000DC011B968C91803109F472C0803409F4E5
:102FB0006FC08BE061E00E94A11A8AE061E00E948C
:102FC000A11A8DE061E00E94A11A8CE061E00E94EC
:102FD000A11A8BE060E00E940D1B8AE060E00E9475
:102FE0000D1B8DE060E00E940D1B8CE060E00E94F4
:102FF0000D1B8CB580658CBD8CB58C7F8CBD8DB563
:103000008EB5F40181858330F9F0843030F481305D
:1030100009F4A6C0823088F41BC0853041F08530A9
:1030200018F0863071F406C08CB5826008C08CB58B
:1030300082600CC08CB582608CBD8CB581608CBD0B
:1030400007C08CB582608CBD8CB581608CBD88C09A
:103050008DB5816087C08701000F111FD401549680
:10306000ED91FC915597E00FF11F808161E00E9486
:10307000A11AD4015496ED91FC915597E00FF11FE0
:10308000808160E00E940D1B0894E11CF11C02C0CD
:10309000EE24FF24F401808D918DE816F906D8F214
:1030A000D4011B969C91892F8150823020F094305E
:1030B00009F05AC006C0903109F456C0903409F4A2
:1030C00053C01EBC0E94C5071A8219820E940C1AA6
:1030D0007B018C011C821B8205C08B819C81019627
:1030E0009C838B838B819C8180519742B4F30E9497
:1030F0000C1A2B013C01F4011486158616861786DE
:103100009385892F8150823010F09430A9F40E9469
:103110000C1A5B016C011C821B8207C00E94C50750
:103120008B819C8101969C838B838B819C818051B8
:103130009742A4F30E940C1AE418F508060917092F
:10314000E60EF71E081F191FEA18FB080C091D09D7
:10315000D4011396ED92FD920D931C93169704C023
:103160008DB58E7F8DBD9CCF0F900F900F900F90DF
:10317000CF91DF911F910F91FF90EF90DF90CF9053
:10318000BF90AF909F908F907F906F905F904F9087
:103190000895EF92FF920F931F93CF93DF93EC016B
:1031A0007B01798F688F8B01000F111FC8010E946E
:1031B0004B1E8C8B9D8BC8010E944B1E8E8B9F8B50
:1031C000C8010E944B1E8A8F9B8F20E030E017C001
:1031D000C901880F991FAC89BD89A80FB91FEE8955
:1031E000FF89E80FF91F118210821D921C92EA8D4F
:1031F000FB8DE80FF91F118210822F5F3F4F2E15B4
:103200003F0534F3DF91CF911F910F91FF90EF9025
:103210000895CF93DF93EC018A899B8990932F02C5
:1032200080932E028F81988563E070E00E94FC1DE0
:1032300060933402CE010E94BB179B85892F815079
:10324000823010F0943049F46AE070E080E090E061
:103250000E94401ACE010E94BC0E8B858032A1F4E0
:103260008F8198850CC01EBC0DB407FEFDCF1EBC1F
:103270000DB407FEFDCF1EBC0DB407FEFDCF0197B8
:103280002FEF8F3F920779F7DF91CF91089582302A
:1032900000F5E82FF0E0EE0FFF1FEB5CFD4F7183B0
:1032A0006083882319F08130A1F408C080916900FF
:1032B0008C7F842B80936900E89A0895809169003F
:1032C000440F551F440F551F837F842B8093690043
:1032D000E99A08951F920F920FB60F9211242F931F
:1032E0003F934F935F936F937F938F939F93AF938E
:1032F000BF93EF93FF938091350290913602892B13
:1033000029F0E0913502F09136020995FF91EF9195
:10331000BF91AF919F918F917F916F915F914F91ED
:103320003F912F910F900FBE0F901F9018951F92F5
:103330000F920FB60F9211242F933F934F935F93E9
:103340006F937F938F939F93AF93BF93EF93FF936D
:103350008091370290913802892B29F0E091370251
:10336000F09138020995FF91EF91BF91AF919F9134
:103370008F917F916F915F914F913F912F910F901E
:103380000FBE0F901F9018951F920F920FB60F92BD
:1033900011242F933F938F939F93AF93BF9380916B
:1033A0003D0290913E02A0913F02B09140023091C7
:1033B00041020196A11DB11D232F2D5F2D3720F055
:1033C0002D570196A11DB11D2093410280933D020E
:1033D00090933E02A0933F02B09340028091390245
:1033E00090913A02A0913B02B0913C020196A11D3E
:1033F000B11D8093390290933A02A0933B02B0939F
:103400003C02BF91AF919F918F913F912F910F906F
:103410000FBE0F901F9018958FB7F89420913D0222
:1034200030913E0240913F02509140028FBFB9015E
:10343000CA0108959FB7F8942091390230913A0259
:1034400040913B0250913C0286B5A89B06C08F3F3D
:1034500021F02F5F3F4F4F4F5F4F9FBF542F432FA0
:10346000322F2227280F311D411D511D82E0220FCE
:10347000331F441F551F8A95D1F7B901CA0108951A
:10348000EF92FF920F931F93CF93DF937B018C01F9
:103490000E941A1AEB010EC00E941A1A6C1B7D0BB7
:1034A000685E7340C8F30894E108F1080109110946
:1034B000C851DC4FE114F1040105110569F7DF91F2
:1034C000CF911F910F91FF90EF900895789484B55C
:1034D000826084BD84B5816084BD85B5826085BD10
:1034E00085B5816085BDEEE6F0E0808181608083F6
:1034F000E1E8F0E0108280818260808380818160D9
:103500008083E0E8F0E0808181608083E1EBF0E09F
:10351000808184608083E0EBF0E080818160808343
:10352000EAE7F0E08081846080838081826080832C
:103530008081816080838081806880831092C10057
:103540000895CF93DF93482F50E0CA0182559F4FD3
:10355000FC01349146565F4FFA018491882369F14A
:1035600090E0880F991FFC01E458FF4FA591B4919A
:10357000FC01EA57FF4FC591D491662351F42FB750
:10358000F8948C91932F909589238C93888189232B
:103590000BC0623061F42FB7F8948C91932F909503
:1035A00089238C938881832B88832FBF06C09FB784
:1035B000F8948C91832B8C939FBFDF91CF910895CA
:1035C000833071F0843028F48130A1F0823021F50D
:1035D00014C08630B1F08730D1F08430E9F404C0F3
:1035E000809180008F7703C0809180008F7D8093D1
:1035F0008000089584B58F7702C084B58F7D84BD27
:1036000008958091B0008F778093B00008958091E5
:10361000B0008F7D8093B0000895FF920F931F93A9
:10362000F62E482F50E0CA018E539F4FFC01249183
:10363000CA0182559F4FFC01149146565F4FFA0113
:1036400004910023C9F0222319F0822F0E94E01A6E
:10365000E02FF0E0EE0FFF1FEA57FF4FA591B49166
:103660009FB7F894FF2021F48C911095812302C01C
:103670008C91812B8C939FBF1F910F91FF90089588
:103680000F931F93482F50E0CA018E539F4FFC01A8
:103690002491CA0182559F4FFC01049146565F4F09
:1036A000FA011491112319F420E030E015C022230F
:1036B00019F0822F0E94E01A812F90E0880F991F45
:1036C00080579F4FFC01A591B4918C9120E030E090
:1036D000802311F021E030E0C9011F910F9108957E
:1036E00008951F920F920FB60F9211242F933F93BC
:1036F0004F938F939F93EF93FF938091C00082FD30
:103700001DC04091C60020918202309183022F5F3C
:103710003F4F2F733070809184029091850228175B
:10372000390771F0E0918202F0918302EE5BFD4F68
:103730004083309383022093820202C08091C600AE
:10374000FF91EF919F918F914F913F912F910F900A
:103750000FBE0F901F901895E091D602F091D702FE
:10376000E05CFF4F8191919120813181821B930B0D
:103770008F739070892B11F00E94701B08951F9217
:103780000F920FB60F9211242F933F938F939F9315
:10379000EF93FF932091C6023091C7028091C80237
:1037A0009091C9022817390731F48091C1008F7DAB
:1037B0008093C10014C0E091C802F091C902EA5799
:1037C000FD4F20818091C8029091C90201968F73AC
:1037D00090709093C9028093C8022093C600FF9115
:1037E000EF919F918F913F912F910F900FBE0F906E
:1037F0001F901895AF92BF92DF92EF92FF920F93B6
:103800001F93CF93DF93EC017A018B01DD244030CD
:1038100081EE580780E0680780E0780711F0DD242A
:10382000D39491E0A92EB12CEC89FD89DD2069F0BB
:10383000C50108A002C0880F991F0A94E2F780838F
:1038400060E079E08DE390E005C0108260E874E804
:103850008EE190E0A80197010E940F1E2150304098
:1038600040405040569547953795279580E1203048
:10387000380720F0DD2011F0DD24D6CFE889F98962
:103880003083EA89FB89208319A2EE89FF89408170
:1038900021E030E0C9010C8C02C0880F991F0A9406
:1038A000E2F7482B4083EE89FF894081C9010D8CE6
:1038B00002C0880F991F0A94E2F7482B4083EE89D3
:1038C000FF894081C9010E8C02C0880F991F0A949C
:1038D000E2F7482B4083EE89FF8980810F8C02C07C
:1038E000220F331F0A94E2F7209528232083DF91CB
:1038F000CF911F910F91FF90EF90DF90BF90AF900D
:103900000895DC011C96ED91FC911D97E05CFF4F42
:103910002191319180819181281B390B2F73307057
:10392000C9010895DC011C96ED91FC911D97E05CA6
:10393000FF4F20813181E054F040DF01AE5BBF4F8B
:103940008D919C9111972817390719F42FEF3FEFAC
:1039500007C08D919C91E80FF91F8081282F30E0DE
:10396000C9010895DC011C96ED91FC911D97E05C66
:10397000FF4F20813181E054F040DF01AE5BBF4F4B
:103980008D919C9111972817390719F42FEF3FEF6C
:1039900010C08D919C911197E80FF91F20818D9196
:1039A0009C91119701968F73907011969C938E93B2
:1039B00030E0C9010895DC0191968C91919788239C
:1039C00039F05496ED91FC915597808186FFF9CF9F
:1039D00091961C920895CF93DF93EC01EE85FF85BD
:1039E000E05CFF4F20813181E054F0402F5F3F4F7A
:1039F0002F733070DF01AE5BBF4F8D919C9111979B
:103A000028173907D1F3E05CFF4F80819181E054A2
:103A1000F040E80FF91F6083EE85FF85E05CFF4F03
:103A200031832083EE89FF89208181E090E00F8C33
:103A300002C0880F991F0A94E2F7282B208381E0A7
:103A400089A3EC89FD8980818064808381E090E096
:103A5000DF91CF9108951092CD021092CC0288EEA2
:103A600093E0A0E0B0E08093CE029093CF02A093C9
:103A7000D002B093D10287E291E09093CB02809381
:103A8000CA0282E492E09093D7028093D60286E83D
:103A900092E09093D9028093D80285EC90E09093C5
:103AA000DB028093DA0284EC90E09093DD02809355
:103AB000DC0280EC90E09093DF028093DE0281ECE8
:103AC00090E09093E1028093E00282EC90E090938A
:103AD000E3028093E20286EC90E09093E50280930B
:103AE000E40284E08093E60283E08093E70287E0CB
:103AF0008093E80285E08093E90281E08093EA0206
:103B00000895CF93DF930E94661A0E947803CCEA4F
:103B1000DBE10E9482012097E1F30E94AC1BF9CF08
:103B2000CF92DF92EF92FF920F931F93CF93DF9389
:103B30007C016B018A01C0E0D0E00FC0D6016D911D
:103B40006D01D701ED91FC910190F081E02DC7014D
:103B50000995C80FD91F015010400115110571F7C3
:103B6000CE01DF91CF911F910F91FF90EF90DF90E9
:103B7000CF900895EF92FF920F931F93CF93DF930F
:103B80007C018B01C0E0D0E0F8010F5F1F4F649112
:103B9000662359F0D701ED91FC910190F081E02D61
:103BA000C7010995C80FD91FEFCFCE01DF91CF9183
:103BB0001F910F91FF90EF900895629FD001739F26
:103BC000F001829FE00DF11D649FE00DF11D929FB9
:103BD000F00D839FF00D749FF00D659FF00D9927F8
:103BE000729FB00DE11DF91F639FB00DE11DF91F1C
:103BF000BD01CF011124089597FB092E07260AD095
:103C000077FD04D02ED006D000201AF4709561956F
:103C10007F4F0895F6F7909581959F4F0895A1E203
:103C20001A2EAA1BBB1BFD010DC0AA1FBB1FEE1F36
:103C3000FF1FA217B307E407F50720F0A21BB30B81
:103C4000E40BF50B661F771F881F991F1A9469F7FD
:103C500060957095809590959B01AC01BD01CF0159
:103C60000895AA1BBB1B51E107C0AA1FBB1FA617C3
:103C7000B70710F0A61BB70B881F991F5A95A9F715
:103C800080959095BC01CD010895EE0FFF1F059022
:103C9000F491E02D0994CF93DF93BC01823091051C
:103CA00010F462E070E0A091EE02B091EF02ED013D
:103CB000E0E0F0E040E050E021C088819981861783
:103CC000970769F48A819B81309719F093838283E7
:103CD00004C09093EF028093EE02FE0134C0681797
:103CE000790738F44115510519F08417950708F440
:103CF000AC01FE018A819B819C01E9012097E9F6D4
:103D000041155105A9F1CA01861B970B049708F4C8
:103D1000BA01E0E0F0E02AC08D919C9111978417E0
:103D20009507F9F46417750781F412968D919C91AB
:103D30001397309719F09383828304C09093EF0216
:103D40008093EE02FD0132964FC0CA01861B970B8D
:103D5000FD01E80FF91F6193719302978D939C9376
:103D600043C0FD01828193819C01D9011097A1F686
:103D70008091EC029091ED02892B41F48091060133
:103D8000909107019093ED028093EC02409108011D
:103D9000509109014115510541F44DB75EB780912D
:103DA000040190910501481B590B2091EC023091C0
:103DB000ED0224173507B0F4CA01821B930B861756
:103DC000970780F0AB014E5F5F4F8417950750F067
:103DD000420F531F5093ED024093EC02F90161939F
:103DE000719302C0E0E0F0E0CF01DF91CF91089540
:103DF000CF93DF93009709F450C0EC0122971B8208
:103E00001A82A091EE02B091EF02109709F140E002
:103E100050E0AC17BD0708F1BB83AA83FE012191D6
:103E20003191E20FF31FAE17BF0779F48D919C918A
:103E30001197280F391F2E5F3F4F39832883129621
:103E40008D919C9113979B838A834115510571F441
:103E5000D093EF02C093EE0220C012968D919C91F8
:103E60001397AD01009711F0DC01D3CFFA01D38392
:103E7000C28321913191E20FF31FCE17DF0769F45E
:103E800088819981280F391F2E5F3F4FFA013183B6
:103E900020838A819B8193838283DF91CF910895D0
:103EA000DC0101C06D9341505040E0F70895F89453
:023EB000FFCF42
:103EB2003F0D0A002000F0020000010018FCFFFF85
:103EC20001010100000000D504A4042C0435044AB9
:103ED200045B0400000000EB1C901D811CB21C92CC
:043EE2001CDB1C00C9
:00000001FF
