:100000000C9477000C94E20D0C940F0E0C949F004E
:100010000C949F000C949F000C949F000C949F00E4
:100020000C949F000C949F000C949F000C949F00D4
:100030000C949F000C949F000C949F000C949F00C4
:100040000C943C0E0C94B3000C946E100C94B510F0
:100050000C949F000C949F000C949F000C949F00A4
:100060000C94100C0C949F00486F6C696461794487
:1000700075696E6F30382D313600486F6C69646178
:10008000794475696E6F30382D31360000000000FC
:10009000240027002A0000000000250028002B0073
:1000A00000000000230026002900040404040404C6
:1000B0000404020202020202030303030303010217
:1000C00004081020408001020408102001020408E6
:1000D00010200000000700020100000304060000D9
:1000E0000000000000001801000A870AF211112424
:1000F0001FBECFEFD8E0DEBFCDBF11E0A0E0B1E082
:10010000E2EDFBE202C005900D92A834B107D9F7E9
:1001100016E0A8E4B1E001C01D92AC31B107E1F7EF
:1001200010E0CEEED0E004C02297FE010E94E3155D
:10013000C63ED107C9F70E9448120C94E7150C94EB
:100140000000DC0101C06D9341505040E0F708957C
:10015000FC01A081B1812D913C91F901099508958F
:1001600081E0089508951F920F920FB60F92112407
:100170002F933F934F935F936F938F939F93EF933F
:10018000FF936EB540915A0450915B042091030196
:1001900030910401C901880F991F820F931F4817DE
:1001A0005907A0F480915A0490915B04E0913604C1
:1001B000F0913704E80FF91F608380915A04909101
:1001C0005B04019690935B0480935A04FF91EF9136
:1001D0009F918F916F915F914F913F912F910F90D0
:1001E0000FBE0F901F901895FC01549A80E18283F6
:1001F0008BE290E0948383830895DF93CF9300D0C4
:100200000F92CDB7DEB7DC01AB01ED91FC9106801A
:10021000F781E02D19821A821B82BE016F5F7F4F2A
:1002200020E009950F900F900F90CF91DF910895E6
:1002300008950E94840E9B01AC0120930701309326
:1002400008014093090150930A0108958091030128
:1002500090910401892B09F4A8C082E00E941A1031
:10026000892B81F580915D04882309F09EC010924E
:100270005B0410925A048CB58F7B8CBD8CB5806466
:100280008CBD0E94840E20914E0430914F042115A4
:10029000310529F428EC30E040E050E002C040E0B5
:1002A00050E0260F371F481F591F209356043093E4
:1002B0005704409358045093590488E060E00E942A
:1002C000C60F089540915A0450915B042091030198
:1002D00030910401C901880F991F820F931F48179D
:1002E000590740F580915A0490915B048639910535
:1002F00008F5809139048823E9F44FC0E091360471
:10030000F0913704A0915A04B0915B0480915A0493
:1003100090915B04AE0FBF1FE80FF91F33978081E8
:100320008C9380915A0490915B04019690935B04A6
:1003300080935A0440915A0450915B042091030128
:1003400030910401C901880F991F820F931F48172C
:100350005907A0F281E080935C040E94840E2091F2
:100360004E0430914F042115310529F428EC30E07A
:1003700040E050E002C040E050E0260F371F481F29
:10038000591F2093560430935704409358045093B8
:10039000590481E080935D04089510925B041092EB
:1003A0005A0488E061E00E94C60F08958EE48093AD
:1003B0007C0062E070E080E090E00E94FD0E8091A1
:1003C0007A00806480937A0080917A0086FDFCCF69
:1003D0008091780090E0A0E0B0E060917900362F45
:1003E00020E0442737FD4095542F282B392B4A2BEA
:1003F0005B2B60E070E381E190E00E94C615CA01CA
:10040000B90108950F931F938C018FEE94E060E57E
:1004100070E00E941C0A612F772767FD7A958FEEA6
:1004200094E00E94CF0A10708FEE94E0602F0E943B
:10043000CF0A8FEE94E00E94120B8FEE94E060E5FD
:1004400070E041E050E00E94230B8FEE94E00E94A8
:10045000260A892B11F480E004C08FEE94E00E94FC
:100460002F0A1F910F910895DF92EF92FF920F9341
:100470001F938C01D62E9FEEE92E94E0F92EC70132
:1004800060E570E00E941C0A612F772767FD7A956E
:10049000C7010E94CF0A1070C701602F0E94CF0AC7
:1004A000C7016D2D0E94CF0AC7010E94120B65E0A3
:1004B00070E080E090E00E94FD0E1F910F91FF9090
:1004C000EF90DF9008950F931F93CF93DF93182F32
:1004D0008F3339F486E795E068E670E00E94CF122A
:1004E0007CC18B3519F08D3581F407C08FEE94E017
:1004F00068E070E00E94460B04C08FEE94E00E941A
:10050000270B86E795E0612F66C1813491F48091D5
:1005100051048370825F60E00E94870F80915104D4
:1005200083700E94650F8091510483700E94650F53
:10053000BEC0823499F585E00E941A108C0186E0D5
:100540000E941A10892B19F0C0E0D0E002C0C2E06E
:10055000D0E087E00E941A10892B19F020E030E0EB
:1005600002C024E030E060E070E0012B11F461E0B3
:1005700070E080913B0490E044E0880F991F4A9519
:10058000E1F7682B792B6C2B7D2B622B732B86E785
:1005900095E04AE050E00E9419141FC18334D9F459
:1005A00080915004823069F460910501809151047A
:1005B0009091520470E00E949015609153040E9443
:1005C000340260910501809151049091520470E0D1
:1005D0000E9490151DC0843429F520913A0430E022
:1005E0008091500490E028233923232B79F06091E7
:1005F00051047091520480913D0490E0681779078E
:1006000008F060E085E090E00E94340285E090E030
:100610000E940202682F86E795E04AE050E00E94BF
:10062000A713DBC08534A1F480915004882359F0CE
:10063000109238048091510490915204892B19F042
:1006400081E08093380460E070E08091380492C0CB
:10065000873469F4809151048370825F61E00E9465
:10066000870F809151048370825F60E00EC08834F0
:1006700079F4809151048370825F61E00E94870F5A
:10068000809151048370825F61E00E94C60F09C0AF
:10069000893479F4809151048370825F60E00E9414
:1006A000870F809151048370825F0E941A10BC01F1
:1006B0006ECF8C34F1F4809150048823A9F080919E
:1006C0003A04882389F060915104709152046B3F81
:1006D000710510F06AEF70E07093040160930301FC
:1006E00083E090E00E943402609103017091040164
:1006F00066C0803569F480915004882321F0809190
:10070000510480933C0486E795E060913C0485CFDA
:100710008235D9F480915004823059F4E09151042B
:10072000F0915204EF70F070E25CFB4F8091530443
:100730008083E0915104F0915204EF70F070E25C1C
:10074000FB4F86E795E0608168CF8435C9F48091DE
:100750005004882359F010923904809151049091EB
:100760005204892B19F081E08093390460E070E035
:1007700080913904882309F40ACF61E070E007CF43
:10078000863559F40E94D601AB01BC0186E795E09D
:100790002AE030E00E94051420C08735B9F480912A
:1007A0005004882341F08091510490915204909319
:1007B0004F0480934E0460914E0470914F0486E77D
:1007C00095E04AE050E00E948A1307C080322CF086
:1007D00086E795E06FE30E94E312DF91CF911F91CE
:1007E0000F9108950F931F93CF93DF9386E795E0C2
:1007F00040E052EC61E070E00E94E51085E062E0CC
:100800000E94870F86E062E00E94870F87E062E027
:100810000E94870F88E061E00E94870F88E061E016
:100820000E94C60F8CE061E00E94870F8CB5806447
:100830008CBD85E00E941A10892B29F480913B041D
:100840008F5F80933B0486E00E941A10892B29F465
:1008500080913B048E5F80933B0487E00E941A10D6
:10086000892B29F480913B048C5F80933B048FEEAD
:1008700094E00E94270B80E090E00E9402028836FC
:1008800039F581E090E00E940202813009F5809301
:100890003A0482E090E00E94020290E0880F991FE3
:1008A000880F991F8093050183E090E00E94020267
:1008B000809303011092040184E090E00E94020200
:1008C00080933D0485E090E00E94020280933C0406
:1008D000C0910301D09104012097D1F0009126012D
:1008E0001091270189E090E00E945712FC011582C7
:1008F00016821782108686E191E091838083C80179
:10090000BF0148E451E09E0100E010E00E945D0953
:1009100088E491E0909337048093360410925B044E
:1009200010925A0410925D0480E066E271E041E0AA
:1009300050E00E94BF0D81E069E171E042E050E0CB
:100940000E94BF0D8CB580688CBD86E795E06AE794
:1009500070E00E94CF12DF91CF911F910F91089507
:100960000F931F938C010E94920E9B01AC01F80122
:1009700080819181A281B381281B390B4A0B5B0BCB
:10098000223331054105510534F482E390E0821BA6
:10099000930B0E94B80E1F910F910895CF92DF9292
:1009A000EF92FF920F931F93CF93DF936C01162F5B
:1009B000072FEA01E22E05960E94B004F894212F39
:1009C000302FC901FC01BE01660F771F6C0F7D1F20
:1009D000680F791F5BB150618BB18F7E8BB921811C
:1009E0003E2D239F212DE4C095E05BB90014001437
:1009F00000140014001427FF8BB900140014001415
:100A0000001400148BB900140014220F915069F7E0
:100A100000145BB90014001400140014001427FF24
:100A20008BB9001400140014001400148BB90014C6
:100A3000001400140014001400145BB90014001416
:100A400000140014001426FF8BB9001400140014C5
:100A5000001400148BB940813E2D439F412D5BB99A
:100A60000014001400140014001425FF8BB90014A6
:100A700000140014001400148BB9001400140014A6
:100A80000014001495E05BB9001400140014001465
:100A9000001447FF8BB90014001400140014001454
:100AA0008BB900140014440F915069F700145BB91E
:100AB0000014001400140014001447FF8BB9001434
:100AC00000140014001400148BB900140014001456
:100AD0000014001400145BB9001400140014001476
:100AE000001446FF8BB90014001400140014001405
:100AF0008BB932812E2D329F312D5BB90014001439
:100B000000140014001445FF8BB9001400140014E5
:100B1000001400148BB90014001400140014001405
:100B200095E05BB90014001400140014001437FFA2
:100B30008BB9001400140014001400148BB90014B5
:100B40000014330F915069F700145BB900140014BE
:100B500000140014001437FF8BB9001400140014A3
:100B6000001400148BB90014001400140014339600
:100B70005BB90014001400140014001436FF8BB984
:100B8000001400140014001400148BB921814E2DA0
:100B9000249F212D5BB900140014001400140014CC
:100BA00035FF8BB9001400140014001400148BB925
:100BB000E617F70708F418CF1124E0907105F090BC
:100BC00072050091730510917405BE01F5E0660F82
:100BD000771FFA95E1F7CC0FDD1F6C1B7D0B882783
:100BE00077FD8095982F28EE33E040E050E00E949A
:100BF000C615E20EF31E041F151FE0927105F09258
:100C00007205009373051093740578940E94920EF8
:100C1000F6016583768387839087DF91CF911F915B
:100C20000F91FF90EF90DF90CF900895CF92DF92D9
:100C3000EF92FF920F931F93CF93DF936C018B0181
:100C4000EA01E22E05960E94B004F894BE01660FF8
:100C5000771F6C0F7D1F600F711F5BB150618BB1EF
:100C60008F7E8BB9D8011196FC902F2D3E2D239F9E
:100C7000212DF801EAC095E05BB9001400140014BE
:100C80000014001427FF8BB9001400140014001482
:100C900000148BB900140014220F915069F700144E
:100CA0005BB90014001400140014001427FF8BB962
:100CB000001400140014001400148BB90014001464
:100CC00000140014001400145BB900140014001484
:100CD0000014001426FF8BB9001400140014001433
:100CE00000148BB9D8014C9100143E2D439F412D27
:100CF0005BB90014001400140014001425FF8BB914
:100D0000001400140014001400148BB90014001413
:100D100000140014001495E05BB9001400140014D2
:100D20000014001447FF8BB90014001400140014C1
:100D300000148BB900140014440F915069F700148B
:100D40005BB90014001400140014001447FF8BB9A1
:100D5000001400140014001400148BB900140014C3
:100D600000140014001400145BB9001400140014E3
:100D70000014001446FF8BB9001400140014001472
:100D800000148BB9D80112963C9100142E2D329F7D
:100D9000312D5BB90014001400140014001445FF39
:100DA0008BB9001400140014001400148BB9001443
:100DB000001400140014001495E05BB90014001432
:100DC00000140014001437FF8BB900140014001431
:100DD000001400148BB900140014330F915069F7FC
:100DE00000145BB90014001400140014001437FF41
:100DF0008BB9001400140014001400148BB90014F3
:100E000000140014001433965BB90014001400148D
:100E10000014001436FF8BB90014001400140014E1
:100E200000148BB900142F2D4E2D249F212D5BB95A
:100E30000014001400140014001435FF8BB90014C2
:100E400000140014001400148BB9E617F70708F417
:100E500012CF1124E0907105F09072050091730596
:100E600010917405BE0185E0660F771F8A95E1F742
:100E7000CC0FDD1F6C1B7D0B882777FD8095982F8D
:100E800028EE33E040E050E00E94C615E20EF31E6B
:100E9000041F151FE0927105F0927205009373050F
:100EA0001093740578940E94920ED60115966D9356
:100EB0007D938D939C931897DF91CF911F910F9104
:100EC000FF90EF90DF90CF9008951F93182F682F19
:100ED00062956F7060636A330CF0695D772767FD18
:100EE000709586E795E00E94B611612F6F70606380
:100EF0006A330CF0695D772767FD709586E795E0AA
:100F00000E94B6111F910895EF92FF920F931F93C5
:100F1000CF93DF9386E795E00E946C11892B09F44B
:100F20006FC081E080935C040E94840E20914E0487
:100F300030914F0440E050E0260F371F481F591FE3
:100F40002093560430935704409358045093590407
:100F500086E795E00E948811182F80913804882335
:100F600029F086E795E0612F0E94A712812F805318
:100F70008A3028F580915004882319F481E0809309
:100F80005004E0915004F0E0EE0FFF1FE15BFB4FD7
:100F9000808191819C0153E0220F331F5A95E1F724
:100FA000880F991F280F391F20533040812F992710
:100FB00087FD9095280F391F3183208321C01C3273
:100FC000B1F480915004823090F4882319F481E0C8
:100FD00080935004E0915004EF5FE0935004F0E000
:100FE000EE0FFF1FE15BFB4F1182108209C0812FC2
:100FF0000E94630210925004109252041092510405
:1010000080915C04882309F0D0C0E0905604F090F1
:10101000570400915804109159040E94840E6E15D3
:101020007F058007910708F4C0C08091030190916B
:101030000401FC01EE0FFF1FE80FF91F28E431E067
:10104000C90160E070E0AF010E94A100E0900701DB
:10105000F09008010091090110910A010E94840E8C
:1010600028EE33E040E050E0E20EF31E041F151FAF
:10107000E616F7060807190720F48FE38093480166
:1010800003C08FE380934A0185E00E941A10892BE8
:1010900029F480914A01815C80934A0186E00E9494
:1010A0001A10892B29F480914A01815C80934A01AE
:1010B00087E00E941A10892B29F480914A01815CF3
:1010C00080934A0180915504282F30E023703070BE
:1010D0002130310591F022303105E1F08091060197
:1010E000232B21F590E0FC01EE0FFF1FE80FF91F05
:1010F000E85BFE4F8FEF808325C08091060190E072
:10110000FC01EE0FFF1FE80FF91FE85BFE4F8FEFAA
:10111000818318C08091060190E0FC01EE0FFF1F53
:10112000E80FF91FE85BFE4F8FEF0BC090E0FC016A
:10113000EE0FFF1FE80FF91FE85BFE4F8FEF808374
:10114000818382838091030190910401892B51F066
:10115000E0912401F0912501CF01EE5BFF4F60810A
:101160000E94B209809106018F5F8093060190E092
:1011700020910301309104018217930740F081E030
:1011800080930601809155048F5F809355040E94DF
:10119000840E6E5C7F4F8F4F9F4F60935604709309
:1011A0005704809358049093590480915D048823D8
:1011B00009F461C080913904882309F446C0C0E075
:1011C000D0E011C0209729F086E795E06CE20E94FC
:1011D000A712E0913604F0913704EC0FFD1F8081D7
:1011E0000E946507219680915A0490915B04C8176C
:1011F000D90740F386E795E060E071E00E9438147B
:1012000014C080915A0490915B04E0913604F091EF
:101210003704E80FF91F108280915A0490915B0403
:10122000019690935B0480935A0440915A04509124
:101230005B042091030130910401C901880F991FBB
:10124000820F931F48175907E0F280910301909194
:101250000401892B51F0E0912401F0912501CF0187
:10126000EE5BFF4F60810E94B20910925D0488E03E
:1012700061E00E94C60F80914E0490914F04892B2B
:10128000A9F080915C04882389F0E0905604F090E6
:10129000570400915804109159040E94840E6E1551
:1012A0007F058007910710F010925C04DF91CF91C9
:1012B0001F910F91FF90EF900895DF92EF92FF92B0
:1012C0000F931F93CF93DF93EC017B011016110650
:1012D0002CF0D22E032F20E030E002C0D02E012FC0
:1012E000C05CDF4FA881B981C054D040FE0160E0EE
:1012F00070E007C0808191813896892B41F06F5F43
:101300007F4F6A177B07B4F3EE24FF2422C0E3E08B
:10131000660F771FEA95E1F7DE01A60FB71F11965A
:10132000FC92EE92FE01E60FF71F5383428317965D
:101330003C932E931697FB013496EC0FFD1FD08241
:101340000183D701ED91FC910190F081E02DC7015F
:101350000995C701DF91CF911F910F91FF90EF90F9
:10136000DF900895DF92EF92FF920F931F93CF9338
:10137000DF93D62EEC0100E010E050E4E52EF12CD6
:10138000E80EF91E1DC0A881B9811097F9F0ED9102
:10139000FC9111972E813F81C901880F991F820FFF
:1013A000931F6A817B81680F791F4C815D81008466
:1013B000F185E02DCD012D2D09950F5F1F4F28964A
:1013C000F7018081918108171907ECF2DF91CF9125
:1013D0001F910F91FF90EF90DF900895FC01E05C6A
:1013E000FF4F88E090E0819391938FEF8083E254E8
:1013F000F040CF0160E040E450E00E94110A0895FF
:101400008EE594E00E94EE098CE19AEFAFEFBFEF1A
:101410008093A1049093A204A093A304B093A40486
:101420000895DC0140FF03C001C06D936D934250ED
:10143000E0F75040D0F7089581E08093EA0460938C
:10144000C7041092E8041092E90408952091C6049C
:1014500030E08091C504281B3109C90108954091ED
:10146000C5048091C604481718F02FEF3FEF0AC05B
:10147000E42FF0E0EB55FB4F8081282F30E04F5FE9
:101480004093C504C9010895E091C5048091C60444
:10149000E81718F0EFEFFFEF06C0F0E0EB55FB4F59
:1014A0008081E82FF0E0CF0108950895AC012091EC
:1014B000ED043091EE0421153105E1F09091C50461
:1014C0008091C6049817B0F090E008C0FA01EA0FC6
:1014D000FB1F8081AB55BB4F8C939F5FA92FB0E062
:1014E000A617B7079CF31092C5046093C604CB01FE
:1014F000F90109950895E091EB04F091EC0430971F
:1015000029F01092E8041092E904099508951092C8
:10151000F2041092F10488EE93E0A0E0B0E0809332
:10152000F3049093F404A093F504B093F6048CE2D2
:1015300091E09093F0048093EF040895CF92DF92AE
:10154000EF92FF920F931F93CF93DF937C016B0178
:101550008A018091EA048823A1F0C0E0D0E00DC0A8
:10156000D701ED91FC91D601AC0FBD1F0190F08128
:10157000E02DC7016C9109952196C017D10780F322
:1015800004C0CB01642F0E94EB0BC801DF91CF9107
:101590001F910F91FF90EF90DF90CF900895DF9310
:1015A000CF930F92CDB7DEB7FC0169838091EA0437
:1015B0008823C9F08091E904803238F081E090E01E
:1015C0009383828320E030E015C08091E804E82F07
:1015D000F0E0E853FB4F998190838F5F8093E8049C
:1015E0008093E90405C0CE01019661E00E94EB0BF7
:1015F00021E030E0C9010F90CF91DF9108950F9362
:10160000062F8091C70468EC74E04091E90421E062
:101610000E94960B1092E8041092E9041092EA04DA
:101620000F91089561E00E94FF0A0895413208F089
:1016300040E2862F65EA74E00E944D0B1092C504CB
:101640008093C604089521E00E94160B089510921D
:10165000C5041092C6041092E8041092E9040E9496
:10166000A10D08950F931F938C01862F0E94490BA3
:101670008BE79AE00E940B0C86E59AE00E94060C2C
:10168000C8010E94270B1F910F9108950E94320BF1
:101690000895880F8093BA000895382F413210F0D2
:1016A00040E042C08091FB048823E1F791E09093F1
:1016B000FB042093FD048FEF8093680510922305AF
:1016C0004150409324054F5F9093FC048091FC04AB
:1016D000330F832B8093FC048091FE04813041F40E
:1016E0001092FE048091FC048093BB0085EC01C045
:1016F00085EE8093BC008091FB048130E1F3809102
:101700002305841710F44091230520E030E00AC03F
:10171000FB01E20FF31FD901AD5FBA4F8C918083BB
:101720002F5F3F4F2417A0F3842F08950F931F932B
:10173000582F122F413210F081E04AC08091FB04F3
:101740008823E1F782E08093FB040093FD048FEF90
:10175000809368051092230540932405A3E0B5E02B
:10176000FB0102C081918D938E2F861B8417D0F3CD
:101770001092FC048091FC04550F852B8093FC048F
:101780008091FE04813041F41092FE048091FC04AB
:101790008093BB0085EC01C085EE8093BC001123D3
:1017A00021F08091FB048230E1F3809168058F3F46
:1017B00011F480E00DC080916805803211F482E060
:1017C00007C080916805803311F084E001C083E098
:1017D0001F910F910895482F613210F081E0089514
:1017E0008091FB04843011F082E0089560934605F7
:1017F000A5E2B5E0842F9C01F90102C081918D938F
:101800008E2F841B8617D0F380E0089590930205F5
:10181000809301050895909300058093FF04089537
:101820001F920F920FB60F9211242F933F934F9355
:101830005F936F937F938F939F93AF93BF93EF9338
:10184000FF938091B90090E0887F90708036910579
:1018500009F4F2C081369105CCF58832910509F47E
:101860007BC089329105B4F48031910509F46FC0D1
:10187000813191053CF4009709F447C1089709F0BC
:101880004FC165C08831910509F466C0809709F0A1
:1018900047C182C08034910509F4A4C08134910508
:1018A00044F48033910509F482C0C89709F038C127
:1018B00089C08035910509F489C08835910509F4FE
:1018C00096C08834910509F02BC1AEC088399105C6
:1018D00009F413C189399105ECF48837910509F4AD
:1018E000ABC0893791054CF48836910509F4A4C042
:1018F0008037910509F014C19FC08838910509F41B
:10190000FCC08039910509F49DC08038910509F02B
:1019100007C198C0803B910509F4C6C0813B910581
:101920004CF4803A910509F49FC0883A910509F07A
:10193000F7C0BAC0803C910509F4E3C0883C91052A
:1019400009F4DFC0883B910509F0EAC0C2C080916C
:10195000FC048093BB00CFC09091230580912405A7
:10196000981768F490912305E92FF0E0ED5FFA4FA6
:1019700080818093BB009F5F90932305BCC08091C2
:10198000FD04882309F44BC085ED8093BC00809151
:10199000BC0084FDFCCFC2C080E28093680585ED69
:1019A0008093BC008091BC0084FDFCCFB7C080E375
:1019B0008093680585ED8093BC008091BC0084FD18
:1019C000FCCFACC088E3809368059BC08091230561
:1019D0009091BB00E82FF0E0ED5FFA4F90838F5FAE
:1019E00080932305909123058091240582C08091E6
:1019F00023059091BB00E82FF0E0ED5FFA4F908354
:101A00008F5F809323058091FD04882341F085ED4D
:101A10008093BC008091BC0084FDFCCF7FC081E03E
:101A20008093FE0484EA6EC085ED8093BC008091B3
:101A3000BC0084FDFCCF72C083E08093FB04109255
:101A4000670559C080916705803208F056C08091C3
:101A500067059091BB00E82FF0E0E95BFA4F9083B7
:101A60008F5F8093670547C080916705803230F4AF
:101A7000E0916705F0E0E95BFA4F108285ED809315
:101A8000BC008091BC0084FDFCCF1092FB046091EF
:101A90006705E0910105F091020587E495E070E0AB
:101AA0000995109267052DC084E08093FB04109285
:101AB000450510924605E091FF04F0910005099557
:101AC00080914605882329F481E080934605109291
:101AD000250590914505E92FF0E0EB5DFA4F8081F7
:101AE0008093BB009F5F9093450590914505809141
:101AF0004605981710F485EC01C085E88093BC007A
:101B00000FC085EC8093BC0009C01092680585ED7C
:101B10008093BC008091BC0084FDFCCF1092FB043C
:101B2000FF91EF91BF91AF919F918F917F916F91B5
:101B30005F914F913F912F910F900FBE0F901F908B
:101B400018951092FB0481E08093FD041092FE042E
:101B500082E161E00E94C60F83E161E00E94C60F4E
:101B6000E9EBF0E080818E7F808380818D7F8083B0
:101B700088E48093B80085E48093BC0008958230A7
:101B800000F5E82FF0E0EE0FFF1FE759FA4F7183E1
:101B90006083882319F08130A1F408C08091690026
:101BA0008C7F842B80936900E89A08958091690066
:101BB000440F551F440F551F837F842B809369006A
:101BC000E99A08951F920F920FB60F9211242F9346
:101BD0003F934F935F936F937F938F939F93AF93B5
:101BE000BF93EF93FF938091690590916A05892BCC
:101BF00029F0E0916905F0916A050995FF91EF914F
:101C0000BF91AF919F918F917F916F915F914F9114
:101C10003F912F910F900FBE0F901F9018951F921C
:101C20000F920FB60F9211242F933F934F935F9310
:101C30006F937F938F939F93AF93BF93EF93FF9394
:101C400080916B0590916C05892B29F0E0916B05D3
:101C5000F0916C050995FF91EF91BF91AF919F9124
:101C60008F917F916F915F914F913F912F910F9045
:101C70000FBE0F901F9018951F920F920FB60F92E4
:101C800011242F933F938F939F93AF93BF93809192
:101C9000710590917205A0917305B0917405309112
:101CA00075050196A11DB11D232F2D5F2D3720F045
:101CB0002D570196A11DB11D2093750580937105C7
:101CC00090937205A0937305B093740580916D0590
:101CD00090916E05A0916F05B09170050196A11DC0
:101CE000B11D80936D0590936E05A0936F05B09321
:101CF0007005BF91AF919F918F913F912F910F9060
:101D00000FBE0F901F9018958FB7F8942091710512
:101D10003091720540917305509174058FBFB901E0
:101D2000CA0108959FB7F89420916D0530916E0512
:101D300040916F055091700586B5A89B06C08F3FF6
:101D400021F02F5F3F4F4F4F5F4F9FBF542F432FC7
:101D5000322F2227280F311D411D511D82E0220FF5
:101D6000331F441F551F8A95D1F7B901CA01089541
:101D7000019739F0880F991F880F991F02970197D3
:101D8000F1F70895789484B5826084BD84B581604C
:101D900084BD85B5826085BD85B5816085BDEEE673
:101DA000F0E0808181608083E1E8F0E01082808152
:101DB00082608083808181608083E0E8F0E08081C0
:101DC00081608083E1EBF0E0808184608083E0EBE0
:101DD000F0E0808181608083EAE7F0E080818460C8
:101DE0008083808182608083808181608083808124
:101DF000806880831092C1000895EF92FF920F9344
:101E00001F93CF93DF937B018C013FB7F8948091B0
:101E10006D0590916E05A0916F05B091700526B586
:101E2000A89B05C02F3F19F00196A11DB11D3FBF12
:101E3000BA2FA92F982F8827820F911DA11DB11DA0
:101E400052E0880F991FAA1FBB1F5A95D1F7EC01CA
:101E500030C00E9470153FB7F89480916D05909145
:101E60006E05A0916F05B091700526B5A89B05C0C1
:101E70002F3F19F00196A11DB11D3FBFBA2FA92F09
:101E8000982F8827820F911DA11DB11D32E0880F68
:101E9000991FAA1FBB1F3A95D1F78C1B9D0B885E1B
:101EA0009340B8F20894E108F10801091109C851FA
:101EB000DC4FE114F1040105110559F6DF91CF91D2
:101EC0001F910F91FF90EF900895982F8E3008F09A
:101ED0009E50977080910B018295880F880F807CAF
:101EE000892B80937C0080917A00806480937A00B3
:101EF00080917A0086FDFCCF209178004091790096
:101F0000942F80E030E0282B392BC9010895CF931E
:101F1000DF93482F50E0CA0182549F4FFC01349157
:101F200046555F4FFA018491882369F190E0880F4C
:101F3000991FFC01E457FF4FA591B491FC01EA56AB
:101F4000FF4FC591D491662351F42FB7F8948C912B
:101F5000932F909589238C93888189230BC06230BD
:101F600061F42FB7F8948C91932F909589238C93DB
:101F70008881832B88832FBF06C09FB7F8948C91EC
:101F8000832B8C939FBFDF91CF910895482F50E012
:101F9000CA018E529F4FFC012491CA0182549F4F67
:101FA000FC01949146555F4FFA013491332309F4B3
:101FB00040C0222351F1233071F0243028F4213025
:101FC000A1F0223011F514C02630B1F02730C1F055
:101FD0002430D9F404C0809180008F7703C08091B1
:101FE00080008F7D8093800010C084B58F7702C001
:101FF00084B58F7D84BD09C08091B0008F7703C008
:102000008091B0008F7D8093B000E32FF0E0EE0F61
:10201000FF1FEA56FF4FA591B4912FB7F89466239E
:1020200021F48C919095892302C08C91892B8C93FB
:102030002FBF0895682F70E0CB018E529F4FFC0197
:102040002491CB0182549F4FFC01449166557F4FF0
:10205000FB019491992319F420E030E03CC0222345
:1020600051F1233071F0243028F42130A1F02230D6
:1020700011F514C02630B1F02730C1F02430D9F466
:1020800004C0809180008F7703C0809180008F7D95
:102090008093800010C084B58F7702C084B58F7D97
:1020A00084BD09C08091B0008F7703C08091B000DB
:1020B0008F7D8093B000892F90E0880F991F805604
:1020C0009F4FFC01A591B4918C9120E030E08423D6
:1020D00011F021E030E0C901089508951F920F9298
:1020E0000FB60F9211242F933F934F938F939F938B
:1020F000EF93FF938091C00082FD19C04091C6000C
:1021000080919405282F30E02F5F3F4F2F73307060
:102110008091950590E02817390759F0E0919405D2
:10212000F0E0EA58FA4F42A32093940502C0809150
:10213000C600FF91EF919F918F914F913F912F9109
:102140000F900FBE0F901F901895809194052091CD
:10215000950590E0805C9F4F821B91098F73907072
:10216000892B11F00E946D1008951F920F920FB6E7
:102170000F9211242F938F939F93EF93FF9390913E
:10218000960580919705981731F48091C1008F7D55
:102190008093C10010C0E0919705F0E0E852FA4F3B
:1021A00020818091970590E001968F7390708093C5
:1021B00097052093C600FF91EF919F918F912F91EA
:1021C0000F900FBE0F901F901895AF92BF92DF92A5
:1021D000EF92FF920F931F93CF93DF93EC017A015D
:1021E0008B01DD24403081EE580780E0680780E0F5
:1021F000780711F0DD24D39491E0A92EB12CE88961
:10220000F989DD2069F0C5010C8C02C0880F991F87
:102210000A94E2F7808360E079E08DE390E005C006
:10222000108260E874E88EE190E0A80197010E94B6
:10223000A415215030404040504056954795379561
:10224000279580E12030380720F0DD2011F0DD24D3
:10225000D6CFEC85FD853083EE85FF8520831D8EEE
:10226000EA89FB89408121E030E0C901088C02C085
:10227000880F991F0A94E2F7482B4083EA89FB896B
:102280004081C901098C02C0880F991F0A94E2F7A6
:10229000482B4083EA89FB894081C9010A8C02C02E
:1022A000880F991F0A94E2F7482B4083EA89FB893B
:1022B00080810B8C02C0220F331F0A94E2F7209515
:1022C00028232083DF91CF911F910F91FF90EF90F2
:1022D000DF90BF90AF900895FC01268D878D30E090
:1022E000205C3F4F281B31092F733070C9010895BE
:1022F000FC01968D878D981719F42FEF3FEF06C0DC
:10230000878DE80FF11D82A1282F30E0C9010895C3
:10231000DC015E969C915E975F968C915F97981713
:1023200019F42FEF3FEF10C05F968C915F97FD017E
:10233000E80FF11D92A15F968C915F978F5F8F736D
:102340005F968C93292F30E0C9010895DC015D96DA
:102350008C915D97882339F05096ED91FC915197BF
:10236000808186FFF9CF5D961C920895DC019096DE
:102370008C919097282F30E02F5F3F4F2F73307054
:1023800091968C91919790E028173907C9F3909610
:102390008C919097FD01E80FF11DEE59FF4F60837E
:1023A00090962C9390975296ED91FC9153972081A3
:1023B00081E090E05B960C905B9702C0880F991FBC
:1023C0000A94E2F7282B208381E05D968C935D9739
:1023D0005096ED91FC91519780818064808381E0DB
:1023E00090E00895109279051092780588EE93E0B8
:1023F000A0E0B0E080937A0590937B05A0937C05E4
:10240000B0937D058CE391E09093770580937605FA
:1024100010929705809197058093960510929505E7
:10242000809195058093940585EC90E090938305C9
:102430008093820584EC90E09093850580938405D9
:1024400080EC90E0909387058093860581EC90E086
:10245000909389058093880582EC90E090938B059A
:1024600080938A0586EC90E090938D0580938C058F
:1024700084E080938E0583E080938F0587E08093CE
:10248000900585E08093910581E080939205089501
:10249000CF93DF930E94C20E0E94F203C5EAD0E1FF
:1024A0000E9484072097E1F30E94A510F9CF0E94B3
:1024B0003B140895CF92DF92EF92FF920F931F93F8
:1024C000CF93DF937C016B018A01C0E0D0E00FC0A5
:1024D000D6016D916D01D701ED91FC910190F081D4
:1024E000E02DC7010995C80FD91F015010400115F3
:1024F000110571F7CE01DF91CF911F910F91FF90E0
:10250000EF90DF90CF900895EF92FF920F931F937B
:10251000CF93DF937C018B01C0E0D0E0F8010F5F27
:102520001F4F6491662359F0D701ED91FC91019002
:10253000F081E02DC7010995C80FD91FEFCFCE015B
:10254000DF91CF911F910F91FF90EF900895DC01E3
:10255000ED91FC910190F081E02D09950895EF92A5
:10256000FF920F931F938C01DC01ED91FC91019080
:10257000F081E02D6DE009957C01D801ED91FC9191
:102580000190F081E02DC8016AE009959C012E0DB3
:102590003F1DC9011F910F91FF90EF900895EF9299
:1025A000FF920F931F937C010E9484128C01C7013C
:1025B0000E94AF129C01200F311FC9011F910F9182
:1025C000FF90EF900895EF92FF920F931F937C017D
:1025D000DC01ED91FC910190F081E02D09958C01D9
:1025E000C7010E94AF12080F191FC8011F910F9158
:1025F000FF90EF900895CF93DF93EC016115710583
:1026000019F420E030E00FC0DB010D900020E9F765
:102610001197A61BB70BE881F9810280F381E02DA9
:10262000AD0109959C01C901DF91CF9108954F92A9
:102630005F927F928F929F92AF92BF92CF92DF92E2
:10264000EF92FF920F931F93DF93CF93CDB7DEB737
:10265000A1970FB6F894DEBF0FBECDBF2C01742E2C
:10266000CB01223008F42AE019A231E2C32ED12C8A
:10267000CC0EDD1E822E9924AA24BB24672D752F33
:10268000A50194010E94A41579018A01C801B7012E
:10269000A50194010E947115472D461B0894C1089D
:1026A000D1084A3014F4405D01C0495CF601408312
:1026B000E114F1040105110521F07E2C5F2DC80104
:1026C000DDCFC201B6010E94FB12A1960FB6F894AD
:1026D000DEBF0FBECDBFCF91DF911F910F91FF9055
:1026E000EF90DF90CF90BF90AF909F908F907F90B2
:1026F0005F904F900895DC012115310541F4ED9173
:10270000FC910190F081E02D642F099508950E94BD
:1027100017130895CF92DF92EF92FF920F931F93BA
:102720006C017B019A0100E010E0B801A7010E9452
:102730007B138C01C6010E94AF12080F191FC8013C
:102740001F910F91FF90EF90DF90CF900895CF925F
:10275000DF92EF92FF920F931F936C01E62E9A0186
:10276000FF2400E010E0B801A7010E947B138C0158
:10277000C6010E94AF12080F191FC8011F910F91C7
:10278000FF90EF90DF90CF900895CF92DF92EF927D
:10279000FF920F931F93CF93DF93EC016A017B01AC
:1027A0002115310541F4E881F9810190F081E02D96
:1027B000642F09951FC02A303105D1F477FF17C067
:1027C000E881F9810190F081E02D6DE209958C019D
:1027D00044275527BA014C195D096E097F09CE01BE
:1027E0002AE00E9417139801280F391F04C02AE01D
:1027F0000E9417139C01C901DF91CF911F910F9186
:10280000FF90EF90DF90CF900895EF92FF920F939B
:102810001F937C010E94C5138C01C7010E94AF1257
:102820009C01200F311FC9011F910F91FF90EF9064
:102830000895CF92DF92EF92FF920F931F936C0156
:102840007B019A010027F7FC0095102FB801A70122
:102850000E94C5138C01C6010E94AF12080F191FF8
:10286000C8011F910F91FF90EF90DF90CF900895D6
:102870000E94FB1208950F931F93CF93DF93BC0127
:102880008230910510F462E070E0E0911A06F09158
:102890001B0640E050E0A0E0B0E024C080819181C0
:1028A00086179707D0F08617970771F48281938176
:1028B000109729F013969C938E9312972CC09093A7
:1028C0001B0680931A0627C04115510519F084177D
:1028D000950718F48D01AC01EF01DF01828193812E
:1028E0009C01F9013097D1F641155105F9F0CA0163
:1028F000861B970B8430910580F48A819B8101159A
:10290000110521F0F8019383828304C090931B0684
:1029100080931A06FE01329645C0FE01E80FF91FAA
:10292000619371930297998388833CC080911806C4
:1029300090911906892B41F480910E0190910F011D
:10294000909319068093180640911001509111013F
:102950004115510541F44DB75EB780910C0190913E
:102960000D01481B590B20911806309119062417A8
:102970003507B0F4CA01821B930B8617970780F0C6
:10298000AB014E5F5F4F8417950750F0420F531F06
:102990005093190640931806F9016193719302C090
:1029A000E0E0F0E0CF01DF91CF911F910F9108950A
:1029B000CF93DF939C01009709F48FC0EC0122971D
:1029C0001B821A8260911A0670911B0661157105AF
:1029D00081F488819981820F931F2091180630918C
:1029E00019062817390739F5D0931906C093180628
:1029F00074C0DB0140E050E0AC17BD0708F1BB83B9
:102A0000AA83FE0121913191E20FF31FAE17BF0798
:102A100079F48D919C911197280F391F2E5F3F4FAC
:102A20003983288312968D919C9113979B838A8377
:102A30004115510571F4D0931B06C0931A064DC081
:102A400012968D919C911397AD01009711F0DC01C6
:102A5000D3CFDA011396DC93CE931297FA0121912A
:102A60003191E20FF31FCE17DF0769F48881998156
:102A7000280F391F2E5F3F4FFA01318320838A814F
:102A80009B8193838283E0E0F0E0DB0112968D91DD
:102A90009C911397009719F0BC01FD01F6CFAB0193
:102AA0004E5F5F4FDB018D919C91840F951F2091AC
:102AB0001806309119062817390779F4309729F448
:102AC00010921B0610921A0602C013821282425004
:102AD00050405093190640931806DF91CF91089506
:102AE0000895629FD001739FF001829FE00DF11D58
:102AF000649FE00DF11D929FF00D839FF00D749F78
:102B0000F00D659FF00D9927729FB00DE11DF91F23
:102B1000639FB00DE11DF91FBD01CF011124089580
:102B2000AA1BBB1B51E107C0AA1FBB1FA617B707F3
:102B300010F0A61BB70B881F991F5A95A9F780950F
:102B40009095BC01CD010895A1E21A2EAA1BBB1BD2
:102B5000FD010DC0AA1FBB1FEE1FFF1FA217B30769
:102B6000E407F50720F0A21BB30BE40BF50B661F7F
:102B7000771F881F991F1A9469F760957095809543
:102B800090959B01AC01BD01CF01089597FB092EE3
:102B900005260ED057FD04D0D7DF0AD0001C38F42C
:102BA00050954095309521953F4F4F4F5F4F089579
:102BB000F6F790958095709561957F4F8F4F9F4F59
:102BC0000895EE0FFF1F0590F491E02D0994F894FD
:022BD000FFCF35
:102BD2000D0A003200200118FCFFFF0180001C06D4
:102BE200000000000000F400A800FD001606CE045C
:102BF200B000B2005E045E0400000000CF0A9E0A2C
:102C0200260A2F0A440A550A00000000B6115A1279
:082C12006C1188117811A61164
:00000001FF
