:100000000C9477000C94AC0D0C94D90D0C949F00BB
:100010000C949F000C949F000C949F000C949F00E4
:100020000C949F000C949F000C949F000C949F00D4
:100030000C949F000C949F000C949F000C949F00C4
:100040000C94060E0C94B3000C9438100C947F1092
:100050000C949F000C949F000C949F000C949F00A4
:100060000C94DA0B0C949F00486F6C6964617944BE
:1000700075696E6F30372D313600486F6C69646179
:10008000794475696E6F30372D31360000000000FD
:10009000240027002A0000000000250028002B0073
:1000A00000000000230026002900040404040404C6
:1000B0000404020202020202030303030303010217
:1000C00004081020408001020408102001020408E6
:1000D00010200000000700020100000304060000D9
:1000E0000000000000001101CA09510ABC111124CE
:1000F0001FBECFEFD8E0DEBFCDBF11E0A0E0B1E082
:10010000E2E5FBE202C005900D92AA34B107D9F7EF
:1001100016E0AAE4B1E001C01D92A133B107E1F7F6
:1001200010E0CEEED0E004C02297FE010E94A3159D
:10013000C63ED107C9F70E9412120C94A7150C9461
:100140000000DC0101C06D9341505040E0F708957C
:10015000FC01A081B1812D913C91F901099508958F
:1001600081E0089508951F920F920FB60F92112407
:100170002F933F934F935F936F938F939F93EF933F
:10018000FF936EB58091710490E04091030150910E
:1001900004019A01220F331F240F351F8217930782
:1001A00074F480917104E0913804F0913904E80FFF
:1001B000F11D6083809171048F5F80937104FF91C2
:1001C000EF919F918F916F915F914F913F912F91FF
:1001D0000F900FBE0F901F901895FC01549A80E16C
:1001E00082838BE290E0948383830895DF93CF939F
:1001F00000D00F92CDB7DEB7DC01AB01ED91FC91E1
:100200000680F781E02D19821A821B82BE016F5F82
:100210007F4F20E009950F900F900F90CF91DF91C5
:10022000089508950E944E0E6093090170930A018B
:1002300080930B0190930C0108951F93809103010B
:1002400090910401892B09F443C082E00E94E40FDD
:10025000892B49F4809172048823D1F5109271049E
:1002600088E060E033C08091710490E04091030128
:10027000509104019A01220F331F240F351F82175A
:10028000930724F480913C048823E1F011E010935B
:100290003A040E944E0E2091630430916404442776
:1002A00037FD4095542F260F371F481F591F2093A5
:1002B0006D0430936E0440936F0450937004109358
:1002C000720406C01092710488E061E00E94900FF1
:1002D0001F9108958EE480937C0062E070E080E0DE
:1002E00090E00E94C70E80917A00806480937A002B
:1002F00080917A0086FDFCCF8091780090E0A0E0AC
:10030000B0E060917900362F20E0442737FD40951A
:10031000542F282B392B4A2B5B2B60E070E381E1B3
:1003200090E00E947215CA01B90108950F931F93BE
:100330008C0184E095E060E570E00E94E609612FA1
:10034000772767FD7A9584E095E00E94990A1070FE
:1003500084E095E0602F0E94990A84E095E00E9475
:10036000DC0A84E095E060E570E041E050E00E9446
:10037000ED0A84E095E00E94F009892B11F480E0F9
:1003800004C084E095E00E94F9091F910F9108953F
:10039000DF92EF92FF920F931F938C01D62E84E091
:1003A000E82E85E0F82EC70160E570E00E94E609BE
:1003B000612F772767FD7A95C7010E94990A10700F
:1003C000C701602F0E94990AC7016D2D0E94990AEA
:1003D000C7010E94DC0A65E070E080E090E00E94C6
:1003E000C70E1F910F91FF90EF90DF9008950F932C
:1003F0001F93CF93DF93182F8F3339F48BE895E059
:1004000068E670E00E94991293C18B3519F08D3522
:1004100081F407C084E095E068E070E00E94100B72
:1004200004C084E095E00E94F10A8BE895E0612F1A
:100430007DC1813491F4809167048370825F60E0B4
:100440000E94510F8091670483700E942F0F80914A
:10045000670483700E942F0FC2C0823479F585E053
:100460000E94E40F8C0186E00E94E40F892B19F0B2
:10047000C0E0D0E002C0C2E0D0E087E00E94E40F1C
:10048000892B19F020E030E002C024E030E060E089
:1004900070E0012B11F461E070E080913E04992737
:1004A00087FD909544E0880F991F4A95E1F7682BE6
:1004B000792B6C2B7D2B622B732B2CC18334F9F49D
:1004C0008091650490916604029771F46091050132
:1004D0007091060180916704909168040E943D1517
:1004E000609169040E94C801609105017091060144
:1004F00080916704909168040E943D151FC0843468
:1005000039F580913D0490E02091650430916604B6
:1005100082239323892B81F0609167047091680492
:100520008091410490914204681779070CF060E0D3
:1005300085E090E00E94C80185E090E00E9496016D
:10054000682F8BE895E04AE050E00E945413F0C019
:100550008534B1F48091650490916604892B59F03B
:1005600010923B048091670490916804892B19F0E4
:1005700081E080933B0460E070E080913B04A4C084
:10058000873469F4809167048370825F61E00E9420
:10059000510F809167048370825F60E00EC08834E1
:1005A00079F4809167048370825F61E00E94510F4B
:1005B000809167048370825F61E00E94900F09C0A0
:1005C000893479F4809167048370825F60E00E94CF
:1005D000510F809167048370825F0E94E40FBC0119
:1005E00099C08C3401F58091650490916604892B43
:1005F000A9F080913D04882389F06091670470918F
:1006000068046B3F710514F06AEF70E070930401A9
:100610006093030183E090E00E94C80160910301B0
:100620007091040177C0803599F4809165049091B0
:100630006604892B41F0809167049091680490933F
:10064000400480933F0460913F047091400462C075
:10065000823519F58091650490916604029781F4C2
:10066000E0916704F0916804EF70F070EE0FFF1FE7
:10067000ED5BFB4F8091690490916A0491838083C4
:10068000E0916704F0916804EF70F070EE0FFF1FC7
:10069000ED5BFB4F608171813DC08435D1F4809169
:1006A000650490916604892B59F010923C04809166
:1006B000670490916804892B19F081E080933C04D1
:1006C00060E070E080913C04882321F161E070E0FB
:1006D00021C0863559F40E946A01AB01BC018BE848
:1006E00095E02AE030E00E94B21322C08735C9F4B9
:1006F0008091650490916604892B41F08091670494
:1007000090916804909364048093630460916304FF
:10071000709164048BE895E04AE050E00E94C613B3
:1007200007C080322CF08BE895E06FE30E94AD1299
:10073000DF91CF911F910F9108950F931F93CF9346
:10074000DF938BE895E040E052EC61E070E00E94BE
:10075000AF1085E062E00E94510F86E062E00E94E7
:10076000510F87E062E00E94510F88E061E00E9433
:10077000510F88E061E00E94900F8CE061E00E94E0
:10078000510F8CB580648CBDC0910301D0910401E0
:100790001C161D06D4F4009128011091290189E04E
:1007A00090E00E942112FC011582168217821086A9
:1007B00088E191E091838083C801BF014AE451E060
:1007C0009E0100E010E00E9427098AE491E09093E6
:1007D000390480933804109271041092720480E0FE
:1007E0006DE171E041E050E00E94890D81E062E13D
:1007F00071E042E050E00E94890D8CB580688CBDAC
:1008000085E00E94E40F892B29F480913E048F5FDC
:1008100080933E0486E00E94E40F892B29F48091A6
:100820003E048E5F80933E0487E00E94E40F892B94
:1008300029F480913E048C5F80933E0484E095E02F
:100840000E94F10A80E090E00E949601883669F5E6
:1008500081E090E00E949601813039F580933D045B
:1008600082E090E00E94960190E0880F991F880F27
:10087000991F909306018093050183E090E00E9408
:100880009601809303011092040184E090E00E949D
:100890009601809341041092420485E090E00E940A
:1008A000960180933F04109240048BE895E06AE73C
:1008B00070E00E949912DF91CF911F910F910895DE
:1008C0000F931F938C010E945C0E9B01AC01F801F9
:1008D00080819181A281B381281B390B4A0B5B0B6C
:1008E000223331054105510534F482E390E0821B47
:1008F000930B0E94820E1F910F910895CF92DF9269
:10090000EF92FF920F931F93CF93DF936C01162FFB
:10091000072FEA01E22E05960E946004F894212F29
:10092000302FC901FC01BE01660F771F6C0F7D1FC0
:10093000680F791F5BB150618BB18F7E8BB92181BC
:100940003E2D239F212DE4C095E05BB900140014D7
:1009500000140014001427FF8BB9001400140014B5
:10096000001400148BB900140014220F915069F781
:1009700000145BB90014001400140014001427FFC5
:100980008BB9001400140014001400148BB9001467
:10099000001400140014001400145BB900140014B7
:1009A00000140014001426FF8BB900140014001466
:1009B000001400148BB940813E2D439F412D5BB93B
:1009C0000014001400140014001425FF8BB9001447
:1009D00000140014001400148BB900140014001447
:1009E0000014001495E05BB9001400140014001406
:1009F000001447FF8BB900140014001400140014F5
:100A00008BB900140014440F915069F700145BB9BE
:100A10000014001400140014001447FF8BB90014D4
:100A200000140014001400148BB9001400140014F6
:100A30000014001400145BB9001400140014001416
:100A4000001446FF8BB900140014001400140014A5
:100A50008BB932812E2D329F312D5BB900140014D9
:100A600000140014001445FF8BB900140014001486
:100A7000001400148BB900140014001400140014A6
:100A800095E05BB90014001400140014001437FF43
:100A90008BB9001400140014001400148BB9001456
:100AA0000014330F915069F700145BB9001400145F
:100AB00000140014001437FF8BB900140014001444
:100AC000001400148BB900140014001400143396A1
:100AD0005BB90014001400140014001436FF8BB925
:100AE000001400140014001400148BB921814E2D41
:100AF000249F212D5BB9001400140014001400146D
:100B000035FF8BB9001400140014001400148BB9C5
:100B1000E617F70708F418CF1124E0908605F09047
:100B200087050091880510918905BE01F5E0660FE3
:100B3000771FFA95E1F7CC0FDD1F6C1B7D0B882723
:100B400077FD8095982F28EE33E040E050E00E943A
:100B50007215E20EF31E041F151FE0928605F09237
:100B60008705009388051093890578940E945C0E90
:100B7000F6016583768387839087DF91CF911F91FC
:100B80000F91FF90EF90DF90CF900895CF92DF927A
:100B9000EF92FF920F931F93CF93DF936C018B0122
:100BA000EA01E22E05960E946004F894BE01660FE9
:100BB000771F6C0F7D1F600F711F5BB150618BB190
:100BC0008F7E8BB9D8011196FC902F2D3E2D239F3F
:100BD000212DF801EAC095E05BB90014001400145F
:100BE0000014001427FF8BB9001400140014001423
:100BF00000148BB900140014220F915069F70014EF
:100C00005BB90014001400140014001427FF8BB902
:100C1000001400140014001400148BB90014001404
:100C200000140014001400145BB900140014001424
:100C30000014001426FF8BB90014001400140014D3
:100C400000148BB9D8014C9100143E2D439F412DC7
:100C50005BB90014001400140014001425FF8BB9B4
:100C6000001400140014001400148BB900140014B4
:100C700000140014001495E05BB900140014001473
:100C80000014001447FF8BB9001400140014001462
:100C900000148BB900140014440F915069F700142C
:100CA0005BB90014001400140014001447FF8BB942
:100CB000001400140014001400148BB90014001464
:100CC00000140014001400145BB900140014001484
:100CD0000014001446FF8BB9001400140014001413
:100CE00000148BB9D80112963C9100142E2D329F1E
:100CF000312D5BB90014001400140014001445FFDA
:100D00008BB9001400140014001400148BB90014E3
:100D1000001400140014001495E05BB900140014D2
:100D200000140014001437FF8BB9001400140014D1
:100D3000001400148BB900140014330F915069F79C
:100D400000145BB90014001400140014001437FFE1
:100D50008BB9001400140014001400148BB9001493
:100D600000140014001433965BB90014001400142E
:100D70000014001436FF8BB9001400140014001482
:100D800000148BB900142F2D4E2D249F212D5BB9FB
:100D90000014001400140014001435FF8BB9001463
:100DA00000140014001400148BB9E617F70708F4B8
:100DB00012CF1124E0908605F090870500918805F8
:100DC00010918905BE0185E0660F771F8A95E1F7CE
:100DD000CC0FDD1F6C1B7D0B882777FD8095982F2E
:100DE00028EE33E040E050E00E947215E20EF31E60
:100DF000041F151FE0928605F09287050093880571
:100E00001093890578940E945C0ED60115966D9317
:100E10007D938D939C931897DF91CF911F910F91A4
:100E2000FF90EF90DF90CF9008951F93182F682FB9
:100E300062956F7060636A330CF0695D772767FDB8
:100E400070958BE895E00E948011612F6F70606350
:100E50006A330CF0695D772767FD70958BE895E044
:100E60000E9480111F910895EF92FF920F931F939C
:100E7000CF93DF938BE895E00E943611892B09F41C
:100E800083C081E080933A040E944E0E2091630457
:100E900030916404442737FD4095542F260F371FA7
:100EA000481F591F20936D0430936E0440936F04C4
:100EB000509370048BE895E00E945211182F809196
:100EC0003B04882329F08BE895E0612F0E94711282
:100ED000812F80538A3058F5809165049091660483
:100EE000892B31F481E090E090936604809365044F
:100EF000E0916504F0916604EE0FFF1FEB59FB4F84
:100F0000808191819C0153E0220F331F5A95E1F7B4
:100F1000880F991F280F391F20533040812F9927A0
:100F200087FD9095280F391F318320832DC01C32F7
:100F300001F5809165049091660482309105CCF4AE
:100F4000892B31F481E090E09093660480936504EE
:100F5000E0916504F09166043196F0936604E093A5
:100F600065043197EE0FFF1FE959FB4F1182108284
:100F70000BC0812F0E94F701109266041092650445
:100F8000109268041092670480913A04882309F053
:100F9000DDC0E0906D04F0906E0400916F0410913C
:100FA00070040E944E0E6E157F058007910708F4AD
:100FB000CDC08091030190910401FC01EE0FFF1F51
:100FC000E80FF91F2AE431E0C90160E070E0AF01E9
:100FD0000E94A100E0900901F0900A0100910B012C
:100FE00010910C0188EE93E0A0E0B0E0E80EF91E4D
:100FF0000A1F1B1F0E944E0EE616F7060807190768
:1010000020F48FE380934A0103C08FE380934C0167
:1010100085E00E94E40F892B29F480914C01815CCA
:1010200080934C0186E00E94E40F892B29F4809183
:101030004C01815C80934C0187E00E94E40F892B76
:1010400029F480914C01815C80934C0120916B04C8
:1010500030916C04237030702130310599F02230CA
:101060003105F1F08091070190910801232B29F5BA
:10107000FC01EE0FFF1FE80FF91FE65BFE4F8FEF3D
:10108000808326C08091070190910801FC01EE0F3A
:10109000FF1FE80FF91FE65BFE4F8FEF818318C03B
:1010A0008091070190910801FC01EE0FFF1FE80FEE
:1010B000F91FE65BFE4F8FEF0AC0FC01EE0FFF1F2A
:1010C000E80FF91FE65BFE4F8FEF808381838283F9
:1010D00080910301909104011816190654F4E091CF
:1010E0002601F0912701CF01EE5BFF4F60810E9446
:1010F0007C09809107019091080101969093080165
:101100008093070120910301309104018217930716
:101110007CF081E090E0909308018093070180913A
:101120006B0490916C04019690936C0480936B0413
:101130000E944E0E6E5C7F4F8F4F9F4F60936D04E9
:1011400070936E0480936F04909370048091720486
:10115000882309F459C080913C048823F1F1C0E050
:10116000D0E011C0209729F08BE895E06CE20E9456
:101170007112E0913804F0913904EC0FFD1F808169
:101180000E94150721968091710490E0C817D90735
:101190004CF38BE895E060E071E00E94E5130EC02F
:1011A00080917104E0913804F0913904E80FF11D49
:1011B0001082809171048F5F80937104809171041B
:1011C00090E040910301509104019A01220F331FD6
:1011D000240F351F821793071CF380910301909110
:1011E00004011816190654F4E0912601F091270124
:1011F000CF01EE5BFF4F60810E947C091092720468
:1012000088E061E00E94900F8091630490916404F3
:1012100018161906ACF480913A04882389F0E090FE
:101220006D04F0906E0400916F04109170040E94A0
:101230004E0E6E157F058007910710F010923A044C
:10124000DF91CF911F910F91FF90EF900895DF9262
:10125000EF92FF920F931F93CF93DF93EC017B01EB
:10126000101611062CF0D22E032F20E030E002C021
:10127000D02E012FC05CDF4FA881B981C054D0406F
:10128000FE0160E070E007C0808191813896892B73
:1012900041F06F5F7F4F6A177B07B4F3EE24FF24A2
:1012A00022C0E3E0660F771FEA95E1F7DE01A60FA3
:1012B000B71F1196FC92EE92FE01E60FF71F5383C3
:1012C000428317963C932E931697FB013496EC0FAE
:1012D000FD1FD0820183D701ED91FC910190F08137
:1012E000E02DC7010995C701DF91CF911F910F91A3
:1012F000FF90EF90DF900895DF92EF92FF920F93AF
:101300001F93CF93DF93D62EEC0100E010E050E462
:10131000E52EF12CE80EF91E1DC0A881B9811097A9
:10132000F9F0ED91FC9111972E813F81C901880F51
:10133000991F820F931F6A817B81680F791F4C81EF
:101340005D810084F185E02DCD012D2D09950F5F84
:101350001F4F2896F7018081918108171907ECF239
:10136000DF91CF911F910F91FF90EF90DF90089543
:10137000FC01E05CFF4F88E090E0819391938FEF58
:101380008083E254F040CF0160E040E450E00E94EE
:10139000DB09089583E794E00E94B80980E096E9AC
:1013A000AFEFBFEF8093B6049093B704A093B80457
:1013B000B093B9040895DC0140FF03C001C06D93F0
:1013C0006D934250E0F75040D0F7089581E080934C
:1013D000FF046093DC041092FD041092FE04089553
:1013E0002091DB0430E08091DA04281B3109C90127
:1013F00008954091DA048091DB04481718F02FEF2C
:101400003FEF0AC0E42FF0E0E654FB4F8081282F25
:1014100030E04F5F4093DA04C9010895E091DA04A7
:101420008091DB04E81718F0EFEFFFEF06C0F0E063
:10143000E654FB4F8081E82FF0E0CF010895089536
:10144000AC01209102053091030521153105E1F031
:101450009091DA048091DB049817B0F090E008C016
:10146000FA01EA0FFB1F8081A654BB4F8C939F5F4C
:10147000A92FB0E0A617B7079CF31092DA04609387
:10148000DB04CB01F90109950895E0910005F09185
:101490000105309729F01092FD041092FE04099581
:1014A0000895109207051092060588EE93E0A0E0DB
:1014B000B0E08093080590930905A0930A05B093C6
:1014C0000B058EE291E09093050580930405089545
:1014D000CF92DF92EF92FF920F931F93CF93DF9300
:1014E0007C016B018A018091FF048823A1F0C0E098
:1014F000D0E00DC0D701ED91FC91D601AC0FBD1F1E
:101500000190F081E02DC7016C9109952196C017DB
:10151000D10780F304C0CB01642F0E94B50BC80132
:10152000DF91CF911F910F91FF90EF90DF90CF90BF
:101530000895DF93CF930F92CDB7DEB7FC01698397
:101540008091FF048823C9F08091FE04803238F036
:1015500081E090E09383828320E030E015C08091A9
:10156000FD04E82FF0E0E352FB4F998190838F5FF9
:101570008093FD048093FE0405C0CE01019661E0D6
:101580000E94B50B21E030E0C9010F90CF91DF91AF
:1015900008950F93062F8091DC046DED74E0409167
:1015A000FE0421E00E94600B1092FD041092FE04E4
:1015B0001092FF040F91089561E00E94C90A0895F6
:1015C000413208F040E2862F6AEB74E00E94170B6C
:1015D0001092DA048093DB04089521E00E94E00A6F
:1015E00008951092DA041092DB041092FD04109218
:1015F000FE040E946B0D08950F931F938C01862F9C
:101600000E94130B85E49AE00E94D50B80E29AE0D9
:101610000E94D00BC8010E94F10A1F910F910895FA
:101620000E94FC0A0895880F8093BA000895382F0D
:10163000413210F040E042C0809110058823E1F76C
:1016400091E090931005209312058FEF80937D0514
:10165000109238054150409339054F5F9093110522
:1016600080911105330F832B809311058091130511
:10167000813041F410921305809111058093BB00D5
:1016800085EC01C085EE8093BC008091100581300F
:10169000E1F380913805841710F44091380520E07B
:1016A00030E00AC0FB01E20FF31FD901A85EBA4F78
:1016B0008C9180832F5F3F4F2417A0F3842F0895D0
:1016C0000F931F93582F122F413210F081E04AC020
:1016D000809110058823E1F782E080931005009344
:1016E00012058FEF80937D051092380540933905E0
:1016F000A8E1B5E0FB0102C081918D938E2F861B7E
:101700008417D0F31092110580911105550F852B88
:101710008093110580911305813041F410921305D7
:10172000809111058093BB0085EC01C085EE80930C
:10173000BC00112321F0809110058230E1F38091EB
:101740007D058F3F11F480E00DC080917D058032D2
:1017500011F482E007C080917D05803311F084E0B0
:1017600001C083E01F910F910895482F613210F05E
:1017700081E0089580911005843011F082E0089591
:1017800060935B05AAE3B5E0842F9C01F90102C0D8
:1017900081918D938E2F841B8617D0F380E008955E
:1017A00090931705809316050895909315058093DF
:1017B000140508951F920F920FB60F9211242F93C4
:1017C0003F934F935F936F937F938F939F93AF93C9
:1017D000BF93EF93FF938091B90090E0887F907062
:1017E0008036910509F4F2C081369105CCF5883236
:1017F000910509F47BC089329105B4F480319105DB
:1018000009F46FC0813191053CF4009709F447C198
:10181000089709F04FC165C08831910509F466C089
:10182000809709F047C182C08034910509F4A4C0B3
:101830008134910544F48033910509F482C0C8973E
:1018400009F038C189C08035910509F489C088350F
:10185000910509F496C08834910509F02BC1AEC0FA
:101860008839910509F413C189399105ECF4883759
:10187000910509F4ABC0893791054CF48836910580
:1018800009F4A4C08037910509F014C19FC08838BD
:10189000910509F4FCC08039910509F49DC0803898
:1018A000910509F007C198C0803B910509F4C6C0B5
:1018B000813B91054CF4803A910509F49FC0883A28
:1018C000910509F0F7C0BAC0803C910509F4E3C066
:1018D000883C910509F4DFC0883B910509F0EAC016
:1018E000C2C0809111058093BB00CFC09091380594
:1018F00080913905981768F490913805E92FF0E048
:10190000E85EFA4F80818093BB009F5F909338051B
:10191000BCC080911205882309F44BC085ED8093EB
:10192000BC008091BC0084FDFCCFC2C080E28093EB
:101930007D0585ED8093BC008091BC0084FDFCCFCB
:10194000B7C080E380937D0585ED8093BC008091D6
:10195000BC0084FDFCCFACC088E380937D059BC0B8
:10196000809138059091BB00E82FF0E0E85EFA4FD7
:1019700090838F5F80933805909138058091390569
:1019800082C0809138059091BB00E82FF0E0E85EBE
:10199000FA4F90838F5F80933805809112058823DA
:1019A00041F085ED8093BC008091BC0084FDFCCFAC
:1019B0007FC081E08093130584EA6EC085ED80933B
:1019C000BC008091BC0084FDFCCF72C083E080939A
:1019D000100510927C0559C080917C05803208F07A
:1019E00056C080917C059091BB00E82FF0E0E45A4E
:1019F000FA4F90838F5F80937C0547C080917C0570
:101A0000803230F4E0917C05F0E0E45AFA4F108225
:101A100085ED8093BC008091BC0084FDFCCF1092CA
:101A2000100560917C05E0911605F09117058CE595
:101A300095E070E0099510927C052DC084E08093BC
:101A4000100510925A0510925B05E0911405F09173
:101A50001505099580915B05882329F481E0809321
:101A60005B0510923A0590915A05E92FF0E0E65C8B
:101A7000FA4F80818093BB009F5F90935A059091AD
:101A80005A0580915B05981710F485EC01C085E834
:101A90008093BC000FC085EC8093BC0009C01092FD
:101AA0007D0585ED8093BC008091BC0084FDFCCF5A
:101AB00010921005FF91EF91BF91AF919F918F917F
:101AC0007F916F915F914F913F912F910F900FBE3A
:101AD0000F901F9018951092100581E080931205C9
:101AE0001092130582E161E00E94900F83E161E0B2
:101AF0000E94900FE9EBF0E080818E7F80838081EF
:101B00008D7F808388E48093B80085E48093BC0057
:101B10000895823000F5E82FF0E0EE0FFF1FE25845
:101B2000FA4F71836083882319F08130A1F408C0D3
:101B3000809169008C7F842B80936900E89A0895D6
:101B400080916900440F551F440F551F837F842BDC
:101B500080936900E99A08951F920F920FB60F9231
:101B600011242F933F934F935F936F937F938F93A2
:101B70009F93AF93BF93EF93FF9380917E059091D6
:101B80007F05892B29F0E0917E05F0917F0509956D
:101B9000FF91EF91BF91AF919F918F917F916F9145
:101BA0005F914F913F912F910F900FBE0F901F901B
:101BB00018951F920F920FB60F9211242F933F93F7
:101BC0004F935F936F937F938F939F93AF93BF9345
:101BD000EF93FF938091800590918105892B29F0E7
:101BE000E0918005F09181050995FF91EF91BF91FA
:101BF000AF919F918F917F916F915F914F913F91A5
:101C00002F910F900FBE0F901F9018951F920F925B
:101C10000FB60F9211242F933F938F939F93AF93FF
:101C2000BF938091860590918705A0918805B0911A
:101C3000890530918A050196A11DB11D232F2D5FC5
:101C40002D3720F02D570196A11DB11D20938A0537
:101C50008093860590938705A0938805B0938905A6
:101C60008091820590918305A0918405B0918505AE
:101C70000196A11DB11D8093820590938305A093C9
:101C80008405B0938505BF91AF919F918F913F914E
:101C90002F910F900FBE0F901F9018958FB7F8944B
:101CA00020918605309187054091880550918905DE
:101CB0008FBFB901CA0108959FB7F894209182059A
:101CC00030918305409184055091850586B5A89B88
:101CD00006C08F3F21F02F5F3F4F4F4F5F4F9FBF99
:101CE000542F432F322F2227280F311D411D511D04
:101CF00082E0220F331F441F551F8A95D1F7B90187
:101D0000CA010895019739F0880F991F880F991F0C
:101D100002970197F1F70895789484B5826084BDA5
:101D200084B5816084BD85B5826085BD85B58160DF
:101D300085BDEEE6F0E0808181608083E1E8F0E03F
:101D40001082808182608083808181608083E0E86E
:101D5000F0E0808181608083E1EBF0E0808184604D
:101D60008083E0EBF0E0808181608083EAE7F0E04F
:101D700080818460808380818260808380818160B3
:101D800080838081806880831092C1000895EF92E3
:101D9000FF920F931F93CF93DF937B018C013FB78B
:101DA000F8948091820590918305A0918405B0916B
:101DB000850526B5A89B05C02F3F19F00196A11DEA
:101DC000B11D3FBFBA2FA92F982F8827820F911DD1
:101DD000A11DB11D52E0880F991FAA1FBB1F5A9564
:101DE000D1F7EC0130C00E941D153FB7F8948091E7
:101DF000820590918305A0918405B091850526B553
:101E0000A89B05C02F3F19F00196A11DB11D3FBF32
:101E1000BA2FA92F982F8827820F911DA11DB11DC0
:101E200032E0880F991FAA1FBB1F3A95D1F78C1B70
:101E30009D0B885E9340B8F20894E108F10801090F
:101E40001109C851DC4FE114F1040105110559F6DF
:101E5000DF91CF911F910F91FF90EF900895982FF0
:101E60008E3008F09E50977080910D018295880FFA
:101E7000880F807C892B80937C0080917A0080641D
:101E800080937A0080917A0086FDFCCF20917800C3
:101E900040917900942F80E030E0282B392BC90144
:101EA0000895CF93DF93482F50E0CA0182549F4F8B
:101EB000FC01349146555F4FFA018491882369F102
:101EC00090E0880F991FFC01E457FF4FA591B49152
:101ED000FC01EA56FF4FC591D491662351F42FB708
:101EE000F8948C91932F909589238C9388818923E2
:101EF0000BC0623061F42FB7F8948C91932F9095BA
:101F000089238C938881832B88832FBF06C09FB73A
:101F1000F8948C91832B8C939FBFDF91CF91089580
:101F2000482F50E0CA018E529F4FFC012491CA01F4
:101F300082549F4FFC01949146555F4FFA013491B2
:101F4000332309F440C0222351F1233071F02430AF
:101F500028F42130A1F0223011F514C02630B1F060
:101F60002730C1F02430D9F404C0809180008F77ED
:101F700003C0809180008F7D8093800010C084B565
:101F80008F7702C084B58F7D84BD09C08091B00079
:101F90008F7703C08091B0008F7D8093B000E32FD6
:101FA000F0E0EE0FFF1FEA56FF4FA591B4912FB757
:101FB000F894662321F48C919095892302C08C912A
:101FC000892B8C932FBF0895682F70E0CB018E5220
:101FD0009F4FFC012491CB0182549F4FFC014491FF
:101FE00066557F4FFB019491992319F420E030E06E
:101FF0003CC0222351F1233071F0243028F42130E9
:10200000A1F0223011F514C02630B1F02730C1F014
:102010002430D9F404C0809180008F7703C0809170
:1020200080008F7D8093800010C084B58F7702C0C0
:1020300084B58F7D84BD09C08091B0008F7703C0C7
:102040008091B0008F7D8093B000892F90E0880F41
:10205000991F80569F4FFC01A591B4918C9120E06F
:1020600030E0842311F021E030E0C90108950895A3
:102070001F920F920FB60F9211242F933F934F93FD
:102080008F939F93EF93FF938091C00082FD19C0BF
:102090004091C6008091A905282F30E02F5F3F4F67
:1020A0002F7330708091AA0590E02817390759F0F6
:1020B000E091A905F0E0E557FA4F42A32093A90566
:1020C00002C08091C600FF91EF919F918F914F9137
:1020D0003F912F910F900FBE0F901F9018958091F8
:1020E000A9052091AA0590E0805C9F4F821B910971
:1020F0008F739070892B11F00E94371008951F92F2
:102100000F920FB60F9211242F938F939F93EF93FB
:10211000FF939091AB058091AC05981731F48091B5
:10212000C1008F7D8093C10010C0E091AC05F0E04C
:10213000E351FA4F20818091AC0590E001968F73B6
:1021400090708093AC052093C600FF91EF919F9112
:102150008F912F910F900FBE0F901F901895AF92F7
:10216000BF92DF92EF92FF920F931F93CF93DF9373
:10217000EC017A018B01DD24403081EE580780E0CC
:10218000680780E0780711F0DD24D39491E0A92E50
:10219000B12CE889F989DD2069F0C5010C8C02C0F9
:1021A000880F991F0A94E2F7808360E079E08DE35D
:1021B00090E005C0108260E874E88EE190E0A8012C
:1021C00097010E9450152150304040405040569594
:1021D00047953795279580E12030380720F0DD209E
:1021E00011F0DD24D6CFEC85FD853083EE85FF85AB
:1021F00020831D8EEA89FB89408121E030E0C901FE
:10220000088C02C0880F991F0A94E2F7482B40837C
:10221000EA89FB894081C901098C02C0880F991F96
:102220000A94E2F7482B4083EA89FB894081C9017F
:102230000A8C02C0880F991F0A94E2F7482B40834A
:10224000EA89FB8980810B8C02C0220F331F0A941C
:10225000E2F7209528232083DF91CF911F910F91E2
:10226000FF90EF90DF90BF90AF900895FC01268D16
:10227000878D30E0205C3F4F281B31092F73307071
:10228000C9010895FC01968D878D981719F42FEFD9
:102290003FEF06C0878DE80FF11D82A1282F30E0A7
:1022A000C9010895DC015E969C915E975F968C91C2
:1022B0005F97981719F42FEF3FEF10C05F968C913E
:1022C0005F97FD01E80FF11D92A15F968C915F97DA
:1022D0008F5F8F735F968C93292F30E0C90108952B
:1022E000DC015D968C915D97882339F05096ED91D5
:1022F000FC915197808186FFF9CF5D961C920895DD
:10230000DC0190968C919097282F30E02F5F3F4F03
:102310002F73307091968C91919790E02817390720
:10232000C9F390968C919097FD01E80FF11DEE593D
:10233000FF4F608390962C9390975296ED91FC916D
:102340005397208181E090E05B960C905B9702C0F0
:10235000880F991F0A94E2F7282B208381E05D966D
:102360008C935D975096ED91FC915197808180649C
:10237000808381E090E0089510928E0510928D0583
:1023800088EE93E0A0E0B0E080938F0590939005F5
:10239000A0939105B09392058EE391E090938C0504
:1023A00080938B051092AC058091AC058093AB05B2
:1023B0001092AA058091AA058093A90585EC90E06A
:1023C000909398058093970584EC90E090939A05FC
:1023D0008093990580EC90E090939C0580939B05F9
:1023E00081EC90E090939E0580939D0582EC90E0B7
:1023F0009093A00580939F0586EC90E09093A205B2
:102400008093A10584E08093A30583E08093A405D5
:1024100087E08093A50585E08093A60581E0809301
:10242000A7050895CF93DF930E948C0E0E949D0311
:10243000CFE6D0E10E9434072097E1F30E946F10AD
:10244000F9CF0E94E8130895CF92DF92EF92FF92A6
:102450000F931F93CF93DF937C016B018A01C0E040
:10246000D0E00FC0D6016D916D01D701ED91FC91C7
:102470000190F081E02DC7010995C80FD91F0150C7
:1024800010400115110571F7CE01DF91CF911F9119
:102490000F91FF90EF90DF90CF900895EF92FF9211
:1024A0000F931F93CF93DF937C018B01C0E0D0E0AB
:1024B000F8010F5F1F4F6491662359F0D701ED912A
:1024C000FC910190F081E02DC7010995C80FD91F3B
:1024D000EFCFCE01DF91CF911F910F91FF90EF9041
:1024E0000895DC01ED91FC910190F081E02D0995BA
:1024F0000895EF92FF920F931F938C01DC01ED91F1
:10250000FC910190F081E02D6DE009957C01D801EE
:10251000ED91FC910190F081E02DC8016AE00995F0
:102520009C012E0D3F1DC9011F910F91FF90EF904F
:102530000895EF92FF920F931F937C010E944E1219
:102540008C01C7010E9479129C01200F311FC90123
:102550001F910F91FF90EF900895EF92FF920F93CC
:102560001F937C01DC01ED91FC910190F081E02D45
:1025700009958C01C7010E947912080F191FC80123
:102580001F910F91FF90EF900895CF93DF93EC018F
:102590006115710519F420E030E00FC0DB010D90EA
:1025A0000020E9F71197A61BB70BE881F98102809B
:1025B000F381E02DAD0109959C01C901DF91CF9117
:1025C00008954F925F927F928F929F92AF92BF92A7
:1025D000CF92DF92EF92FF920F931F93DF93CF93EF
:1025E000CDB7DEB7A1970FB6F894DEBF0FBECDBF53
:1025F0002C01742ECB01223008F42AE019A231E21A
:10260000C32ED12CCC0EDD1E822E9924AA24BB24ED
:10261000672D752FA50194010E94501579018A013B
:10262000C801B701A50194010E941E15472D461B44
:102630000894C108D1084A3014F4405D01C0495CD7
:10264000F6014083E114F1040105110521F07E2C0F
:102650005F2DC801DDCFC201B6010E94C512A1964F
:102660000FB6F894DEBF0FBECDBFCF91DF911F91A3
:102670000F91FF90EF90DF90CF90BF90AF909F9021
:102680008F907F905F904F900895DC012115310568
:1026900041F4ED91FC910190F081E02D642F0995BA
:1026A00008950E94E1120895CF92DF92EF92FF9277
:1026B0000F931F936C01E62E9A01FF2400E010E0B7
:1026C000B801A7010E9445138C01C6010E9479122E
:1026D000080F191FC8011F910F91FF90EF90DF9015
:1026E000CF900895CF92DF92EF92FF920F931F93B6
:1026F000CF93DF93EC016A017B012115310541F491
:10270000E881F9810190F081E02D642F09951FC0C7
:102710002A303105D1F477FF17C0E881F9810190A3
:10272000F081E02D6DE209958C0144275527BA010F
:102730004C195D096E097F09CE012AE00E94E11261
:102740009801280F391F04C02AE00E94E1129C0161
:10275000C901DF91CF911F910F91FF90EF90DF9012
:10276000CF900895EF92FF920F931F937C010E94E8
:1027700072138C01C7010E9479129C01200F311F36
:10278000C9011F910F91FF90EF900895CF92DF92B2
:10279000EF92FF920F931F936C017B019A01002728
:1027A000F7FC0095102FB801A7010E9472138C014D
:1027B000C6010E947912080F191FC8011F910F91BD
:1027C000FF90EF90DF90CF9008950E94C51208957A
:1027D0000F931F93CF93DF93BC018230910510F4C8
:1027E00062E070E0E0912F06F091300640E050E0AA
:1027F000A0E0B0E024C08081918186179707D0F0D7
:102800008617970771F482819381109729F01396A8
:102810009C938E9312972CC09093300680932F0632
:1028200027C04115510519F08417950718F48D013B
:10283000AC01EF01DF01828193819C01F9013097A6
:10284000D1F641155105F9F0CA01861B970B84306A
:10285000910580F48A819B810115110521F0F80111
:102860009383828304C09093300680932F06FE01E9
:10287000329645C0FE01E80FF91F619371930297EC
:10288000998388833CC080912D0690912E06892BD8
:1028900041F4809110019091110190932E06809344
:1028A0002D0640911201509113014115510541F43B
:1028B0004DB75EB780910E0190910F01481B590BE7
:1028C00020912D0630912E0624173507B0F4CA0149
:1028D000821B930B8617970780F0AB014E5F5F4F0B
:1028E0008417950750F0420F531F50932E064093C4
:1028F0002D06F9016193719302C0E0E0F0E0CF0191
:10290000DF91CF911F910F910895CF93DF939C0199
:10291000009709F48FC0EC0122971B821A82609104
:102920002F06709130066115710581F488819981B7
:10293000820F931F20912D0630912E0628173907FC
:1029400039F5D0932E06C0932D0674C0DB0140E00C
:1029500050E0AC17BD0708F1BB83AA83FE012191AB
:102960003191E20FF31FAE17BF0779F48D919C915F
:102970001197280F391F2E5F3F4F398328831296F6
:102980008D919C9113979B838A834115510571F416
:10299000D0933006C0932F064DC012968D919C9116
:1029A0001397AD01009711F0DC01D3CFDA01139634
:1029B000DC93CE931297FA0121913191E20FF31F2C
:1029C000CE17DF0769F488819981280F391F2E5FA0
:1029D0003F4FFA01318320838A819B8193838283D5
:1029E000E0E0F0E0DB0112968D919C911397009747
:1029F00019F0BC01FD01F6CFAB014E5F5F4FDB016B
:102A00008D919C91840F951F20912D0630912E065B
:102A10002817390779F4309729F41092300610926C
:102A20002F0602C0138212824250504050932E064D
:102A300040932D06DF91CF9108950895629FD001B4
:102A4000739FF001829FE00DF11D649FE00DF11D69
:102A5000929FF00D839FF00D749FF00D659FF00D18
:102A60009927729FB00DE11DF91F639FB00DE11D05
:102A7000F91FBD01CF011124089597FB092E0726E8
:102A80000AD077FD04D049D006D000201AF4709502
:102A900061957F4F0895F6F7909581959F4F089522
:102AA000A1E21A2EAA1BBB1BFD010DC0AA1FBB1F52
:102AB000EE1FFF1FA217B307E407F50720F0A21BC4
:102AC000B30BE40BF50B661F771F881F991F1A9431
:102AD00069F760957095809590959B01AC01BD015B
:102AE000CF01089597FB092E05260ED057FD04D07F
:102AF000D7DF0AD0001C38F45095409530952195C9
:102B00003F4F4F4F5F4F0895F6F790958095709522
:102B100061957F4F8F4F9F4F0895AA1BBB1B51E1BB
:102B200007C0AA1FBB1FA617B70710F0A61BB70B3D
:102B3000881F991F5A95A9F780959095BC01CD01E2
:102B40000895EE0FFF1F0590F491E02D0994F8947D
:022B5000FFCFB5
:102B52000D0A0032002000010018FCFFFF01800076
:102B62003106000000000000ED00A800F600C605D6
:102B72007E04B000B2007304730400000000990ADE
:102B8200680AF009F9090E0A1F0A00000000801104
:0A2B92002412361152114211701185
:00000001FF
